{
  "contractName": "Marketplace",
  "abi": [
    {
      "inputs": [],
      "stateMutability": "nonpayable",
      "type": "constructor"
    },
    {
      "anonymous": false,
      "inputs": [
        {
          "indexed": true,
          "internalType": "uint256",
          "name": "itemId",
          "type": "uint256"
        },
        {
          "indexed": true,
          "internalType": "uint256",
          "name": "tokenId",
          "type": "uint256"
        },
        {
          "indexed": false,
          "internalType": "address",
          "name": "AssetFluidStreamContract",
          "type": "address"
        },
        {
          "indexed": false,
          "internalType": "address",
          "name": "owner",
          "type": "address"
        },
        {
          "indexed": false,
          "internalType": "uint256",
          "name": "price",
          "type": "uint256"
        }
      ],
      "name": "MarketAssetStatus",
      "type": "event"
    },
    {
      "inputs": [],
      "name": "getMarketCommissionPrice",
      "outputs": [
        {
          "internalType": "uint256",
          "name": "",
          "type": "uint256"
        }
      ],
      "stateMutability": "view",
      "type": "function"
    },
    {
      "inputs": [],
      "name": "getOwner",
      "outputs": [
        {
          "internalType": "address",
          "name": "",
          "type": "address"
        }
      ],
      "stateMutability": "view",
      "type": "function"
    },
    {
      "inputs": [],
      "name": "getOwnerBalance",
      "outputs": [
        {
          "internalType": "uint256",
          "name": "",
          "type": "uint256"
        }
      ],
      "stateMutability": "view",
      "type": "function"
    },
    {
      "inputs": [
        {
          "internalType": "uint256",
          "name": "tokenId",
          "type": "uint256"
        },
        {
          "internalType": "uint256",
          "name": "price",
          "type": "uint256"
        },
        {
          "internalType": "address",
          "name": "AssetFluidStreamContract",
          "type": "address"
        },
        {
          "internalType": "address payable",
          "name": "newOwner",
          "type": "address"
        }
      ],
      "name": "createMarketAsset",
      "outputs": [],
      "stateMutability": "payable",
      "type": "function"
    },
    {
      "inputs": [],
      "name": "fetchMarketAssets",
      "outputs": [
        {
          "components": [
            {
              "internalType": "uint256",
              "name": "itemId",
              "type": "uint256"
            },
            {
              "internalType": "uint256",
              "name": "assetTokenId",
              "type": "uint256"
            },
            {
              "internalType": "address",
              "name": "AssetFluidStreamContract",
              "type": "address"
            },
            {
              "internalType": "address payable",
              "name": "owner",
              "type": "address"
            },
            {
              "internalType": "uint256",
              "name": "price",
              "type": "uint256"
            },
            {
              "internalType": "bool",
              "name": "available",
              "type": "bool"
            }
          ],
          "internalType": "struct Marketplace.MarketAsset[]",
          "name": "",
          "type": "tuple[]"
        }
      ],
      "stateMutability": "view",
      "type": "function"
    },
    {
      "inputs": [
        {
          "internalType": "uint256",
          "name": "itemId",
          "type": "uint256"
        },
        {
          "internalType": "address",
          "name": "_assetStreamContract",
          "type": "address"
        },
        {
          "internalType": "address",
          "name": "_assetNftContract",
          "type": "address"
        }
      ],
      "name": "purchaseAsset",
      "outputs": [],
      "stateMutability": "payable",
      "type": "function"
    },
    {
      "inputs": [],
      "name": "fetchMyAssets",
      "outputs": [
        {
          "components": [
            {
              "internalType": "uint256",
              "name": "itemId",
              "type": "uint256"
            },
            {
              "internalType": "uint256",
              "name": "assetTokenId",
              "type": "uint256"
            },
            {
              "internalType": "address",
              "name": "AssetFluidStreamContract",
              "type": "address"
            },
            {
              "internalType": "address payable",
              "name": "owner",
              "type": "address"
            },
            {
              "internalType": "uint256",
              "name": "price",
              "type": "uint256"
            },
            {
              "internalType": "bool",
              "name": "available",
              "type": "bool"
            }
          ],
          "internalType": "struct Marketplace.MarketAsset[]",
          "name": "",
          "type": "tuple[]"
        }
      ],
      "stateMutability": "view",
      "type": "function"
    }
  ],
  "bytecode": "0x60806040526658d15e1762800060035534801561001b57600080fd5b50600160008190555033600260006101000a81548173ffffffffffffffffffffffffffffffffffffffff021916908373ffffffffffffffffffffffffffffffffffffffff160217905550611578806100746000396000f3fe6080604052600436106100705760003560e01c8063893d20e81161004e578063893d20e8146100e7578063bb8c980114610112578063bbf998861461013d578063c9999e201461016857610070565b80632f936acd14610075578063590791f214610091578063811e4214146100bc575b600080fd5b61008f600480360381019061008a9190610eb1565b610184565b005b34801561009d57600080fd5b506100a6610424565b6040516100b39190610f27565b60405180910390f35b3480156100c857600080fd5b506100d16104f5565b6040516100de9190610f27565b60405180910390f35b3480156100f357600080fd5b506100fc6104ff565b6040516101099190610f51565b60405180910390f35b34801561011e57600080fd5b506101276105b9565b60405161013491906110de565b60405180910390f35b34801561014957600080fd5b50610152610792565b60405161015f91906110de565b60405180910390f35b610182600480360381019061017d9190611100565b610a8a565b005b600260005414156101ca576040517f08c379a00000000000000000000000000000000000000000000000000000000081526004016101c1906111b0565b60405180910390fd5b600260008190555060008311610215576040517f08c379a000000000000000000000000000000000000000000000000000000000815260040161020c9061121c565b60405180910390fd5b61021f6001610d52565b600061022b6001610d68565b90508273ffffffffffffffffffffffffffffffffffffffff1663095ea7b33060016040518363ffffffff1660e01b8152600401610269929190611281565b600060405180830381600087803b15801561028357600080fd5b505af1158015610297573d6000803e3d6000fd5b505050506040518060c001604052808281526020018681526020018473ffffffffffffffffffffffffffffffffffffffff1681526020018373ffffffffffffffffffffffffffffffffffffffff1681526020018581526020016001151581525060046000838152602001908152602001600020600082015181600001556020820151816001015560408201518160020160006101000a81548173ffffffffffffffffffffffffffffffffffffffff021916908373ffffffffffffffffffffffffffffffffffffffff16021790555060608201518160030160006101000a81548173ffffffffffffffffffffffffffffffffffffffff021916908373ffffffffffffffffffffffffffffffffffffffff1602179055506080820151816004015560a08201518160050160006101000a81548160ff02191690831515021790555090505084817edc3abf169f20ca3a229c5194d9d58ee0bd6468df18928aad9fd9f84e22fc1685338860405161040d939291906112aa565b60405180910390a350600160008190555050505050565b6000600260009054906101000a900473ffffffffffffffffffffffffffffffffffffffff1673ffffffffffffffffffffffffffffffffffffffff163373ffffffffffffffffffffffffffffffffffffffff16146104b6576040517f08c379a00000000000000000000000000000000000000000000000000000000081526004016104ad9061132d565b60405180910390fd5b600260009054906101000a900473ffffffffffffffffffffffffffffffffffffffff1673ffffffffffffffffffffffffffffffffffffffff1631905090565b6000600354905090565b6000600260009054906101000a900473ffffffffffffffffffffffffffffffffffffffff1673ffffffffffffffffffffffffffffffffffffffff163373ffffffffffffffffffffffffffffffffffffffff1614610591576040517f08c379a00000000000000000000000000000000000000000000000000000000081526004016105889061132d565b60405180910390fd5b600260009054906101000a900473ffffffffffffffffffffffffffffffffffffffff16905090565b606060006105c76001610d68565b90506000808267ffffffffffffffff8111156105e6576105e561134d565b5b60405190808252806020026020018201604052801561061f57816020015b61060c610d76565b8152602001906001900390816106045790505b50905060005b8381101561078857600060018261063c91906113ab565b90506000600460008381526020019081526020016000209050806040518060c001604052908160008201548152602001600182015481526020016002820160009054906101000a900473ffffffffffffffffffffffffffffffffffffffff1673ffffffffffffffffffffffffffffffffffffffff1673ffffffffffffffffffffffffffffffffffffffff1681526020016003820160009054906101000a900473ffffffffffffffffffffffffffffffffffffffff1673ffffffffffffffffffffffffffffffffffffffff1673ffffffffffffffffffffffffffffffffffffffff168152602001600482015481526020016005820160009054906101000a900460ff16151515158152505084868151811061075957610758611401565b5b602002602001018190525060018561077191906113ab565b94505050808061078090611430565b915050610625565b5080935050505090565b606060006107a06001610d68565b905060008060005b83811015610849573373ffffffffffffffffffffffffffffffffffffffff16600460006001846107d891906113ab565b815260200190815260200160002060030160009054906101000a900473ffffffffffffffffffffffffffffffffffffffff1673ffffffffffffffffffffffffffffffffffffffff1614156108365760018361083391906113ab565b92505b808061084190611430565b9150506107a8565b5060008267ffffffffffffffff8111156108665761086561134d565b5b60405190808252806020026020018201604052801561089f57816020015b61088c610d76565b8152602001906001900390816108845790505b50905060005b84811015610a7f573373ffffffffffffffffffffffffffffffffffffffff16600460006001846108d591906113ab565b815260200190815260200160002060030160009054906101000a900473ffffffffffffffffffffffffffffffffffffffff1673ffffffffffffffffffffffffffffffffffffffff161415610a6c57600060018261093291906113ab565b90506000600460008381526020019081526020016000209050806040518060c001604052908160008201548152602001600182015481526020016002820160009054906101000a900473ffffffffffffffffffffffffffffffffffffffff1673ffffffffffffffffffffffffffffffffffffffff1673ffffffffffffffffffffffffffffffffffffffff1681526020016003820160009054906101000a900473ffffffffffffffffffffffffffffffffffffffff1673ffffffffffffffffffffffffffffffffffffffff1673ffffffffffffffffffffffffffffffffffffffff168152602001600482015481526020016005820160009054906101000a900460ff161515151581525050848681518110610a4f57610a4e611401565b5b6020026020010181905250600185610a6791906113ab565b945050505b8080610a7790611430565b9150506108a5565b508094505050505090565b60026000541415610ad0576040517f08c379a0000000000000000000000000000000000000000000000000000000008152600401610ac7906111b0565b60405180910390fd5b600260008190555060006004600085815260200190815260200160002060040154905060006004600086815260200190815260200160002060030160009054906101000a900473ffffffffffffffffffffffffffffffffffffffff1690506000600460008781526020019081526020016000206001015490506000339050833414610b90576040517f08c379a0000000000000000000000000000000000000000000000000000000008152600401610b87906114eb565b60405180910390fd5b8473ffffffffffffffffffffffffffffffffffffffff166342842e0e8483856040518463ffffffff1660e01b8152600401610bcd939291906112aa565b600060405180830381600087803b158015610be757600080fd5b505af1158015610bfb573d6000803e3d6000fd5b505050508573ffffffffffffffffffffffffffffffffffffffff166323b872dd848360016040518463ffffffff1660e01b8152600401610c3d9392919061150b565b600060405180830381600087803b158015610c5757600080fd5b505af1158015610c6b573d6000803e3d6000fd5b505050506004600088815260200190815260200160002060030160009054906101000a900473ffffffffffffffffffffffffffffffffffffffff1673ffffffffffffffffffffffffffffffffffffffff166108fc349081150290604051600060405180830381858888f19350505050158015610ceb573d6000803e3d6000fd5b50806004600089815260200190815260200160002060030160006101000a81548173ffffffffffffffffffffffffffffffffffffffff021916908373ffffffffffffffffffffffffffffffffffffffff160217905550505050506001600081905550505050565b6001816000016000828254019250508190555050565b600081600001549050919050565b6040518060c001604052806000815260200160008152602001600073ffffffffffffffffffffffffffffffffffffffff168152602001600073ffffffffffffffffffffffffffffffffffffffff168152602001600081526020016000151581525090565b600080fd5b6000819050919050565b610df281610ddf565b8114610dfd57600080fd5b50565b600081359050610e0f81610de9565b92915050565b600073ffffffffffffffffffffffffffffffffffffffff82169050919050565b6000610e4082610e15565b9050919050565b610e5081610e35565b8114610e5b57600080fd5b50565b600081359050610e6d81610e47565b92915050565b6000610e7e82610e15565b9050919050565b610e8e81610e73565b8114610e9957600080fd5b50565b600081359050610eab81610e85565b92915050565b60008060008060808587031215610ecb57610eca610dda565b5b6000610ed987828801610e00565b9450506020610eea87828801610e00565b9350506040610efb87828801610e5e565b9250506060610f0c87828801610e9c565b91505092959194509250565b610f2181610ddf565b82525050565b6000602082019050610f3c6000830184610f18565b92915050565b610f4b81610e35565b82525050565b6000602082019050610f666000830184610f42565b92915050565b600081519050919050565b600082825260208201905092915050565b6000819050602082019050919050565b610fa181610ddf565b82525050565b610fb081610e35565b82525050565b610fbf81610e73565b82525050565b60008115159050919050565b610fda81610fc5565b82525050565b60c082016000820151610ff66000850182610f98565b5060208201516110096020850182610f98565b50604082015161101c6040850182610fa7565b50606082015161102f6060850182610fb6565b5060808201516110426080850182610f98565b5060a082015161105560a0850182610fd1565b50505050565b60006110678383610fe0565b60c08301905092915050565b6000602082019050919050565b600061108b82610f6c565b6110958185610f77565b93506110a083610f88565b8060005b838110156110d15781516110b8888261105b565b97506110c383611073565b9250506001810190506110a4565b5085935050505092915050565b600060208201905081810360008301526110f88184611080565b905092915050565b60008060006060848603121561111957611118610dda565b5b600061112786828701610e00565b935050602061113886828701610e5e565b925050604061114986828701610e5e565b9150509250925092565b600082825260208201905092915050565b7f5265656e7472616e637947756172643a207265656e7472616e742063616c6c00600082015250565b600061119a601f83611153565b91506111a582611164565b602082019050919050565b600060208201905081810360008301526111c98161118d565b9050919050565b7f5072696365206d7573742062652067726561746572207468616e203000000000600082015250565b6000611206601c83611153565b9150611211826111d0565b602082019050919050565b60006020820190508181036000830152611235816111f9565b9050919050565b6000819050919050565b6000819050919050565b600061126b6112666112618461123c565b611246565b610ddf565b9050919050565b61127b81611250565b82525050565b60006040820190506112966000830185610f42565b6112a36020830184611272565b9392505050565b60006060820190506112bf6000830186610f42565b6112cc6020830185610f42565b6112d96040830184610f18565b949350505050565b7f5265737472696374656420746f206f776e657200000000000000000000000000600082015250565b6000611317601383611153565b9150611322826112e1565b602082019050919050565b600060208201905081810360008301526113468161130a565b9050919050565b7f4e487b7100000000000000000000000000000000000000000000000000000000600052604160045260246000fd5b7f4e487b7100000000000000000000000000000000000000000000000000000000600052601160045260246000fd5b60006113b682610ddf565b91506113c183610ddf565b9250827fffffffffffffffffffffffffffffffffffffffffffffffffffffffffffffffff038211156113f6576113f561137c565b5b828201905092915050565b7f4e487b7100000000000000000000000000000000000000000000000000000000600052603260045260246000fd5b600061143b82610ddf565b91507fffffffffffffffffffffffffffffffffffffffffffffffffffffffffffffffff82141561146e5761146d61137c565b5b600182019050919050565b7f506c65617365207375626d6974207468652061736b696e67207072696365206960008201527f6e206f7264657220746f20636f6d706c65746520746865207075726368617365602082015250565b60006114d5604083611153565b91506114e082611479565b604082019050919050565b60006020820190508181036000830152611504816114c8565b9050919050565b60006060820190506115206000830186610f42565b61152d6020830185610f42565b61153a6040830184611272565b94935050505056fea26469706673582212201e9da8289c12f59662d2ae679606c54c56a0b461bec4131730eb8b97f0ed939c64736f6c634300080b0033",
  "immutableReferences": {},
  "source": "// SPDX-License-Identifier: MIT OR Apache-2.0\r\npragma solidity ^0.8.4;\r\n\r\nimport '@openzeppelin/contracts/utils/Counters.sol';\r\n\r\nimport '@openzeppelin/contracts/security/ReentrancyGuard.sol';\r\n\r\ninterface ITradeableCashFlow {\r\n    function approve(address to, uint256 tokenId) external;\r\n\r\n    function transferFrom(\r\n        address from,\r\n        address to,\r\n        uint256 tokenId\r\n    ) external;\r\n}\r\n\r\ninterface IERC721 {\r\n    function safeTransferFrom(\r\n        address from,\r\n        address to,\r\n        uint256 tokenId\r\n    ) external;\r\n}\r\n\r\ncontract Marketplace is ReentrancyGuard {\r\n    using Counters for Counters.Counter;\r\n    Counters.Counter private _AssetIds; // The next asset id to be issued\r\n\r\n    address payable owner; // The owner of the NFTMarket contract\r\n    uint256 marketCommission = 0.025 ether; // the fee for selling an license\r\n\r\n    constructor() {\r\n        owner = payable(msg.sender);\r\n    }\r\n\r\n    struct MarketAsset {\r\n        uint256 itemId; // unique id of the item\r\n        // address nftAssetContract; // address of the contract that holds the NFT\r\n        uint256 assetTokenId; // unique nft id of the asset\r\n        address AssetFluidStreamContract; // address to the nft income stream\r\n        address payable owner; // address of the asset owner\r\n        uint256 price; // price of the item\r\n        bool available; // is the item available\r\n    }\r\n\r\n    // Market itemID ->MarketAsset\r\n    mapping(uint256 => MarketAsset) private idToMarketAsset;\r\n\r\n    event MarketAssetStatus(\r\n        uint256 indexed itemId, // unique id of the item\r\n        uint256 indexed tokenId, // unique id of the token\r\n        address AssetFluidStreamContract, // address to the nft income stream\r\n        address owner, // address of the asset owner\r\n        uint256 price // price of the item\r\n    );\r\n\r\n    modifier onlyOwner() {\r\n        require(msg.sender == owner, 'Restricted to owner');\r\n        _;\r\n    }\r\n\r\n    // Returns the listing price of the contract\r\n    function getMarketCommissionPrice() external view returns (uint256) {\r\n        return marketCommission;\r\n    }\r\n\r\n    function getOwner() external view onlyOwner returns (address) {\r\n        return owner;\r\n    }\r\n\r\n    function getOwnerBalance() external view onlyOwner returns (uint256) {\r\n        return owner.balance;\r\n    }\r\n\r\n    /* Places an asset for sale on the marketplace */\r\n    function createMarketAsset(\r\n        // address nftAssetContract,\r\n        uint256 tokenId,\r\n        uint256 price,\r\n        address AssetFluidStreamContract,\r\n        address payable newOwner\r\n    ) external payable nonReentrant {\r\n        require(price > 0, 'Price must be greater than 0');\r\n\r\n        // Add a new asset id to the marketplace inventory\r\n        _AssetIds.increment();\r\n\r\n        // Retrieve the current asset id\r\n        uint256 itemId = _AssetIds.current();\r\n\r\n        //Approve market to handle income stream transfer ownership function\r\n        ITradeableCashFlow(AssetFluidStreamContract).approve(address(this), 1);\r\n\r\n        // Create the market asset\r\n        idToMarketAsset[itemId] = MarketAsset(\r\n            itemId, // unique id of the item\r\n            // nftAssetContract, // address of the contract that holds the NFT\r\n            tokenId, // unique id of the nft asset\r\n            AssetFluidStreamContract, // address to the nft income stream\r\n            payable(newOwner), // address of the asset owner\r\n            price, // price of the asset\r\n            true // item is available for sale\r\n        );\r\n\r\n        emit MarketAssetStatus(\r\n            itemId, // unique id of the item\r\n            // nftAssetContract, // address of the contract that holds the NFT\r\n            tokenId, // unique id of the nft asset\r\n            AssetFluidStreamContract, // address to the nft income stream\r\n            msg.sender, // address of the asset owner\r\n            price // price of the asset\r\n        );\r\n    }\r\n\r\n    // Returns all unsold market items\r\n    function fetchMarketAssets() external view returns (MarketAsset[] memory) {\r\n        uint256 itemCount = _AssetIds.current();\r\n        // uint256 unsoldItemCount = _AssetIds.current() - _LicensesSold.current();\r\n        uint256 currentIndex = 0;\r\n\r\n        MarketAsset[] memory items = new MarketAsset[](itemCount);\r\n        for (uint256 i = 0; i < itemCount; i++) {\r\n            // if (idToMarketAsset[i + 1].owner == address(0)) {\r\n            uint256 currentId = i + 1;\r\n            MarketAsset storage currentItem = idToMarketAsset[currentId];\r\n            items[currentIndex] = currentItem;\r\n            currentIndex += 1;\r\n            // }\r\n        }\r\n        return items;\r\n    }\r\n\r\n    function purchaseAsset(\r\n        uint256 itemId,\r\n        address _assetStreamContract,\r\n        address _assetNftContract\r\n    ) external payable nonReentrant {\r\n        uint256 price = idToMarketAsset[itemId].price;\r\n        address currentOwner = idToMarketAsset[itemId].owner;\r\n        uint256 tokenId = idToMarketAsset[itemId].assetTokenId;\r\n        address purchaser = msg.sender;\r\n        require(\r\n            msg.value == price,\r\n            'Please submit the asking price in order to complete the purchase'\r\n        );\r\n        //Transfer Asset NFT ownership\r\n        IERC721(_assetNftContract).safeTransferFrom(\r\n            currentOwner,\r\n            purchaser,\r\n            tokenId\r\n        );\r\n\r\n        //Transfer Asset NFT Income Streams\r\n        ITradeableCashFlow(_assetStreamContract).transferFrom(\r\n            currentOwner,\r\n            purchaser,\r\n            1\r\n        );\r\n\r\n        //Transfer value\r\n        idToMarketAsset[itemId].owner.transfer(msg.value);\r\n        idToMarketAsset[itemId].owner = payable(purchaser);\r\n    }\r\n\r\n    //Returns only items a user has created\r\n    function fetchMyAssets() external view returns (MarketAsset[] memory) {\r\n        uint256 totalItemCount = _AssetIds.current();\r\n        uint256 itemCount = 0;\r\n        uint256 currentIndex = 0;\r\n\r\n        for (uint256 i = 0; i < totalItemCount; i++) {\r\n            if (idToMarketAsset[i + 1].owner == msg.sender) {\r\n                itemCount += 1;\r\n            }\r\n        }\r\n\r\n        MarketAsset[] memory items = new MarketAsset[](itemCount);\r\n        for (uint256 i = 0; i < totalItemCount; i++) {\r\n            if (idToMarketAsset[i + 1].owner == msg.sender) {\r\n                uint256 currentId = i + 1;\r\n                MarketAsset storage currentItem = idToMarketAsset[currentId];\r\n                items[currentIndex] = currentItem;\r\n                currentIndex += 1;\r\n            }\r\n        }\r\n        return items;\r\n    }\r\n}\r\n",
  "sourcePath": "C:\\Users\\Jason\\0xPhotos\\apps\\blockchain\\contracts\\Market.sol",
  "compiler": {
    "name": "solc",
    "version": "0.8.11+commit.d7f03943.Emscripten.clang"
  },
  "schemaVersion": "3.4.4",
  "updatedAt": "2022-01-15T13:41:19.020Z",
  "devdoc": {
    "kind": "dev",
    "methods": {},
    "version": 1
  },
  "userdoc": {
    "kind": "user",
    "methods": {},
    "version": 1
  }
}