{
  "contractName": "TradeableCashflow",
  "abi": [
    {
      "inputs": [
        {
          "internalType": "address",
          "name": "owner",
          "type": "address"
        },
        {
          "internalType": "string",
          "name": "_name",
          "type": "string"
        },
        {
          "internalType": "string",
          "name": "_symbol",
          "type": "string"
        },
        {
          "internalType": "contract ISuperfluid",
          "name": "host",
          "type": "address"
        },
        {
          "internalType": "contract IConstantFlowAgreementV1",
          "name": "cfa",
          "type": "address"
        },
        {
          "internalType": "contract ISuperToken",
          "name": "acceptedToken",
          "type": "address"
        }
      ],
      "stateMutability": "nonpayable",
      "type": "constructor"
    },
    {
      "anonymous": false,
      "inputs": [
        {
          "indexed": true,
          "internalType": "address",
          "name": "owner",
          "type": "address"
        },
        {
          "indexed": true,
          "internalType": "address",
          "name": "approved",
          "type": "address"
        },
        {
          "indexed": true,
          "internalType": "uint256",
          "name": "tokenId",
          "type": "uint256"
        }
      ],
      "name": "Approval",
      "type": "event"
    },
    {
      "anonymous": false,
      "inputs": [
        {
          "indexed": true,
          "internalType": "address",
          "name": "owner",
          "type": "address"
        },
        {
          "indexed": true,
          "internalType": "address",
          "name": "operator",
          "type": "address"
        },
        {
          "indexed": false,
          "internalType": "bool",
          "name": "approved",
          "type": "bool"
        }
      ],
      "name": "ApprovalForAll",
      "type": "event"
    },
    {
      "anonymous": false,
      "inputs": [
        {
          "indexed": false,
          "internalType": "address",
          "name": "receiver",
          "type": "address"
        }
      ],
      "name": "ReceiverChanged",
      "type": "event"
    },
    {
      "anonymous": false,
      "inputs": [
        {
          "indexed": true,
          "internalType": "address",
          "name": "from",
          "type": "address"
        },
        {
          "indexed": true,
          "internalType": "address",
          "name": "to",
          "type": "address"
        },
        {
          "indexed": true,
          "internalType": "uint256",
          "name": "tokenId",
          "type": "uint256"
        }
      ],
      "name": "Transfer",
      "type": "event"
    },
    {
      "inputs": [
        {
          "internalType": "contract ISuperToken",
          "name": "_superToken",
          "type": "address"
        },
        {
          "internalType": "address",
          "name": "_agreementClass",
          "type": "address"
        },
        {
          "internalType": "bytes32",
          "name": "",
          "type": "bytes32"
        },
        {
          "internalType": "bytes",
          "name": "",
          "type": "bytes"
        },
        {
          "internalType": "bytes",
          "name": "",
          "type": "bytes"
        },
        {
          "internalType": "bytes",
          "name": "_ctx",
          "type": "bytes"
        }
      ],
      "name": "afterAgreementCreated",
      "outputs": [
        {
          "internalType": "bytes",
          "name": "newCtx",
          "type": "bytes"
        }
      ],
      "stateMutability": "nonpayable",
      "type": "function"
    },
    {
      "inputs": [
        {
          "internalType": "contract ISuperToken",
          "name": "_superToken",
          "type": "address"
        },
        {
          "internalType": "address",
          "name": "_agreementClass",
          "type": "address"
        },
        {
          "internalType": "bytes32",
          "name": "",
          "type": "bytes32"
        },
        {
          "internalType": "bytes",
          "name": "",
          "type": "bytes"
        },
        {
          "internalType": "bytes",
          "name": "",
          "type": "bytes"
        },
        {
          "internalType": "bytes",
          "name": "_ctx",
          "type": "bytes"
        }
      ],
      "name": "afterAgreementTerminated",
      "outputs": [
        {
          "internalType": "bytes",
          "name": "newCtx",
          "type": "bytes"
        }
      ],
      "stateMutability": "nonpayable",
      "type": "function"
    },
    {
      "inputs": [
        {
          "internalType": "contract ISuperToken",
          "name": "_superToken",
          "type": "address"
        },
        {
          "internalType": "address",
          "name": "_agreementClass",
          "type": "address"
        },
        {
          "internalType": "bytes32",
          "name": "",
          "type": "bytes32"
        },
        {
          "internalType": "bytes",
          "name": "",
          "type": "bytes"
        },
        {
          "internalType": "bytes",
          "name": "",
          "type": "bytes"
        },
        {
          "internalType": "bytes",
          "name": "_ctx",
          "type": "bytes"
        }
      ],
      "name": "afterAgreementUpdated",
      "outputs": [
        {
          "internalType": "bytes",
          "name": "newCtx",
          "type": "bytes"
        }
      ],
      "stateMutability": "nonpayable",
      "type": "function"
    },
    {
      "inputs": [
        {
          "internalType": "address",
          "name": "to",
          "type": "address"
        },
        {
          "internalType": "uint256",
          "name": "tokenId",
          "type": "uint256"
        }
      ],
      "name": "approve",
      "outputs": [],
      "stateMutability": "nonpayable",
      "type": "function"
    },
    {
      "inputs": [
        {
          "internalType": "address",
          "name": "owner",
          "type": "address"
        }
      ],
      "name": "balanceOf",
      "outputs": [
        {
          "internalType": "uint256",
          "name": "",
          "type": "uint256"
        }
      ],
      "stateMutability": "view",
      "type": "function"
    },
    {
      "inputs": [
        {
          "internalType": "contract ISuperToken",
          "name": "",
          "type": "address"
        },
        {
          "internalType": "address",
          "name": "",
          "type": "address"
        },
        {
          "internalType": "bytes32",
          "name": "",
          "type": "bytes32"
        },
        {
          "internalType": "bytes",
          "name": "",
          "type": "bytes"
        },
        {
          "internalType": "bytes",
          "name": "",
          "type": "bytes"
        }
      ],
      "name": "beforeAgreementCreated",
      "outputs": [
        {
          "internalType": "bytes",
          "name": "",
          "type": "bytes"
        }
      ],
      "stateMutability": "view",
      "type": "function"
    },
    {
      "inputs": [
        {
          "internalType": "contract ISuperToken",
          "name": "",
          "type": "address"
        },
        {
          "internalType": "address",
          "name": "",
          "type": "address"
        },
        {
          "internalType": "bytes32",
          "name": "",
          "type": "bytes32"
        },
        {
          "internalType": "bytes",
          "name": "",
          "type": "bytes"
        },
        {
          "internalType": "bytes",
          "name": "",
          "type": "bytes"
        }
      ],
      "name": "beforeAgreementTerminated",
      "outputs": [
        {
          "internalType": "bytes",
          "name": "",
          "type": "bytes"
        }
      ],
      "stateMutability": "view",
      "type": "function"
    },
    {
      "inputs": [
        {
          "internalType": "contract ISuperToken",
          "name": "",
          "type": "address"
        },
        {
          "internalType": "address",
          "name": "",
          "type": "address"
        },
        {
          "internalType": "bytes32",
          "name": "",
          "type": "bytes32"
        },
        {
          "internalType": "bytes",
          "name": "",
          "type": "bytes"
        },
        {
          "internalType": "bytes",
          "name": "",
          "type": "bytes"
        }
      ],
      "name": "beforeAgreementUpdated",
      "outputs": [
        {
          "internalType": "bytes",
          "name": "",
          "type": "bytes"
        }
      ],
      "stateMutability": "view",
      "type": "function"
    },
    {
      "inputs": [],
      "name": "currentReceiver",
      "outputs": [
        {
          "internalType": "uint256",
          "name": "startTime",
          "type": "uint256"
        },
        {
          "internalType": "address",
          "name": "receiver",
          "type": "address"
        },
        {
          "internalType": "int96",
          "name": "flowRate",
          "type": "int96"
        }
      ],
      "stateMutability": "view",
      "type": "function"
    },
    {
      "inputs": [
        {
          "internalType": "uint256",
          "name": "tokenId",
          "type": "uint256"
        }
      ],
      "name": "getApproved",
      "outputs": [
        {
          "internalType": "address",
          "name": "",
          "type": "address"
        }
      ],
      "stateMutability": "view",
      "type": "function"
    },
    {
      "inputs": [
        {
          "internalType": "address",
          "name": "owner",
          "type": "address"
        },
        {
          "internalType": "address",
          "name": "operator",
          "type": "address"
        }
      ],
      "name": "isApprovedForAll",
      "outputs": [
        {
          "internalType": "bool",
          "name": "",
          "type": "bool"
        }
      ],
      "stateMutability": "view",
      "type": "function"
    },
    {
      "inputs": [],
      "name": "name",
      "outputs": [
        {
          "internalType": "string",
          "name": "",
          "type": "string"
        }
      ],
      "stateMutability": "view",
      "type": "function"
    },
    {
      "inputs": [
        {
          "internalType": "uint256",
          "name": "tokenId",
          "type": "uint256"
        }
      ],
      "name": "ownerOf",
      "outputs": [
        {
          "internalType": "address",
          "name": "",
          "type": "address"
        }
      ],
      "stateMutability": "view",
      "type": "function"
    },
    {
      "inputs": [
        {
          "internalType": "address",
          "name": "from",
          "type": "address"
        },
        {
          "internalType": "address",
          "name": "to",
          "type": "address"
        },
        {
          "internalType": "uint256",
          "name": "tokenId",
          "type": "uint256"
        }
      ],
      "name": "safeTransferFrom",
      "outputs": [],
      "stateMutability": "nonpayable",
      "type": "function"
    },
    {
      "inputs": [
        {
          "internalType": "address",
          "name": "from",
          "type": "address"
        },
        {
          "internalType": "address",
          "name": "to",
          "type": "address"
        },
        {
          "internalType": "uint256",
          "name": "tokenId",
          "type": "uint256"
        },
        {
          "internalType": "bytes",
          "name": "_data",
          "type": "bytes"
        }
      ],
      "name": "safeTransferFrom",
      "outputs": [],
      "stateMutability": "nonpayable",
      "type": "function"
    },
    {
      "inputs": [
        {
          "internalType": "address",
          "name": "operator",
          "type": "address"
        },
        {
          "internalType": "bool",
          "name": "approved",
          "type": "bool"
        }
      ],
      "name": "setApprovalForAll",
      "outputs": [],
      "stateMutability": "nonpayable",
      "type": "function"
    },
    {
      "inputs": [
        {
          "internalType": "bytes4",
          "name": "interfaceId",
          "type": "bytes4"
        }
      ],
      "name": "supportsInterface",
      "outputs": [
        {
          "internalType": "bool",
          "name": "",
          "type": "bool"
        }
      ],
      "stateMutability": "view",
      "type": "function"
    },
    {
      "inputs": [],
      "name": "symbol",
      "outputs": [
        {
          "internalType": "string",
          "name": "",
          "type": "string"
        }
      ],
      "stateMutability": "view",
      "type": "function"
    },
    {
      "inputs": [
        {
          "internalType": "uint256",
          "name": "tokenId",
          "type": "uint256"
        }
      ],
      "name": "tokenURI",
      "outputs": [
        {
          "internalType": "string",
          "name": "",
          "type": "string"
        }
      ],
      "stateMutability": "view",
      "type": "function"
    },
    {
      "inputs": [
        {
          "internalType": "address",
          "name": "from",
          "type": "address"
        },
        {
          "internalType": "address",
          "name": "to",
          "type": "address"
        },
        {
          "internalType": "uint256",
          "name": "tokenId",
          "type": "uint256"
        }
      ],
      "name": "transferFrom",
      "outputs": [],
      "stateMutability": "nonpayable",
      "type": "function"
    }
  ],
  "bytecode": "0x60806040523480156200001157600080fd5b506040516200669d3803806200669d83398181016040528101906200003791906200126f565b82828288888881600090805190602001906200005592919062000eee565b5080600190805190602001906200006e92919062000eee565b505050600073ffffffffffffffffffffffffffffffffffffffff168473ffffffffffffffffffffffffffffffffffffffff161415620000e4576040517f08c379a0000000000000000000000000000000000000000000000000000000008152600401620000db90620013aa565b60405180910390fd5b600073ffffffffffffffffffffffffffffffffffffffff168373ffffffffffffffffffffffffffffffffffffffff16141562000157576040517f08c379a00000000000000000000000000000000000000000000000000000000081526004016200014e906200141c565b60405180910390fd5b600073ffffffffffffffffffffffffffffffffffffffff168273ffffffffffffffffffffffffffffffffffffffff161415620001ca576040517f08c379a0000000000000000000000000000000000000000000000000000000008152600401620001c1906200148e565b60405180910390fd5b600073ffffffffffffffffffffffffffffffffffffffff168173ffffffffffffffffffffffffffffffffffffffff1614156200023d576040517f08c379a0000000000000000000000000000000000000000000000000000000008152600401620002349062001500565b60405180910390fd5b8373ffffffffffffffffffffffffffffffffffffffff16633ca3ad4e826040518263ffffffff1660e01b81526004016200027891906200158d565b602060405180830381865afa15801562000296573d6000803e3d6000fd5b505050506040513d601f19601f82011682018060405250810190620002bc9190620015e7565b15620002ff576040517f08c379a0000000000000000000000000000000000000000000000000000000008152600401620002f69062001669565b60405180910390fd5b83600660006101000a81548173ffffffffffffffffffffffffffffffffffffffff021916908373ffffffffffffffffffffffffffffffffffffffff16021790555082600760006101000a81548173ffffffffffffffffffffffffffffffffffffffff021916908373ffffffffffffffffffffffffffffffffffffffff16021790555081600860006101000a81548173ffffffffffffffffffffffffffffffffffffffff021916908373ffffffffffffffffffffffffffffffffffffffff16021790555080600960006101000a81548173ffffffffffffffffffffffffffffffffffffffff021916908373ffffffffffffffffffffffffffffffffffffffff160217905550600064100000000064040000000064010000000060011717179050600660009054906101000a900473ffffffffffffffffffffffffffffffffffffffff1673ffffffffffffffffffffffffffffffffffffffff1663ad3915c8826040518263ffffffff1660e01b81526004016200047b9190620016a6565b600060405180830381600087803b1580156200049657600080fd5b505af1158015620004ab573d6000803e3d6000fd5b505050505050505050620004c7866001620004d360201b60201c565b50505050505062001e4b565b600073ffffffffffffffffffffffffffffffffffffffff168273ffffffffffffffffffffffffffffffffffffffff16141562000546576040517f08c379a00000000000000000000000000000000000000000000000000000000081526004016200053d9062001713565b60405180910390fd5b6200055781620006b960201b60201c565b156200059a576040517f08c379a0000000000000000000000000000000000000000000000000000000008152600401620005919062001785565b60405180910390fd5b620005ae600083836200072560201b60201c565b6001600360008473ffffffffffffffffffffffffffffffffffffffff1673ffffffffffffffffffffffffffffffffffffffff1681526020019081526020016000206000828254620006009190620017d6565b92505081905550816002600083815260200190815260200160002060006101000a81548173ffffffffffffffffffffffffffffffffffffffff021916908373ffffffffffffffffffffffffffffffffffffffff160217905550808273ffffffffffffffffffffffffffffffffffffffff16600073ffffffffffffffffffffffffffffffffffffffff167fddf252ad1be2c89b69c2b068fc378daa952ba7f163c4a11628f55a4df523b3ef60405160405180910390a45050565b60008073ffffffffffffffffffffffffffffffffffffffff166002600084815260200190815260200160002060009054906101000a900473ffffffffffffffffffffffffffffffffffffffff1673ffffffffffffffffffffffffffffffffffffffff1614159050919050565b62000736826200073b60201b60201c565b505050565b600073ffffffffffffffffffffffffffffffffffffffff168173ffffffffffffffffffffffffffffffffffffffff161415620007ae576040517f08c379a0000000000000000000000000000000000000000000000000000000008152600401620007a59062001883565b60405180910390fd5b600660009054906101000a900473ffffffffffffffffffffffffffffffffffffffff1673ffffffffffffffffffffffffffffffffffffffff16633ca3ad4e826040518263ffffffff1660e01b81526004016200080b91906200158d565b602060405180830381865afa15801562000829573d6000803e3d6000fd5b505050506040513d601f19601f820116820180604052508101906200084f9190620015e7565b1562000892576040517f08c379a000000000000000000000000000000000000000000000000000000000815260040162000889906200191b565b60405180910390fd5b600960009054906101000a900473ffffffffffffffffffffffffffffffffffffffff1673ffffffffffffffffffffffffffffffffffffffff168173ffffffffffffffffffffffffffffffffffffffff161415620008ef5762000eeb565b6000600760009054906101000a900473ffffffffffffffffffffffffffffffffffffffff1673ffffffffffffffffffffffffffffffffffffffff1663e6a1e888600860009054906101000a900473ffffffffffffffffffffffffffffffffffffffff1630600960009054906101000a900473ffffffffffffffffffffffffffffffffffffffff166040518463ffffffff1660e01b8152600401620009969392919062001973565b608060405180830381865afa158015620009b4573d6000803e3d6000fd5b505050506040513d601f19601f82011682018060405250810190620009da919062001a1f565b5050915050600081600b0b131562000e4d57600660009054906101000a900473ffffffffffffffffffffffffffffffffffffffff1673ffffffffffffffffffffffffffffffffffffffff166339255d5b600760009054906101000a900473ffffffffffffffffffffffffffffffffffffffff1663b4b333c660e01b600860009054906101000a900473ffffffffffffffffffffffffffffffffffffffff1630600960009054906101000a900473ffffffffffffffffffffffffffffffffffffffff16600067ffffffffffffffff81111562000aba5762000ab962001032565b5b6040519080825280601f01601f19166020018201604052801562000aed5781602001600182028036833780820191505090505b5060405160240162000b03949392919062001aee565b604051602081830303815290604052907bffffffffffffffffffffffffffffffffffffffffffffffffffffffff19166020820180517bffffffffffffffffffffffffffffffffffffffffffffffffffffffff83818316178352505050506040518363ffffffff1660e01b815260040162000b7f92919062001bb7565b6000604051808303816000875af115801562000b9f573d6000803e3d6000fd5b505050506040513d6000823e3d601f19601f8201168201806040525081019062000bca919062001cb4565b50600660009054906101000a900473ffffffffffffffffffffffffffffffffffffffff1673ffffffffffffffffffffffffffffffffffffffff166339255d5b600760009054906101000a900473ffffffffffffffffffffffffffffffffffffffff166362fc305e60e01b600860009054906101000a900473ffffffffffffffffffffffffffffffffffffffff1686600760009054906101000a900473ffffffffffffffffffffffffffffffffffffffff1673ffffffffffffffffffffffffffffffffffffffff1663e8e7e2d1600860009054906101000a900473ffffffffffffffffffffffffffffffffffffffff16306040518363ffffffff1660e01b815260040162000cd992919062001d05565b602060405180830381865afa15801562000cf7573d6000803e3d6000fd5b505050506040513d601f19601f8201168201806040525081019062000d1d919062001d32565b600067ffffffffffffffff81111562000d3b5762000d3a62001032565b5b6040519080825280601f01601f19166020018201604052801562000d6e5781602001600182028036833780820191505090505b5060405160240162000d84949392919062001d75565b604051602081830303815290604052907bffffffffffffffffffffffffffffffffffffffffffffffffffffffff19166020820180517bffffffffffffffffffffffffffffffffffffffffffffffffffffffff83818316178352505050506040518363ffffffff1660e01b815260040162000e0092919062001bb7565b6000604051808303816000875af115801562000e20573d6000803e3d6000fd5b505050506040513d6000823e3d601f19601f8201168201806040525081019062000e4b919062001cb4565b505b81600960006101000a81548173ffffffffffffffffffffffffffffffffffffffff021916908373ffffffffffffffffffffffffffffffffffffffff1602179055507f7dfb1d59db37a3fd2e15e796c189dcab714cdbb18650d68a1de58f8fa60718c9600960009054906101000a900473ffffffffffffffffffffffffffffffffffffffff1660405162000ee1919062001dc9565b60405180910390a1505b50565b82805462000efc9062001e15565b90600052602060002090601f01602090048101928262000f20576000855562000f6c565b82601f1062000f3b57805160ff191683800117855562000f6c565b8280016001018555821562000f6c579182015b8281111562000f6b57825182559160200191906001019062000f4e565b5b50905062000f7b919062000f7f565b5090565b5b8082111562000f9a57600081600090555060010162000f80565b5090565b6000604051905090565b600080fd5b600080fd5b600073ffffffffffffffffffffffffffffffffffffffff82169050919050565b600062000fdf8262000fb2565b9050919050565b62000ff18162000fd2565b811462000ffd57600080fd5b50565b600081519050620010118162000fe6565b92915050565b600080fd5b600080fd5b6000601f19601f8301169050919050565b7f4e487b7100000000000000000000000000000000000000000000000000000000600052604160045260246000fd5b6200106c8262001021565b810181811067ffffffffffffffff821117156200108e576200108d62001032565b5b80604052505050565b6000620010a362000f9e565b9050620010b1828262001061565b919050565b600067ffffffffffffffff821115620010d457620010d362001032565b5b620010df8262001021565b9050602081019050919050565b60005b838110156200110c578082015181840152602081019050620010ef565b838111156200111c576000848401525b50505050565b6000620011396200113384620010b6565b62001097565b9050828152602081018484840111156200115857620011576200101c565b5b62001165848285620010ec565b509392505050565b600082601f83011262001185576200118462001017565b5b81516200119784826020860162001122565b91505092915050565b6000620011ad8262000fd2565b9050919050565b620011bf81620011a0565b8114620011cb57600080fd5b50565b600081519050620011df81620011b4565b92915050565b6000620011f28262000fd2565b9050919050565b6200120481620011e5565b81146200121057600080fd5b50565b6000815190506200122481620011f9565b92915050565b6000620012378262000fd2565b9050919050565b62001249816200122a565b81146200125557600080fd5b50565b60008151905062001269816200123e565b92915050565b60008060008060008060c087890312156200128f576200128e62000fa8565b5b60006200129f89828a0162001000565b965050602087015167ffffffffffffffff811115620012c357620012c262000fad565b5b620012d189828a016200116d565b955050604087015167ffffffffffffffff811115620012f557620012f462000fad565b5b6200130389828a016200116d565b94505060606200131689828a01620011ce565b93505060806200132989828a0162001213565b92505060a06200133c89828a0162001258565b9150509295509295509295565b600082825260208201905092915050565b7f686f7374206973207a65726f2061646472657373000000000000000000000000600082015250565b60006200139260148362001349565b91506200139f826200135a565b602082019050919050565b60006020820190508181036000830152620013c58162001383565b9050919050565b7f636661206973207a65726f206164647265737300000000000000000000000000600082015250565b60006200140460138362001349565b91506200141182620013cc565b602082019050919050565b600060208201905081810360008301526200143781620013f5565b9050919050565b7f6163636570746564546f6b656e206973207a65726f2061646472657373000000600082015250565b600062001476601d8362001349565b915062001483826200143e565b602082019050919050565b60006020820190508181036000830152620014a98162001467565b9050919050565b7f7265636569766572206973207a65726f20616464726573730000000000000000600082015250565b6000620014e860188362001349565b9150620014f582620014b0565b602082019050919050565b600060208201905081810360008301526200151b81620014d9565b9050919050565b6000819050919050565b60006200154d62001547620015418462000fb2565b62001522565b62000fb2565b9050919050565b600062001561826200152c565b9050919050565b6000620015758262001554565b9050919050565b620015878162001568565b82525050565b6000602082019050620015a460008301846200157c565b92915050565b60008115159050919050565b620015c181620015aa565b8114620015cd57600080fd5b50565b600081519050620015e181620015b6565b92915050565b6000602082840312156200160057620015ff62000fa8565b5b60006200161084828501620015d0565b91505092915050565b7f726563656976657220697320616e206170700000000000000000000000000000600082015250565b60006200165160128362001349565b91506200165e8262001619565b602082019050919050565b60006020820190508181036000830152620016848162001642565b9050919050565b6000819050919050565b620016a0816200168b565b82525050565b6000602082019050620016bd600083018462001695565b92915050565b7f4552433732313a206d696e7420746f20746865207a65726f2061646472657373600082015250565b6000620016fb60208362001349565b91506200170882620016c3565b602082019050919050565b600060208201905081810360008301526200172e81620016ec565b9050919050565b7f4552433732313a20746f6b656e20616c7265616479206d696e74656400000000600082015250565b60006200176d601c8362001349565b91506200177a8262001735565b602082019050919050565b60006020820190508181036000830152620017a0816200175e565b9050919050565b7f4e487b7100000000000000000000000000000000000000000000000000000000600052601160045260246000fd5b6000620017e3826200168b565b9150620017f0836200168b565b9250827fffffffffffffffffffffffffffffffffffffffffffffffffffffffffffffffff03821115620018285762001827620017a7565b5b828201905092915050565b7f4e6577207265636569766572206973207a65726f206164647265737300000000600082015250565b60006200186b601c8362001349565b9150620018788262001833565b602082019050919050565b600060208201905081810360008301526200189e816200185c565b9050919050565b7f4e65772072656365697665722063616e206e6f7420626520612073757065724160008201527f7070000000000000000000000000000000000000000000000000000000000000602082015250565b60006200190360228362001349565b91506200191082620018a5565b604082019050919050565b600060208201905081810360008301526200193681620018f4565b9050919050565b60006200194a8262001554565b9050919050565b6200195c816200193d565b82525050565b6200196d8162000fd2565b82525050565b60006060820190506200198a600083018662001951565b62001999602083018562001962565b620019a8604083018462001962565b949350505050565b620019bb816200168b565b8114620019c757600080fd5b50565b600081519050620019db81620019b0565b92915050565b600081600b0b9050919050565b620019f981620019e1565b811462001a0557600080fd5b50565b60008151905062001a1981620019ee565b92915050565b6000806000806080858703121562001a3c5762001a3b62000fa8565b5b600062001a4c87828801620019ca565b945050602062001a5f8782880162001a08565b935050604062001a7287828801620019ca565b925050606062001a8587828801620019ca565b91505092959194509250565b600081519050919050565b600082825260208201905092915050565b600062001aba8262001a91565b62001ac6818562001a9c565b935062001ad8818560208601620010ec565b62001ae38162001021565b840191505092915050565b600060808201905062001b05600083018762001951565b62001b14602083018662001962565b62001b23604083018562001962565b818103606083015262001b37818462001aad565b905095945050505050565b600062001b4f8262001554565b9050919050565b62001b618162001b42565b82525050565b7f3078000000000000000000000000000000000000000000000000000000000000600082015250565b600062001b9f60028362001a9c565b915062001bac8262001b67565b602082019050919050565b600060608201905062001bce600083018562001b56565b818103602083015262001be2818462001aad565b9050818103604083015262001bf78162001b90565b90509392505050565b600067ffffffffffffffff82111562001c1e5762001c1d62001032565b5b62001c298262001021565b9050602081019050919050565b600062001c4d62001c478462001c00565b62001097565b90508281526020810184848401111562001c6c5762001c6b6200101c565b5b62001c79848285620010ec565b509392505050565b600082601f83011262001c995762001c9862001017565b5b815162001cab84826020860162001c36565b91505092915050565b60006020828403121562001ccd5762001ccc62000fa8565b5b600082015167ffffffffffffffff81111562001cee5762001ced62000fad565b5b62001cfc8482850162001c81565b91505092915050565b600060408201905062001d1c600083018562001951565b62001d2b602083018462001962565b9392505050565b60006020828403121562001d4b5762001d4a62000fa8565b5b600062001d5b8482850162001a08565b91505092915050565b62001d6f81620019e1565b82525050565b600060808201905062001d8c600083018762001951565b62001d9b602083018662001962565b62001daa604083018562001d64565b818103606083015262001dbe818462001aad565b905095945050505050565b600060208201905062001de0600083018462001962565b92915050565b7f4e487b7100000000000000000000000000000000000000000000000000000000600052602260045260246000fd5b6000600282049050600182168062001e2e57607f821691505b6020821081141562001e455762001e4462001de6565b5b50919050565b6148428062001e5b6000396000f3fe608060405234801561001057600080fd5b506004361061012c5760003560e01c80635f9e7d77116100ad578063a22cb46511610071578063a22cb46514610391578063b88d4fde146103ad578063c87b56dd146103c9578063d86ed3e5146103f9578063e985e9c5146104295761012c565b80635f9e7d77146102b35780636352211e146102e357806370a0823114610313578063884d1f401461034357806395d89b41146103735761012c565b806323b872dd116100f457806323b872dd146101fb57806328d2bf941461021757806330d9c9151461023757806342842e0e1461026757806353c11f99146102835761012c565b806301ffc9a71461013157806306fdde0314610161578063081812fc1461017f578063095ea7b3146101af578063230dbd29146101cb575b600080fd5b61014b60048036038101906101469190612bc0565b610459565b6040516101589190612c08565b60405180910390f35b61016961053b565b6040516101769190612cbc565b60405180910390f35b61019960048036038101906101949190612d14565b6105cd565b6040516101a69190612d82565b60405180910390f35b6101c960048036038101906101c49190612dc9565b610652565b005b6101e560048036038101906101e09190612ee2565b61076a565b6040516101f29190613026565b60405180910390f35b61021560048036038101906102109190613048565b6108a9565b005b61021f610909565b60405161022e939291906130c6565b60405180910390f35b610251600480360381019061024c91906130fd565b610a7d565b60405161025e9190613026565b60405180910390f35b610281600480360381019061027c9190613048565b610aba565b005b61029d60048036038101906102989190612ee2565b610ada565b6040516102aa9190613026565b60405180910390f35b6102cd60048036038101906102c891906130fd565b610bf2565b6040516102da9190613026565b60405180910390f35b6102fd60048036038101906102f89190612d14565b610c2f565b60405161030a9190612d82565b60405180910390f35b61032d600480360381019061032891906131b9565b610ce1565b60405161033a91906131e6565b60405180910390f35b61035d600480360381019061035891906130fd565b610d99565b60405161036a9190613026565b60405180910390f35b61037b610dd6565b6040516103889190612cbc565b60405180910390f35b6103ab60048036038101906103a6919061322d565b610e68565b005b6103c760048036038101906103c2919061339d565b610e7e565b005b6103e360048036038101906103de9190612d14565b610ee0565b6040516103f09190612cbc565b60405180910390f35b610413600480360381019061040e9190612ee2565b610f87565b6040516104209190613026565b60405180910390f35b610443600480360381019061043e9190613420565b6110c6565b6040516104509190612c08565b60405180910390f35b60007f80ac58cd000000000000000000000000000000000000000000000000000000007bffffffffffffffffffffffffffffffffffffffffffffffffffffffff1916827bffffffffffffffffffffffffffffffffffffffffffffffffffffffff1916148061052457507f5b5e139f000000000000000000000000000000000000000000000000000000007bffffffffffffffffffffffffffffffffffffffffffffffffffffffff1916827bffffffffffffffffffffffffffffffffffffffffffffffffffffffff1916145b8061053457506105338261115a565b5b9050919050565b60606000805461054a9061348f565b80601f01602080910402602001604051908101604052809291908181526020018280546105769061348f565b80156105c35780601f10610598576101008083540402835291602001916105c3565b820191906000526020600020905b8154815290600101906020018083116105a657829003601f168201915b5050505050905090565b60006105d8826111c4565b610617576040517f08c379a000000000000000000000000000000000000000000000000000000000815260040161060e90613533565b60405180910390fd5b6004600083815260200190815260200160002060009054906101000a900473ffffffffffffffffffffffffffffffffffffffff169050919050565b600061065d82610c2f565b90508073ffffffffffffffffffffffffffffffffffffffff168373ffffffffffffffffffffffffffffffffffffffff1614156106ce576040517f08c379a00000000000000000000000000000000000000000000000000000000081526004016106c5906135c5565b60405180910390fd5b8073ffffffffffffffffffffffffffffffffffffffff166106ed611230565b73ffffffffffffffffffffffffffffffffffffffff16148061071c575061071b81610716611230565b6110c6565b5b61075b576040517f08c379a000000000000000000000000000000000000000000000000000000000815260040161075290613657565b60405180910390fd5b6107658383611238565b505050565b60608989610777826112f1565b6107b6576040517f08c379a00000000000000000000000000000000000000000000000000000000081526004016107ad906136c3565b60405180910390fd5b6107bf8161134b565b6107fe576040517f08c379a00000000000000000000000000000000000000000000000000000000081526004016107f590613755565b60405180910390fd5b600660009054906101000a900473ffffffffffffffffffffffffffffffffffffffff1673ffffffffffffffffffffffffffffffffffffffff163373ffffffffffffffffffffffffffffffffffffffff161461088e576040517f08c379a0000000000000000000000000000000000000000000000000000000008152600401610885906137e7565b60405180910390fd5b61089885856113e5565b925050509998505050505050505050565b6108ba6108b4611230565b82611bad565b6108f9576040517f08c379a00000000000000000000000000000000000000000000000000000000081526004016108f090613879565b60405180910390fd5b610904838383611c8b565b505050565b60008060008073ffffffffffffffffffffffffffffffffffffffff16600960009054906101000a900473ffffffffffffffffffffffffffffffffffffffff1673ffffffffffffffffffffffffffffffffffffffff1614610a7857600760009054906101000a900473ffffffffffffffffffffffffffffffffffffffff1673ffffffffffffffffffffffffffffffffffffffff1663e6a1e888600860009054906101000a900473ffffffffffffffffffffffffffffffffffffffff1630600960009054906101000a900473ffffffffffffffffffffffffffffffffffffffff166040518463ffffffff1660e01b8152600401610a06939291906138f8565b608060405180830381865afa158015610a23573d6000803e3d6000fd5b505050506040513d601f19601f82011682018060405250810190610a479190613970565b9050508092508194505050600960009054906101000a900473ffffffffffffffffffffffffffffffffffffffff1691505b909192565b60606040517f08c379a0000000000000000000000000000000000000000000000000000000008152600401610ab190613a49565b60405180910390fd5b610ad583838360405180602001604052806000815250610e7e565b505050565b6060600660009054906101000a900473ffffffffffffffffffffffffffffffffffffffff1673ffffffffffffffffffffffffffffffffffffffff163373ffffffffffffffffffffffffffffffffffffffff1614610b6c576040517f08c379a0000000000000000000000000000000000000000000000000000000008152600401610b63906137e7565b60405180910390fd5b610b758a6112f1565b1580610b875750610b858961134b565b155b15610bd85782828080601f016020809104026020016040519081016040528093929190818152602001838380828437600081840152601f19601f820116905080830192505050505050509050610be5565b610be283836113e5565b90505b9998505050505050505050565b60606040517f08c379a0000000000000000000000000000000000000000000000000000000008152600401610c2690613adb565b60405180910390fd5b6000806002600084815260200190815260200160002060009054906101000a900473ffffffffffffffffffffffffffffffffffffffff169050600073ffffffffffffffffffffffffffffffffffffffff168173ffffffffffffffffffffffffffffffffffffffff161415610cd8576040517f08c379a0000000000000000000000000000000000000000000000000000000008152600401610ccf90613b6d565b60405180910390fd5b80915050919050565b60008073ffffffffffffffffffffffffffffffffffffffff168273ffffffffffffffffffffffffffffffffffffffff161415610d52576040517f08c379a0000000000000000000000000000000000000000000000000000000008152600401610d4990613bff565b60405180910390fd5b600360008373ffffffffffffffffffffffffffffffffffffffff1673ffffffffffffffffffffffffffffffffffffffff168152602001908152602001600020549050919050565b60606040517f08c379a0000000000000000000000000000000000000000000000000000000008152600401610dcd90613c91565b60405180910390fd5b606060018054610de59061348f565b80601f0160208091040260200160405190810160405280929190818152602001828054610e119061348f565b8015610e5e5780601f10610e3357610100808354040283529160200191610e5e565b820191906000526020600020905b815481529060010190602001808311610e4157829003601f168201915b5050505050905090565b610e7a610e73611230565b8383611ee7565b5050565b610e8f610e89611230565b83611bad565b610ece576040517f08c379a0000000000000000000000000000000000000000000000000000000008152600401610ec590613879565b60405180910390fd5b610eda84848484612054565b50505050565b6060610eeb826111c4565b610f2a576040517f08c379a0000000000000000000000000000000000000000000000000000000008152600401610f2190613d23565b60405180910390fd5b6000610f346120b0565b90506000815111610f545760405180602001604052806000815250610f7f565b80610f5e846120c7565b604051602001610f6f929190613d7f565b6040516020818303038152906040525b915050919050565b60608989610f94826112f1565b610fd3576040517f08c379a0000000000000000000000000000000000000000000000000000000008152600401610fca906136c3565b60405180910390fd5b610fdc8161134b565b61101b576040517f08c379a000000000000000000000000000000000000000000000000000000000815260040161101290613755565b60405180910390fd5b600660009054906101000a900473ffffffffffffffffffffffffffffffffffffffff1673ffffffffffffffffffffffffffffffffffffffff163373ffffffffffffffffffffffffffffffffffffffff16146110ab576040517f08c379a00000000000000000000000000000000000000000000000000000000081526004016110a2906137e7565b60405180910390fd5b6110b585856113e5565b925050509998505050505050505050565b6000600560008473ffffffffffffffffffffffffffffffffffffffff1673ffffffffffffffffffffffffffffffffffffffff16815260200190815260200160002060008373ffffffffffffffffffffffffffffffffffffffff1673ffffffffffffffffffffffffffffffffffffffff16815260200190815260200160002060009054906101000a900460ff16905092915050565b60007f01ffc9a7000000000000000000000000000000000000000000000000000000007bffffffffffffffffffffffffffffffffffffffffffffffffffffffff1916827bffffffffffffffffffffffffffffffffffffffffffffffffffffffff1916149050919050565b60008073ffffffffffffffffffffffffffffffffffffffff166002600084815260200190815260200160002060009054906101000a900473ffffffffffffffffffffffffffffffffffffffff1673ffffffffffffffffffffffffffffffffffffffff1614159050919050565b600033905090565b816004600083815260200190815260200160002060006101000a81548173ffffffffffffffffffffffffffffffffffffffff021916908373ffffffffffffffffffffffffffffffffffffffff160217905550808273ffffffffffffffffffffffffffffffffffffffff166112ab83610c2f565b73ffffffffffffffffffffffffffffffffffffffff167f8c5be1e5ebec7d5bd14f71427d1e84f3dd0314c0f7b2291e5b200ac8c7c3b92560405160405180910390a45050565b6000600860009054906101000a900473ffffffffffffffffffffffffffffffffffffffff1673ffffffffffffffffffffffffffffffffffffffff168273ffffffffffffffffffffffffffffffffffffffff16149050919050565b60007fa9214cc96615e0085d3bb077758db69497dc2dce3b2b1e97bc93c3d18d83efd38273ffffffffffffffffffffffffffffffffffffffff16637730599e6040518163ffffffff1660e01b8152600401602060405180830381865afa1580156113b9573d6000803e3d6000fd5b505050506040513d601f19601f820116820180604052508101906113dd9190613db8565b149050919050565b606082828080601f016020809104026020016040519081016040528093929190818152602001838380828437600081840152601f19601f8201169050808301925050505050505090506000600760009054906101000a900473ffffffffffffffffffffffffffffffffffffffff1673ffffffffffffffffffffffffffffffffffffffff1663e8e7e2d1600860009054906101000a900473ffffffffffffffffffffffffffffffffffffffff16306040518363ffffffff1660e01b81526004016114af929190613de5565b602060405180830381865afa1580156114cc573d6000803e3d6000fd5b505050506040513d601f19601f820116820180604052508101906114f09190613e0e565b90506000600760009054906101000a900473ffffffffffffffffffffffffffffffffffffffff1673ffffffffffffffffffffffffffffffffffffffff1663e6a1e888600860009054906101000a900473ffffffffffffffffffffffffffffffffffffffff1630600960009054906101000a900473ffffffffffffffffffffffffffffffffffffffff166040518463ffffffff1660e01b8152600401611597939291906138f8565b608060405180830381865afa1580156115b4573d6000803e3d6000fd5b505050506040513d601f19601f820116820180604052508101906115d89190613970565b5050915050600081836115eb9190613e6a565b90506000600b0b81600b0b14156117db57600660009054906101000a900473ffffffffffffffffffffffffffffffffffffffff1673ffffffffffffffffffffffffffffffffffffffff16634329d293600760009054906101000a900473ffffffffffffffffffffffffffffffffffffffff1663b4b333c660e01b600860009054906101000a900473ffffffffffffffffffffffffffffffffffffffff1630600960009054906101000a900473ffffffffffffffffffffffffffffffffffffffff16600067ffffffffffffffff8111156116c7576116c6613272565b5b6040519080825280601f01601f1916602001820160405280156116f95781602001600182028036833780820191505090505b5060405160240161170d9493929190613eea565b604051602081830303815290604052907bffffffffffffffffffffffffffffffffffffffffffffffffffffffff19166020820180517bffffffffffffffffffffffffffffffffffffffffffffffffffffffff8381831617835250505050876040518463ffffffff1660e01b815260040161178993929190613fa3565b6000604051808303816000875af11580156117a8573d6000803e3d6000fd5b505050506040513d6000823e3d601f19601f820116820180604052508101906117d1919061406b565b5080945050611ba4565b6000600b0b82600b0b146119c857600660009054906101000a900473ffffffffffffffffffffffffffffffffffffffff1673ffffffffffffffffffffffffffffffffffffffff16634329d293600760009054906101000a900473ffffffffffffffffffffffffffffffffffffffff166350209a6260e01b600860009054906101000a900473ffffffffffffffffffffffffffffffffffffffff16600960009054906101000a900473ffffffffffffffffffffffffffffffffffffffff1686600067ffffffffffffffff8111156118b4576118b3613272565b5b6040519080825280601f01601f1916602001820160405280156118e65781602001600182028036833780820191505090505b506040516024016118fa94939291906140e3565b604051602081830303815290604052907bffffffffffffffffffffffffffffffffffffffffffffffffffffffff19166020820180517bffffffffffffffffffffffffffffffffffffffffffffffffffffffff8381831617835250505050876040518463ffffffff1660e01b815260040161197693929190613fa3565b6000604051808303816000875af1158015611995573d6000803e3d6000fd5b505050506040513d6000823e3d601f19601f820116820180604052508101906119be919061406b565b5080945050611ba3565b600660009054906101000a900473ffffffffffffffffffffffffffffffffffffffff1673ffffffffffffffffffffffffffffffffffffffff16634329d293600760009054906101000a900473ffffffffffffffffffffffffffffffffffffffff166362fc305e60e01b600860009054906101000a900473ffffffffffffffffffffffffffffffffffffffff16600960009054906101000a900473ffffffffffffffffffffffffffffffffffffffff1686600067ffffffffffffffff811115611a9357611a92613272565b5b6040519080825280601f01601f191660200182016040528015611ac55781602001600182028036833780820191505090505b50604051602401611ad994939291906140e3565b604051602081830303815290604052907bffffffffffffffffffffffffffffffffffffffffffffffffffffffff19166020820180517bffffffffffffffffffffffffffffffffffffffffffffffffffffffff8381831617835250505050876040518463ffffffff1660e01b8152600401611b5593929190613fa3565b6000604051808303816000875af1158015611b74573d6000803e3d6000fd5b505050506040513d6000823e3d601f19601f82011682018060405250810190611b9d919061406b565b50809450505b5b50505092915050565b6000611bb8826111c4565b611bf7576040517f08c379a0000000000000000000000000000000000000000000000000000000008152600401611bee906141a1565b60405180910390fd5b6000611c0283610c2f565b90508073ffffffffffffffffffffffffffffffffffffffff168473ffffffffffffffffffffffffffffffffffffffff161480611c7157508373ffffffffffffffffffffffffffffffffffffffff16611c59846105cd565b73ffffffffffffffffffffffffffffffffffffffff16145b80611c825750611c8181856110c6565b5b91505092915050565b8273ffffffffffffffffffffffffffffffffffffffff16611cab82610c2f565b73ffffffffffffffffffffffffffffffffffffffff1614611d01576040517f08c379a0000000000000000000000000000000000000000000000000000000008152600401611cf890614233565b60405180910390fd5b600073ffffffffffffffffffffffffffffffffffffffff168273ffffffffffffffffffffffffffffffffffffffff161415611d71576040517f08c379a0000000000000000000000000000000000000000000000000000000008152600401611d68906142c5565b60405180910390fd5b611d7c838383612228565b611d87600082611238565b6001600360008573ffffffffffffffffffffffffffffffffffffffff1673ffffffffffffffffffffffffffffffffffffffff1681526020019081526020016000206000828254611dd791906142e5565b925050819055506001600360008473ffffffffffffffffffffffffffffffffffffffff1673ffffffffffffffffffffffffffffffffffffffff1681526020019081526020016000206000828254611e2e9190614319565b92505081905550816002600083815260200190815260200160002060006101000a81548173ffffffffffffffffffffffffffffffffffffffff021916908373ffffffffffffffffffffffffffffffffffffffff160217905550808273ffffffffffffffffffffffffffffffffffffffff168473ffffffffffffffffffffffffffffffffffffffff167fddf252ad1be2c89b69c2b068fc378daa952ba7f163c4a11628f55a4df523b3ef60405160405180910390a4505050565b8173ffffffffffffffffffffffffffffffffffffffff168373ffffffffffffffffffffffffffffffffffffffff161415611f56576040517f08c379a0000000000000000000000000000000000000000000000000000000008152600401611f4d906143bb565b60405180910390fd5b80600560008573ffffffffffffffffffffffffffffffffffffffff1673ffffffffffffffffffffffffffffffffffffffff16815260200190815260200160002060008473ffffffffffffffffffffffffffffffffffffffff1673ffffffffffffffffffffffffffffffffffffffff16815260200190815260200160002060006101000a81548160ff0219169083151502179055508173ffffffffffffffffffffffffffffffffffffffff168373ffffffffffffffffffffffffffffffffffffffff167f17307eab39ab6107e8899845ad3d59bd9653f200f220920489ca2b5937696c31836040516120479190612c08565b60405180910390a3505050565b61205f848484611c8b565b61206b84848484612236565b6120aa576040517f08c379a00000000000000000000000000000000000000000000000000000000081526004016120a19061444d565b60405180910390fd5b50505050565b606060405180602001604052806000815250905090565b6060600082141561210f576040518060400160405280600181526020017f30000000000000000000000000000000000000000000000000000000000000008152509050612223565b600082905060005b6000821461214157808061212a9061446d565b915050600a8261213a91906144e5565b9150612117565b60008167ffffffffffffffff81111561215d5761215c613272565b5b6040519080825280601f01601f19166020018201604052801561218f5781602001600182028036833780820191505090505b5090505b6000851461221c576001826121a891906142e5565b9150600a856121b79190614516565b60306121c39190614319565b60f81b8183815181106121d9576121d8614547565b5b60200101907effffffffffffffffffffffffffffffffffffffffffffffffffffffffffffff1916908160001a905350600a8561221591906144e5565b9450612193565b8093505050505b919050565b612231826123be565b505050565b60006122578473ffffffffffffffffffffffffffffffffffffffff16612b41565b156123b1578373ffffffffffffffffffffffffffffffffffffffff1663150b7a02612280611230565b8786866040518563ffffffff1660e01b81526004016122a29493929190614576565b6020604051808303816000875af19250505080156122de57506040513d601f19601f820116820180604052508101906122db91906145d7565b60015b612361573d806000811461230e576040519150601f19603f3d011682016040523d82523d6000602084013e612313565b606091505b50600081511415612359576040517f08c379a00000000000000000000000000000000000000000000000000000000081526004016123509061444d565b60405180910390fd5b805181602001fd5b63150b7a0260e01b7bffffffffffffffffffffffffffffffffffffffffffffffffffffffff1916817bffffffffffffffffffffffffffffffffffffffffffffffffffffffff1916149150506123b6565b600190505b949350505050565b600073ffffffffffffffffffffffffffffffffffffffff168173ffffffffffffffffffffffffffffffffffffffff16141561242e576040517f08c379a000000000000000000000000000000000000000000000000000000000815260040161242590614650565b60405180910390fd5b600660009054906101000a900473ffffffffffffffffffffffffffffffffffffffff1673ffffffffffffffffffffffffffffffffffffffff16633ca3ad4e826040518263ffffffff1660e01b81526004016124899190614691565b602060405180830381865afa1580156124a6573d6000803e3d6000fd5b505050506040513d601f19601f820116820180604052508101906124ca91906146c1565b1561250a576040517f08c379a000000000000000000000000000000000000000000000000000000000815260040161250190614760565b60405180910390fd5b600960009054906101000a900473ffffffffffffffffffffffffffffffffffffffff1673ffffffffffffffffffffffffffffffffffffffff168173ffffffffffffffffffffffffffffffffffffffff16141561256557612b3e565b6000600760009054906101000a900473ffffffffffffffffffffffffffffffffffffffff1673ffffffffffffffffffffffffffffffffffffffff1663e6a1e888600860009054906101000a900473ffffffffffffffffffffffffffffffffffffffff1630600960009054906101000a900473ffffffffffffffffffffffffffffffffffffffff166040518463ffffffff1660e01b815260040161260a939291906138f8565b608060405180830381865afa158015612627573d6000803e3d6000fd5b505050506040513d601f19601f8201168201806040525081019061264b9190613970565b5050915050600081600b0b1315612aa257600660009054906101000a900473ffffffffffffffffffffffffffffffffffffffff1673ffffffffffffffffffffffffffffffffffffffff166339255d5b600760009054906101000a900473ffffffffffffffffffffffffffffffffffffffff1663b4b333c660e01b600860009054906101000a900473ffffffffffffffffffffffffffffffffffffffff1630600960009054906101000a900473ffffffffffffffffffffffffffffffffffffffff16600067ffffffffffffffff81111561272757612726613272565b5b6040519080825280601f01601f1916602001820160405280156127595781602001600182028036833780820191505090505b5060405160240161276d9493929190613eea565b604051602081830303815290604052907bffffffffffffffffffffffffffffffffffffffffffffffffffffffff19166020820180517bffffffffffffffffffffffffffffffffffffffffffffffffffffffff83818316178352505050506040518363ffffffff1660e01b81526004016127e7929190614780565b6000604051808303816000875af1158015612806573d6000803e3d6000fd5b505050506040513d6000823e3d601f19601f8201168201806040525081019061282f91906147c3565b50600660009054906101000a900473ffffffffffffffffffffffffffffffffffffffff1673ffffffffffffffffffffffffffffffffffffffff166339255d5b600760009054906101000a900473ffffffffffffffffffffffffffffffffffffffff166362fc305e60e01b600860009054906101000a900473ffffffffffffffffffffffffffffffffffffffff1686600760009054906101000a900473ffffffffffffffffffffffffffffffffffffffff1673ffffffffffffffffffffffffffffffffffffffff1663e8e7e2d1600860009054906101000a900473ffffffffffffffffffffffffffffffffffffffff16306040518363ffffffff1660e01b815260040161293c929190613de5565b602060405180830381865afa158015612959573d6000803e3d6000fd5b505050506040513d601f19601f8201168201806040525081019061297d9190613e0e565b600067ffffffffffffffff81111561299857612997613272565b5b6040519080825280601f01601f1916602001820160405280156129ca5781602001600182028036833780820191505090505b506040516024016129de94939291906140e3565b604051602081830303815290604052907bffffffffffffffffffffffffffffffffffffffffffffffffffffffff19166020820180517bffffffffffffffffffffffffffffffffffffffffffffffffffffffff83818316178352505050506040518363ffffffff1660e01b8152600401612a58929190614780565b6000604051808303816000875af1158015612a77573d6000803e3d6000fd5b505050506040513d6000823e3d601f19601f82011682018060405250810190612aa091906147c3565b505b81600960006101000a81548173ffffffffffffffffffffffffffffffffffffffff021916908373ffffffffffffffffffffffffffffffffffffffff1602179055507f7dfb1d59db37a3fd2e15e796c189dcab714cdbb18650d68a1de58f8fa60718c9600960009054906101000a900473ffffffffffffffffffffffffffffffffffffffff16604051612b349190612d82565b60405180910390a1505b50565b600080823b905060008111915050919050565b6000604051905090565b600080fd5b600080fd5b60007fffffffff0000000000000000000000000000000000000000000000000000000082169050919050565b612b9d81612b68565b8114612ba857600080fd5b50565b600081359050612bba81612b94565b92915050565b600060208284031215612bd657612bd5612b5e565b5b6000612be484828501612bab565b91505092915050565b60008115159050919050565b612c0281612bed565b82525050565b6000602082019050612c1d6000830184612bf9565b92915050565b600081519050919050565b600082825260208201905092915050565b60005b83811015612c5d578082015181840152602081019050612c42565b83811115612c6c576000848401525b50505050565b6000601f19601f8301169050919050565b6000612c8e82612c23565b612c988185612c2e565b9350612ca8818560208601612c3f565b612cb181612c72565b840191505092915050565b60006020820190508181036000830152612cd68184612c83565b905092915050565b6000819050919050565b612cf181612cde565b8114612cfc57600080fd5b50565b600081359050612d0e81612ce8565b92915050565b600060208284031215612d2a57612d29612b5e565b5b6000612d3884828501612cff565b91505092915050565b600073ffffffffffffffffffffffffffffffffffffffff82169050919050565b6000612d6c82612d41565b9050919050565b612d7c81612d61565b82525050565b6000602082019050612d976000830184612d73565b92915050565b612da681612d61565b8114612db157600080fd5b50565b600081359050612dc381612d9d565b92915050565b60008060408385031215612de057612ddf612b5e565b5b6000612dee85828601612db4565b9250506020612dff85828601612cff565b9150509250929050565b6000612e1482612d61565b9050919050565b612e2481612e09565b8114612e2f57600080fd5b50565b600081359050612e4181612e1b565b92915050565b6000819050919050565b612e5a81612e47565b8114612e6557600080fd5b50565b600081359050612e7781612e51565b92915050565b600080fd5b600080fd5b600080fd5b60008083601f840112612ea257612ea1612e7d565b5b8235905067ffffffffffffffff811115612ebf57612ebe612e82565b5b602083019150836001820283011115612edb57612eda612e87565b5b9250929050565b600080600080600080600080600060c08a8c031215612f0457612f03612b5e565b5b6000612f128c828d01612e32565b9950506020612f238c828d01612db4565b9850506040612f348c828d01612e68565b97505060608a013567ffffffffffffffff811115612f5557612f54612b63565b5b612f618c828d01612e8c565b965096505060808a013567ffffffffffffffff811115612f8457612f83612b63565b5b612f908c828d01612e8c565b945094505060a08a013567ffffffffffffffff811115612fb357612fb2612b63565b5b612fbf8c828d01612e8c565b92509250509295985092959850929598565b600081519050919050565b600082825260208201905092915050565b6000612ff882612fd1565b6130028185612fdc565b9350613012818560208601612c3f565b61301b81612c72565b840191505092915050565b600060208201905081810360008301526130408184612fed565b905092915050565b60008060006060848603121561306157613060612b5e565b5b600061306f86828701612db4565b935050602061308086828701612db4565b925050604061309186828701612cff565b9150509250925092565b6130a481612cde565b82525050565b600081600b0b9050919050565b6130c0816130aa565b82525050565b60006060820190506130db600083018661309b565b6130e86020830185612d73565b6130f560408301846130b7565b949350505050565b600080600080600080600060a0888a03121561311c5761311b612b5e565b5b600061312a8a828b01612e32565b975050602061313b8a828b01612db4565b965050604061314c8a828b01612e68565b955050606088013567ffffffffffffffff81111561316d5761316c612b63565b5b6131798a828b01612e8c565b9450945050608088013567ffffffffffffffff81111561319c5761319b612b63565b5b6131a88a828b01612e8c565b925092505092959891949750929550565b6000602082840312156131cf576131ce612b5e565b5b60006131dd84828501612db4565b91505092915050565b60006020820190506131fb600083018461309b565b92915050565b61320a81612bed565b811461321557600080fd5b50565b60008135905061322781613201565b92915050565b6000806040838503121561324457613243612b5e565b5b600061325285828601612db4565b925050602061326385828601613218565b9150509250929050565b600080fd5b7f4e487b7100000000000000000000000000000000000000000000000000000000600052604160045260246000fd5b6132aa82612c72565b810181811067ffffffffffffffff821117156132c9576132c8613272565b5b80604052505050565b60006132dc612b54565b90506132e882826132a1565b919050565b600067ffffffffffffffff82111561330857613307613272565b5b61331182612c72565b9050602081019050919050565b82818337600083830152505050565b600061334061333b846132ed565b6132d2565b90508281526020810184848401111561335c5761335b61326d565b5b61336784828561331e565b509392505050565b600082601f83011261338457613383612e7d565b5b813561339484826020860161332d565b91505092915050565b600080600080608085870312156133b7576133b6612b5e565b5b60006133c587828801612db4565b94505060206133d687828801612db4565b93505060406133e787828801612cff565b925050606085013567ffffffffffffffff81111561340857613407612b63565b5b6134148782880161336f565b91505092959194509250565b6000806040838503121561343757613436612b5e565b5b600061344585828601612db4565b925050602061345685828601612db4565b9150509250929050565b7f4e487b7100000000000000000000000000000000000000000000000000000000600052602260045260246000fd5b600060028204905060018216806134a757607f821691505b602082108114156134bb576134ba613460565b5b50919050565b7f4552433732313a20617070726f76656420717565727920666f72206e6f6e657860008201527f697374656e7420746f6b656e0000000000000000000000000000000000000000602082015250565b600061351d602c83612c2e565b9150613528826134c1565b604082019050919050565b6000602082019050818103600083015261354c81613510565b9050919050565b7f4552433732313a20617070726f76616c20746f2063757272656e74206f776e6560008201527f7200000000000000000000000000000000000000000000000000000000000000602082015250565b60006135af602183612c2e565b91506135ba82613553565b604082019050919050565b600060208201905081810360008301526135de816135a2565b9050919050565b7f4552433732313a20617070726f76652063616c6c6572206973206e6f74206f7760008201527f6e6572206e6f7220617070726f76656420666f7220616c6c0000000000000000602082015250565b6000613641603883612c2e565b915061364c826135e5565b604082019050919050565b6000602082019050818103600083015261367081613634565b9050919050565b7f5265646972656374416c6c3a206e6f7420616363657074656420746f6b656e00600082015250565b60006136ad601f83612c2e565b91506136b882613677565b602082019050919050565b600060208201905081810360008301526136dc816136a0565b9050919050565b7f5265646972656374416c6c3a206f6e6c7920434641763120737570706f72746560008201527f6400000000000000000000000000000000000000000000000000000000000000602082015250565b600061373f602183612c2e565b915061374a826136e3565b604082019050919050565b6000602082019050818103600083015261376e81613732565b9050919050565b7f5265646972656374416c6c3a20737570706f7274206f6e6c79206f6e6520686f60008201527f7374000000000000000000000000000000000000000000000000000000000000602082015250565b60006137d1602283612c2e565b91506137dc82613775565b604082019050919050565b60006020820190508181036000830152613800816137c4565b9050919050565b7f4552433732313a207472616e736665722063616c6c6572206973206e6f74206f60008201527f776e6572206e6f7220617070726f766564000000000000000000000000000000602082015250565b6000613863603183612c2e565b915061386e82613807565b604082019050919050565b6000602082019050818103600083015261389281613856565b9050919050565b6000819050919050565b60006138be6138b96138b484612d41565b613899565b612d41565b9050919050565b60006138d0826138a3565b9050919050565b60006138e2826138c5565b9050919050565b6138f2816138d7565b82525050565b600060608201905061390d60008301866138e9565b61391a6020830185612d73565b6139276040830184612d73565b949350505050565b60008151905061393e81612ce8565b92915050565b61394d816130aa565b811461395857600080fd5b50565b60008151905061396a81613944565b92915050565b6000806000806080858703121561398a57613989612b5e565b5b60006139988782880161392f565b94505060206139a98782880161395b565b93505060406139ba8782880161392f565b92505060606139cb8782880161392f565b91505092959194509250565b7f556e737570706f727465642063616c6c6261636b202d204265666f726520416760008201527f7265656d656e7420437265617465640000000000000000000000000000000000602082015250565b6000613a33602f83612c2e565b9150613a3e826139d7565b604082019050919050565b60006020820190508181036000830152613a6281613a26565b9050919050565b7f556e737570706f727465642063616c6c6261636b202d20204265666f7265204160008201527f677265656d656e74205465726d696e6174656400000000000000000000000000602082015250565b6000613ac5603383612c2e565b9150613ad082613a69565b604082019050919050565b60006020820190508181036000830152613af481613ab8565b9050919050565b7f4552433732313a206f776e657220717565727920666f72206e6f6e657869737460008201527f656e7420746f6b656e0000000000000000000000000000000000000000000000602082015250565b6000613b57602983612c2e565b9150613b6282613afb565b604082019050919050565b60006020820190508181036000830152613b8681613b4a565b9050919050565b7f4552433732313a2062616c616e636520717565727920666f7220746865207a6560008201527f726f206164647265737300000000000000000000000000000000000000000000602082015250565b6000613be9602a83612c2e565b9150613bf482613b8d565b604082019050919050565b60006020820190508181036000830152613c1881613bdc565b9050919050565b7f556e737570706f727465642063616c6c6261636b202d204265666f726520416760008201527f7265656d656e7420757064617465640000000000000000000000000000000000602082015250565b6000613c7b602f83612c2e565b9150613c8682613c1f565b604082019050919050565b60006020820190508181036000830152613caa81613c6e565b9050919050565b7f4552433732314d657461646174613a2055524920717565727920666f72206e6f60008201527f6e6578697374656e7420746f6b656e0000000000000000000000000000000000602082015250565b6000613d0d602f83612c2e565b9150613d1882613cb1565b604082019050919050565b60006020820190508181036000830152613d3c81613d00565b9050919050565b600081905092915050565b6000613d5982612c23565b613d638185613d43565b9350613d73818560208601612c3f565b80840191505092915050565b6000613d8b8285613d4e565b9150613d978284613d4e565b91508190509392505050565b600081519050613db281612e51565b92915050565b600060208284031215613dce57613dcd612b5e565b5b6000613ddc84828501613da3565b91505092915050565b6000604082019050613dfa60008301856138e9565b613e076020830184612d73565b9392505050565b600060208284031215613e2457613e23612b5e565b5b6000613e328482850161395b565b91505092915050565b7f4e487b7100000000000000000000000000000000000000000000000000000000600052601160045260246000fd5b6000613e75826130aa565b9150613e80836130aa565b9250816b7fffffffffffffffffffffff03831360008312151615613ea757613ea6613e3b565b5b817fffffffffffffffffffffffffffffffffffffffff800000000000000000000000038312600083121615613edf57613ede613e3b565b5b828201905092915050565b6000608082019050613eff60008301876138e9565b613f0c6020830186612d73565b613f196040830185612d73565b8181036060830152613f2b8184612fed565b905095945050505050565b6000613f41826138c5565b9050919050565b613f5181613f36565b82525050565b7f3078000000000000000000000000000000000000000000000000000000000000600082015250565b6000613f8d600283612fdc565b9150613f9882613f57565b602082019050919050565b6000608082019050613fb86000830186613f48565b8181036020830152613fca8185612fed565b90508181036040830152613fdd81613f80565b90508181036060830152613ff18184612fed565b9050949350505050565b600061400e614009846132ed565b6132d2565b90508281526020810184848401111561402a5761402961326d565b5b614035848285612c3f565b509392505050565b600082601f83011261405257614051612e7d565b5b8151614062848260208601613ffb565b91505092915050565b6000806040838503121561408257614081612b5e565b5b600083015167ffffffffffffffff8111156140a05761409f612b63565b5b6140ac8582860161403d565b925050602083015167ffffffffffffffff8111156140cd576140cc612b63565b5b6140d98582860161403d565b9150509250929050565b60006080820190506140f860008301876138e9565b6141056020830186612d73565b61411260408301856130b7565b81810360608301526141248184612fed565b905095945050505050565b7f4552433732313a206f70657261746f7220717565727920666f72206e6f6e657860008201527f697374656e7420746f6b656e0000000000000000000000000000000000000000602082015250565b600061418b602c83612c2e565b91506141968261412f565b604082019050919050565b600060208201905081810360008301526141ba8161417e565b9050919050565b7f4552433732313a207472616e73666572206f6620746f6b656e2074686174206960008201527f73206e6f74206f776e0000000000000000000000000000000000000000000000602082015250565b600061421d602983612c2e565b9150614228826141c1565b604082019050919050565b6000602082019050818103600083015261424c81614210565b9050919050565b7f4552433732313a207472616e7366657220746f20746865207a65726f2061646460008201527f7265737300000000000000000000000000000000000000000000000000000000602082015250565b60006142af602483612c2e565b91506142ba82614253565b604082019050919050565b600060208201905081810360008301526142de816142a2565b9050919050565b60006142f082612cde565b91506142fb83612cde565b92508282101561430e5761430d613e3b565b5b828203905092915050565b600061432482612cde565b915061432f83612cde565b9250827fffffffffffffffffffffffffffffffffffffffffffffffffffffffffffffffff0382111561436457614363613e3b565b5b828201905092915050565b7f4552433732313a20617070726f766520746f2063616c6c657200000000000000600082015250565b60006143a5601983612c2e565b91506143b08261436f565b602082019050919050565b600060208201905081810360008301526143d481614398565b9050919050565b7f4552433732313a207472616e7366657220746f206e6f6e20455243373231526560008201527f63656976657220696d706c656d656e7465720000000000000000000000000000602082015250565b6000614437603283612c2e565b9150614442826143db565b604082019050919050565b600060208201905081810360008301526144668161442a565b9050919050565b600061447882612cde565b91507fffffffffffffffffffffffffffffffffffffffffffffffffffffffffffffffff8214156144ab576144aa613e3b565b5b600182019050919050565b7f4e487b7100000000000000000000000000000000000000000000000000000000600052601260045260246000fd5b60006144f082612cde565b91506144fb83612cde565b92508261450b5761450a6144b6565b5b828204905092915050565b600061452182612cde565b915061452c83612cde565b92508261453c5761453b6144b6565b5b828206905092915050565b7f4e487b7100000000000000000000000000000000000000000000000000000000600052603260045260246000fd5b600060808201905061458b6000830187612d73565b6145986020830186612d73565b6145a5604083018561309b565b81810360608301526145b78184612fed565b905095945050505050565b6000815190506145d181612b94565b92915050565b6000602082840312156145ed576145ec612b5e565b5b60006145fb848285016145c2565b91505092915050565b7f4e6577207265636569766572206973207a65726f206164647265737300000000600082015250565b600061463a601c83612c2e565b915061464582614604565b602082019050919050565b600060208201905081810360008301526146698161462d565b9050919050565b600061467b826138c5565b9050919050565b61468b81614670565b82525050565b60006020820190506146a66000830184614682565b92915050565b6000815190506146bb81613201565b92915050565b6000602082840312156146d7576146d6612b5e565b5b60006146e5848285016146ac565b91505092915050565b7f4e65772072656365697665722063616e206e6f7420626520612073757065724160008201527f7070000000000000000000000000000000000000000000000000000000000000602082015250565b600061474a602283612c2e565b9150614755826146ee565b604082019050919050565b600060208201905081810360008301526147798161473d565b9050919050565b60006060820190506147956000830185613f48565b81810360208301526147a78184612fed565b905081810360408301526147ba81613f80565b90509392505050565b6000602082840312156147d9576147d8612b5e565b5b600082015167ffffffffffffffff8111156147f7576147f6612b63565b5b6148038482850161403d565b9150509291505056fea26469706673582212208fdb83c490a32e204bda093d04ff06c1e1c06c143eb5d4d0cc9c43fe4e9afa9564736f6c634300080b0033",
  "immutableReferences": {},
  "source": "//SPDX-License-Identifier: MIT\r\npragma solidity ^0.8.0;\r\n\r\nimport {RedirectAll, ISuperToken, IConstantFlowAgreementV1, ISuperfluid} from './RedirectAll.sol';\r\nimport {ERC721} from '@openzeppelin/contracts/token/ERC721/ERC721.sol';\r\n\r\ncontract TradeableCashflow is ERC721, RedirectAll {\r\n    constructor(\r\n        address owner,\r\n        string memory _name,\r\n        string memory _symbol,\r\n        ISuperfluid host,\r\n        IConstantFlowAgreementV1 cfa,\r\n        ISuperToken acceptedToken\r\n    ) ERC721(_name, _symbol) RedirectAll(host, cfa, acceptedToken, owner) {\r\n        _mint(owner, 1);\r\n    }\r\n\r\n    //now I will insert a nice little hook in the _transfer, including the RedirectAll function I need\r\n    function _beforeTokenTransfer(\r\n        address, /*from*/\r\n        address to,\r\n        uint256 /*tokenId*/\r\n    ) internal override {\r\n        _changeReceiver(to);\r\n    }\r\n}\r\n",
  "sourcePath": "C:\\Users\\Jason\\0xPhotos\\apps\\blockchain\\contracts\\TradeableCashflow.sol",
  "compiler": {
    "name": "solc",
    "version": "0.8.11+commit.d7f03943.Emscripten.clang"
  },
  "schemaVersion": "3.4.4",
  "updatedAt": "2022-01-15T13:41:19.052Z",
  "devdoc": {
    "kind": "dev",
    "methods": {
      "approve(address,uint256)": {
        "details": "See {IERC721-approve}."
      },
      "balanceOf(address)": {
        "details": "See {IERC721-balanceOf}."
      },
      "getApproved(uint256)": {
        "details": "See {IERC721-getApproved}."
      },
      "isApprovedForAll(address,address)": {
        "details": "See {IERC721-isApprovedForAll}."
      },
      "name()": {
        "details": "See {IERC721Metadata-name}."
      },
      "ownerOf(uint256)": {
        "details": "See {IERC721-ownerOf}."
      },
      "safeTransferFrom(address,address,uint256)": {
        "details": "See {IERC721-safeTransferFrom}."
      },
      "safeTransferFrom(address,address,uint256,bytes)": {
        "details": "See {IERC721-safeTransferFrom}."
      },
      "setApprovalForAll(address,bool)": {
        "details": "See {IERC721-setApprovalForAll}."
      },
      "supportsInterface(bytes4)": {
        "details": "See {IERC165-supportsInterface}."
      },
      "symbol()": {
        "details": "See {IERC721Metadata-symbol}."
      },
      "tokenURI(uint256)": {
        "details": "See {IERC721Metadata-tokenURI}."
      },
      "transferFrom(address,address,uint256)": {
        "details": "See {IERC721-transferFrom}."
      }
    },
    "version": 1
  },
  "userdoc": {
    "kind": "user",
    "methods": {},
    "version": 1
  }
}