{
  "contractName": "TradeableCashflow",
  "abi": [
    {
      "inputs": [
        {
          "internalType": "address",
          "name": "owner",
          "type": "address"
        },
        {
          "internalType": "string",
          "name": "_name",
          "type": "string"
        },
        {
          "internalType": "string",
          "name": "_symbol",
          "type": "string"
        },
        {
          "internalType": "contract ISuperfluid",
          "name": "host",
          "type": "address"
        },
        {
          "internalType": "contract IConstantFlowAgreementV1",
          "name": "cfa",
          "type": "address"
        },
        {
          "internalType": "contract ISuperToken",
          "name": "acceptedToken",
          "type": "address"
        }
      ],
      "stateMutability": "nonpayable",
      "type": "constructor"
    },
    {
      "anonymous": false,
      "inputs": [
        {
          "indexed": true,
          "internalType": "address",
          "name": "owner",
          "type": "address"
        },
        {
          "indexed": true,
          "internalType": "address",
          "name": "approved",
          "type": "address"
        },
        {
          "indexed": true,
          "internalType": "uint256",
          "name": "tokenId",
          "type": "uint256"
        }
      ],
      "name": "Approval",
      "type": "event"
    },
    {
      "anonymous": false,
      "inputs": [
        {
          "indexed": true,
          "internalType": "address",
          "name": "owner",
          "type": "address"
        },
        {
          "indexed": true,
          "internalType": "address",
          "name": "operator",
          "type": "address"
        },
        {
          "indexed": false,
          "internalType": "bool",
          "name": "approved",
          "type": "bool"
        }
      ],
      "name": "ApprovalForAll",
      "type": "event"
    },
    {
      "anonymous": false,
      "inputs": [
        {
          "indexed": false,
          "internalType": "address",
          "name": "receiver",
          "type": "address"
        }
      ],
      "name": "ReceiverChanged",
      "type": "event"
    },
    {
      "anonymous": false,
      "inputs": [
        {
          "indexed": true,
          "internalType": "address",
          "name": "from",
          "type": "address"
        },
        {
          "indexed": true,
          "internalType": "address",
          "name": "to",
          "type": "address"
        },
        {
          "indexed": true,
          "internalType": "uint256",
          "name": "tokenId",
          "type": "uint256"
        }
      ],
      "name": "Transfer",
      "type": "event"
    },
    {
      "inputs": [
        {
          "internalType": "contract ISuperToken",
          "name": "_superToken",
          "type": "address"
        },
        {
          "internalType": "address",
          "name": "_agreementClass",
          "type": "address"
        },
        {
          "internalType": "bytes32",
          "name": "",
          "type": "bytes32"
        },
        {
          "internalType": "bytes",
          "name": "",
          "type": "bytes"
        },
        {
          "internalType": "bytes",
          "name": "",
          "type": "bytes"
        },
        {
          "internalType": "bytes",
          "name": "_ctx",
          "type": "bytes"
        }
      ],
      "name": "afterAgreementCreated",
      "outputs": [
        {
          "internalType": "bytes",
          "name": "newCtx",
          "type": "bytes"
        }
      ],
      "stateMutability": "nonpayable",
      "type": "function"
    },
    {
      "inputs": [
        {
          "internalType": "contract ISuperToken",
          "name": "_superToken",
          "type": "address"
        },
        {
          "internalType": "address",
          "name": "_agreementClass",
          "type": "address"
        },
        {
          "internalType": "bytes32",
          "name": "",
          "type": "bytes32"
        },
        {
          "internalType": "bytes",
          "name": "",
          "type": "bytes"
        },
        {
          "internalType": "bytes",
          "name": "",
          "type": "bytes"
        },
        {
          "internalType": "bytes",
          "name": "_ctx",
          "type": "bytes"
        }
      ],
      "name": "afterAgreementTerminated",
      "outputs": [
        {
          "internalType": "bytes",
          "name": "newCtx",
          "type": "bytes"
        }
      ],
      "stateMutability": "nonpayable",
      "type": "function"
    },
    {
      "inputs": [
        {
          "internalType": "contract ISuperToken",
          "name": "_superToken",
          "type": "address"
        },
        {
          "internalType": "address",
          "name": "_agreementClass",
          "type": "address"
        },
        {
          "internalType": "bytes32",
          "name": "",
          "type": "bytes32"
        },
        {
          "internalType": "bytes",
          "name": "agreementData",
          "type": "bytes"
        },
        {
          "internalType": "bytes",
          "name": "",
          "type": "bytes"
        },
        {
          "internalType": "bytes",
          "name": "_ctx",
          "type": "bytes"
        }
      ],
      "name": "afterAgreementUpdated",
      "outputs": [
        {
          "internalType": "bytes",
          "name": "newCtx",
          "type": "bytes"
        }
      ],
      "stateMutability": "nonpayable",
      "type": "function"
    },
    {
      "inputs": [
        {
          "internalType": "address",
          "name": "to",
          "type": "address"
        },
        {
          "internalType": "uint256",
          "name": "tokenId",
          "type": "uint256"
        }
      ],
      "name": "approve",
      "outputs": [],
      "stateMutability": "nonpayable",
      "type": "function"
    },
    {
      "inputs": [
        {
          "internalType": "address",
          "name": "owner",
          "type": "address"
        }
      ],
      "name": "balanceOf",
      "outputs": [
        {
          "internalType": "uint256",
          "name": "",
          "type": "uint256"
        }
      ],
      "stateMutability": "view",
      "type": "function"
    },
    {
      "inputs": [],
      "name": "baseURI",
      "outputs": [
        {
          "internalType": "string",
          "name": "",
          "type": "string"
        }
      ],
      "stateMutability": "view",
      "type": "function"
    },
    {
      "inputs": [
        {
          "internalType": "contract ISuperToken",
          "name": "",
          "type": "address"
        },
        {
          "internalType": "address",
          "name": "",
          "type": "address"
        },
        {
          "internalType": "bytes32",
          "name": "",
          "type": "bytes32"
        },
        {
          "internalType": "bytes",
          "name": "",
          "type": "bytes"
        },
        {
          "internalType": "bytes",
          "name": "",
          "type": "bytes"
        }
      ],
      "name": "beforeAgreementCreated",
      "outputs": [
        {
          "internalType": "bytes",
          "name": "",
          "type": "bytes"
        }
      ],
      "stateMutability": "view",
      "type": "function"
    },
    {
      "inputs": [
        {
          "internalType": "contract ISuperToken",
          "name": "",
          "type": "address"
        },
        {
          "internalType": "address",
          "name": "",
          "type": "address"
        },
        {
          "internalType": "bytes32",
          "name": "",
          "type": "bytes32"
        },
        {
          "internalType": "bytes",
          "name": "",
          "type": "bytes"
        },
        {
          "internalType": "bytes",
          "name": "",
          "type": "bytes"
        }
      ],
      "name": "beforeAgreementTerminated",
      "outputs": [
        {
          "internalType": "bytes",
          "name": "",
          "type": "bytes"
        }
      ],
      "stateMutability": "view",
      "type": "function"
    },
    {
      "inputs": [
        {
          "internalType": "contract ISuperToken",
          "name": "",
          "type": "address"
        },
        {
          "internalType": "address",
          "name": "",
          "type": "address"
        },
        {
          "internalType": "bytes32",
          "name": "",
          "type": "bytes32"
        },
        {
          "internalType": "bytes",
          "name": "",
          "type": "bytes"
        },
        {
          "internalType": "bytes",
          "name": "",
          "type": "bytes"
        }
      ],
      "name": "beforeAgreementUpdated",
      "outputs": [
        {
          "internalType": "bytes",
          "name": "",
          "type": "bytes"
        }
      ],
      "stateMutability": "view",
      "type": "function"
    },
    {
      "inputs": [],
      "name": "currentReceiver",
      "outputs": [
        {
          "internalType": "uint256",
          "name": "startTime",
          "type": "uint256"
        },
        {
          "internalType": "address",
          "name": "receiver",
          "type": "address"
        },
        {
          "internalType": "int96",
          "name": "flowRate",
          "type": "int96"
        }
      ],
      "stateMutability": "view",
      "type": "function"
    },
    {
      "inputs": [
        {
          "internalType": "uint256",
          "name": "tokenId",
          "type": "uint256"
        }
      ],
      "name": "getApproved",
      "outputs": [
        {
          "internalType": "address",
          "name": "",
          "type": "address"
        }
      ],
      "stateMutability": "view",
      "type": "function"
    },
    {
      "inputs": [
        {
          "internalType": "address",
          "name": "owner",
          "type": "address"
        },
        {
          "internalType": "address",
          "name": "operator",
          "type": "address"
        }
      ],
      "name": "isApprovedForAll",
      "outputs": [
        {
          "internalType": "bool",
          "name": "",
          "type": "bool"
        }
      ],
      "stateMutability": "view",
      "type": "function"
    },
    {
      "inputs": [],
      "name": "name",
      "outputs": [
        {
          "internalType": "string",
          "name": "",
          "type": "string"
        }
      ],
      "stateMutability": "view",
      "type": "function"
    },
    {
      "inputs": [
        {
          "internalType": "uint256",
          "name": "tokenId",
          "type": "uint256"
        }
      ],
      "name": "ownerOf",
      "outputs": [
        {
          "internalType": "address",
          "name": "",
          "type": "address"
        }
      ],
      "stateMutability": "view",
      "type": "function"
    },
    {
      "inputs": [
        {
          "internalType": "address",
          "name": "from",
          "type": "address"
        },
        {
          "internalType": "address",
          "name": "to",
          "type": "address"
        },
        {
          "internalType": "uint256",
          "name": "tokenId",
          "type": "uint256"
        }
      ],
      "name": "safeTransferFrom",
      "outputs": [],
      "stateMutability": "nonpayable",
      "type": "function"
    },
    {
      "inputs": [
        {
          "internalType": "address",
          "name": "from",
          "type": "address"
        },
        {
          "internalType": "address",
          "name": "to",
          "type": "address"
        },
        {
          "internalType": "uint256",
          "name": "tokenId",
          "type": "uint256"
        },
        {
          "internalType": "bytes",
          "name": "_data",
          "type": "bytes"
        }
      ],
      "name": "safeTransferFrom",
      "outputs": [],
      "stateMutability": "nonpayable",
      "type": "function"
    },
    {
      "inputs": [
        {
          "internalType": "address",
          "name": "operator",
          "type": "address"
        },
        {
          "internalType": "bool",
          "name": "approved",
          "type": "bool"
        }
      ],
      "name": "setApprovalForAll",
      "outputs": [],
      "stateMutability": "nonpayable",
      "type": "function"
    },
    {
      "inputs": [
        {
          "internalType": "bytes4",
          "name": "interfaceId",
          "type": "bytes4"
        }
      ],
      "name": "supportsInterface",
      "outputs": [
        {
          "internalType": "bool",
          "name": "",
          "type": "bool"
        }
      ],
      "stateMutability": "view",
      "type": "function"
    },
    {
      "inputs": [],
      "name": "symbol",
      "outputs": [
        {
          "internalType": "string",
          "name": "",
          "type": "string"
        }
      ],
      "stateMutability": "view",
      "type": "function"
    },
    {
      "inputs": [
        {
          "internalType": "uint256",
          "name": "index",
          "type": "uint256"
        }
      ],
      "name": "tokenByIndex",
      "outputs": [
        {
          "internalType": "uint256",
          "name": "",
          "type": "uint256"
        }
      ],
      "stateMutability": "view",
      "type": "function"
    },
    {
      "inputs": [
        {
          "internalType": "address",
          "name": "owner",
          "type": "address"
        },
        {
          "internalType": "uint256",
          "name": "index",
          "type": "uint256"
        }
      ],
      "name": "tokenOfOwnerByIndex",
      "outputs": [
        {
          "internalType": "uint256",
          "name": "",
          "type": "uint256"
        }
      ],
      "stateMutability": "view",
      "type": "function"
    },
    {
      "inputs": [
        {
          "internalType": "uint256",
          "name": "tokenId",
          "type": "uint256"
        }
      ],
      "name": "tokenURI",
      "outputs": [
        {
          "internalType": "string",
          "name": "",
          "type": "string"
        }
      ],
      "stateMutability": "view",
      "type": "function"
    },
    {
      "inputs": [],
      "name": "totalSupply",
      "outputs": [
        {
          "internalType": "uint256",
          "name": "",
          "type": "uint256"
        }
      ],
      "stateMutability": "view",
      "type": "function"
    },
    {
      "inputs": [
        {
          "internalType": "address",
          "name": "from",
          "type": "address"
        },
        {
          "internalType": "address",
          "name": "to",
          "type": "address"
        },
        {
          "internalType": "uint256",
          "name": "tokenId",
          "type": "uint256"
        }
      ],
      "name": "transferFrom",
      "outputs": [],
      "stateMutability": "nonpayable",
      "type": "function"
    }
  ],
  "bytecode": "0x60806040523480156200001157600080fd5b506040516200711438038062007114833981810160405260c08110156200003757600080fd5b8101908080519060200190929190805160405193929190846401000000008211156200006257600080fd5b838201915060208201858111156200007957600080fd5b82518660018202830111640100000000821117156200009757600080fd5b8083526020830192505050908051906020019080838360005b83811015620000cd578082015181840152602081019050620000b0565b50505050905090810190601f168015620000fb5780820380516001836020036101000a031916815260200191505b50604052602001805160405193929190846401000000008211156200011f57600080fd5b838201915060208201858111156200013657600080fd5b82518660018202830111640100000000821117156200015457600080fd5b8083526020830192505050908051906020019080838360005b838110156200018a5780820151818401526020810190506200016d565b50505050905090810190601f168015620001b85780820380516001836020036101000a031916815260200191505b50604052602001805190602001909291908051906020019092919080519060200190929190505050828282888888620001fe6301ffc9a760e01b620006ec60201b60201c565b8160069080519060200190620002169291906200145e565b5080600790805190602001906200022f9291906200145e565b50620002486380ac58cd60e01b620006ec60201b60201c565b62000260635b5e139f60e01b620006ec60201b60201c565b6200027863780e9d6360e01b620006ec60201b60201c565b5050600073ffffffffffffffffffffffffffffffffffffffff168473ffffffffffffffffffffffffffffffffffffffff161415620002ed576040517f08c379a0000000000000000000000000000000000000000000000000000000008152600401620002e49062001bf0565b60405180910390fd5b600073ffffffffffffffffffffffffffffffffffffffff168373ffffffffffffffffffffffffffffffffffffffff16141562000360576040517f08c379a0000000000000000000000000000000000000000000000000000000008152600401620003579062001bac565b60405180910390fd5b600073ffffffffffffffffffffffffffffffffffffffff168273ffffffffffffffffffffffffffffffffffffffff161415620003d3576040517f08c379a0000000000000000000000000000000000000000000000000000000008152600401620003ca9062001b46565b60405180910390fd5b600073ffffffffffffffffffffffffffffffffffffffff168173ffffffffffffffffffffffffffffffffffffffff16141562000446576040517f08c379a00000000000000000000000000000000000000000000000000000000081526004016200043d9062001b68565b60405180910390fd5b8373ffffffffffffffffffffffffffffffffffffffff16633ca3ad4e826040518263ffffffff1660e01b815260040162000481919062001a17565b60206040518083038186803b1580156200049a57600080fd5b505afa158015620004af573d6000803e3d6000fd5b505050506040513d601f19601f82011682018060405250810190620004d59190620015cb565b1562000518576040517f08c379a00000000000000000000000000000000000000000000000000000000081526004016200050f9062001c12565b60405180910390fd5b83600a60006101000a81548173ffffffffffffffffffffffffffffffffffffffff021916908373ffffffffffffffffffffffffffffffffffffffff16021790555082600b60006101000a81548173ffffffffffffffffffffffffffffffffffffffff021916908373ffffffffffffffffffffffffffffffffffffffff16021790555081600c60006101000a81548173ffffffffffffffffffffffffffffffffffffffff021916908373ffffffffffffffffffffffffffffffffffffffff16021790555080600d60006101000a81548173ffffffffffffffffffffffffffffffffffffffff021916908373ffffffffffffffffffffffffffffffffffffffff160217905550600064100000000064040000000064010000000060011717179050600a60009054906101000a900473ffffffffffffffffffffffffffffffffffffffff1673ffffffffffffffffffffffffffffffffffffffff1663ad3915c8826040518263ffffffff1660e01b815260040162000694919062001c34565b600060405180830381600087803b158015620006af57600080fd5b505af1158015620006c4573d6000803e3d6000fd5b505050505050505050620006e0866001620007f560201b60201c565b50505050505062001e4b565b63ffffffff60e01b817bffffffffffffffffffffffffffffffffffffffffffffffffffffffff1916141562000789576040517f08c379a000000000000000000000000000000000000000000000000000000000815260040180806020018281038252601c8152602001807f4552433136353a20696e76616c696420696e746572666163652069640000000081525060200191505060405180910390fd5b6001600080837bffffffffffffffffffffffffffffffffffffffffffffffffffffffff19167bffffffffffffffffffffffffffffffffffffffffffffffffffffffff1916815260200190815260200160002060006101000a81548160ff02191690831515021790555050565b600073ffffffffffffffffffffffffffffffffffffffff168273ffffffffffffffffffffffffffffffffffffffff16141562000899576040517f08c379a00000000000000000000000000000000000000000000000000000000081526004018080602001828103825260208152602001807f4552433732313a206d696e7420746f20746865207a65726f206164647265737381525060200191505060405180910390fd5b620008aa8162000a0960201b60201c565b156200091e576040517f08c379a000000000000000000000000000000000000000000000000000000000815260040180806020018281038252601c8152602001807f4552433732313a20746f6b656e20616c7265616479206d696e7465640000000081525060200191505060405180910390fd5b620009326000838362000a2d60201b60201c565b6200098a81600160008573ffffffffffffffffffffffffffffffffffffffff1673ffffffffffffffffffffffffffffffffffffffff16815260200190815260200160002062000a4360201b6200255f1790919060201c565b50620009a88183600262000a6560201b62002579179092919060201c565b50808273ffffffffffffffffffffffffffffffffffffffff16600073ffffffffffffffffffffffffffffffffffffffff167fddf252ad1be2c89b69c2b068fc378daa952ba7f163c4a11628f55a4df523b3ef60405160405180910390a45050565b600062000a2682600262000aa260201b620025ae1790919060201c565b9050919050565b62000a3e8262000ac460201b60201c565b505050565b600062000a5d836000018360001b620012bf60201b60201c565b905092915050565b600062000a99846000018460001b8473ffffffffffffffffffffffffffffffffffffffff1660001b6200133960201b60201c565b90509392505050565b600062000abc836000018360001b6200141860201b60201c565b905092915050565b600073ffffffffffffffffffffffffffffffffffffffff168173ffffffffffffffffffffffffffffffffffffffff16141562000b37576040517f08c379a000000000000000000000000000000000000000000000000000000000815260040162000b2e9062001b8a565b60405180910390fd5b600a60009054906101000a900473ffffffffffffffffffffffffffffffffffffffff1673ffffffffffffffffffffffffffffffffffffffff16633ca3ad4e826040518263ffffffff1660e01b815260040162000b94919062001a17565b60206040518083038186803b15801562000bad57600080fd5b505afa15801562000bc2573d6000803e3d6000fd5b505050506040513d601f19601f8201168201806040525081019062000be89190620015cb565b1562000c2b576040517f08c379a000000000000000000000000000000000000000000000000000000000815260040162000c229062001bce565b60405180910390fd5b600d60009054906101000a900473ffffffffffffffffffffffffffffffffffffffff1673ffffffffffffffffffffffffffffffffffffffff168173ffffffffffffffffffffffffffffffffffffffff16141562000c8857620012bc565b6000600b60009054906101000a900473ffffffffffffffffffffffffffffffffffffffff1673ffffffffffffffffffffffffffffffffffffffff1663e6a1e888600c60009054906101000a900473ffffffffffffffffffffffffffffffffffffffff1630600d60009054906101000a900473ffffffffffffffffffffffffffffffffffffffff166040518463ffffffff1660e01b815260040162000d2f9392919062001a61565b60806040518083038186803b15801562000d4857600080fd5b505afa15801562000d5d573d6000803e3d6000fd5b505050506040513d601f19601f8201168201806040525081019062000d83919062001668565b5050915050600081600b0b13156200121e57600a60009054906101000a900473ffffffffffffffffffffffffffffffffffffffff1673ffffffffffffffffffffffffffffffffffffffff166339255d5b600b60009054906101000a900473ffffffffffffffffffffffffffffffffffffffff1663b4b333c660e01b600c60009054906101000a900473ffffffffffffffffffffffffffffffffffffffff1630600d60009054906101000a900473ffffffffffffffffffffffffffffffffffffffff16600067ffffffffffffffff8111801562000e5e57600080fd5b506040519080825280601f01601f19166020018201604052801562000e925781602001600182028036833780820191505090505b5060405160240162000ea8949392919062001a9e565b604051602081830303815290604052907bffffffffffffffffffffffffffffffffffffffffffffffffffffffff19166020820180517bffffffffffffffffffffffffffffffffffffffffffffffffffffffff83818316178352505050506040518363ffffffff1660e01b815260040162000f24929190620019ce565b600060405180830381600087803b15801562000f3f57600080fd5b505af115801562000f54573d6000803e3d6000fd5b505050506040513d6000823e3d601f19601f8201168201806040525081019062000f7f9190620015f7565b50600a60009054906101000a900473ffffffffffffffffffffffffffffffffffffffff1673ffffffffffffffffffffffffffffffffffffffff166339255d5b600b60009054906101000a900473ffffffffffffffffffffffffffffffffffffffff166362fc305e60e01b600c60009054906101000a900473ffffffffffffffffffffffffffffffffffffffff1686600b60009054906101000a900473ffffffffffffffffffffffffffffffffffffffff1673ffffffffffffffffffffffffffffffffffffffff1663e8e7e2d1600c60009054906101000a900473ffffffffffffffffffffffffffffffffffffffff16306040518363ffffffff1660e01b81526004016200108e92919062001a34565b60206040518083038186803b158015620010a757600080fd5b505afa158015620010bc573d6000803e3d6000fd5b505050506040513d601f19601f82011682018060405250810190620010e291906200163c565b600067ffffffffffffffff81118015620010fb57600080fd5b506040519080825280601f01601f1916602001820160405280156200112f5781602001600182028036833780820191505090505b5060405160240162001145949392919062001af2565b604051602081830303815290604052907bffffffffffffffffffffffffffffffffffffffffffffffffffffffff19166020820180517bffffffffffffffffffffffffffffffffffffffffffffffffffffffff83818316178352505050506040518363ffffffff1660e01b8152600401620011c1929190620019ce565b600060405180830381600087803b158015620011dc57600080fd5b505af1158015620011f1573d6000803e3d6000fd5b505050506040513d6000823e3d601f19601f820116820180604052508101906200121c9190620015f7565b505b81600d60006101000a81548173ffffffffffffffffffffffffffffffffffffffff021916908373ffffffffffffffffffffffffffffffffffffffff1602179055507f7dfb1d59db37a3fd2e15e796c189dcab714cdbb18650d68a1de58f8fa60718c9600d60009054906101000a900473ffffffffffffffffffffffffffffffffffffffff16604051620012b29190620019b1565b60405180910390a1505b50565b6000620012d383836200143b60201b60201c565b6200132e57826000018290806001815401808255809150506001900390600052602060002001600090919091909150558260000180549050836001016000848152602001908152602001600020819055506001905062001333565b600090505b92915050565b6000808460010160008581526020019081526020016000205490506000811415620013e25784600001604051806040016040528086815260200185815250908060018154018082558091505060019003906000526020600020906002020160009091909190915060008201518160000155602082015181600101555050846000018054905085600101600086815260200190815260200160002081905550600191505062001411565b82856000016001830381548110620013f657fe5b90600052602060002090600202016001018190555060009150505b9392505050565b600080836001016000848152602001908152602001600020541415905092915050565b600080836001016000848152602001908152602001600020541415905092915050565b828054600181600116156101000203166002900490600052602060002090601f016020900481019282620014965760008555620014e2565b82601f10620014b157805160ff1916838001178555620014e2565b82800160010185558215620014e2579182015b82811115620014e1578251825591602001919060010190620014c4565b5b509050620014f19190620014f5565b5090565b5b8082111562001510576000816000905550600101620014f6565b5090565b60006200152b620015258462001c85565b62001c51565b9050828152602081018484840111156200154457600080fd5b6200155184828562001db4565b509392505050565b6000815190506200156a8162001dfd565b92915050565b600082601f8301126200158257600080fd5b81516200159484826020860162001514565b91505092915050565b600081519050620015ae8162001e17565b92915050565b600081519050620015c58162001e31565b92915050565b600060208284031215620015de57600080fd5b6000620015ee8482850162001559565b91505092915050565b6000602082840312156200160a57600080fd5b600082015167ffffffffffffffff8111156200162557600080fd5b620016338482850162001570565b91505092915050565b6000602082840312156200164f57600080fd5b60006200165f848285016200159d565b91505092915050565b600080600080608085870312156200167f57600080fd5b60006200168f87828801620015b4565b9450506020620016a2878288016200159d565b9350506040620016b587828801620015b4565b9250506060620016c887828801620015b4565b91505092959194509250565b620016df8162001ce5565b82525050565b6000620016f28262001cb8565b620016fe818562001cc3565b93506200171081856020860162001db4565b6200171b8162001dec565b840191505092915050565b620017318162001d3c565b82525050565b620017428162001d64565b82525050565b620017538162001d8c565b82525050565b620017648162001d05565b82525050565b600062001779601d8362001cd4565b91507f6163636570746564546f6b656e206973207a65726f20616464726573730000006000830152602082019050919050565b6000620017bb60188362001cd4565b91507f7265636569766572206973207a65726f206164647265737300000000000000006000830152602082019050919050565b6000620017fd60028362001cc3565b91507f30780000000000000000000000000000000000000000000000000000000000006000830152602082019050919050565b60006200183f601c8362001cd4565b91507f4e6577207265636569766572206973207a65726f2061646472657373000000006000830152602082019050919050565b60006200188160138362001cd4565b91507f636661206973207a65726f2061646472657373000000000000000000000000006000830152602082019050919050565b6000620018c360228362001cd4565b91507f4e65772072656365697665722063616e206e6f7420626520612073757065724160008301527f70700000000000000000000000000000000000000000000000000000000000006020830152604082019050919050565b60006200192b60148362001cd4565b91507f686f7374206973207a65726f20616464726573730000000000000000000000006000830152602082019050919050565b60006200196d60128362001cd4565b91507f726563656976657220697320616e2061707000000000000000000000000000006000830152602082019050919050565b620019ab8162001d32565b82525050565b6000602082019050620019c86000830184620016d4565b92915050565b6000606082019050620019e5600083018562001726565b8181036020830152620019f98184620016e5565b9050818103604083015262001a0e81620017ee565b90509392505050565b600060208201905062001a2e600083018462001737565b92915050565b600060408201905062001a4b600083018562001748565b62001a5a6020830184620016d4565b9392505050565b600060608201905062001a78600083018662001748565b62001a876020830185620016d4565b62001a966040830184620016d4565b949350505050565b600060808201905062001ab5600083018762001748565b62001ac46020830186620016d4565b62001ad36040830185620016d4565b818103606083015262001ae78184620016e5565b905095945050505050565b600060808201905062001b09600083018762001748565b62001b186020830186620016d4565b62001b27604083018562001759565b818103606083015262001b3b8184620016e5565b905095945050505050565b6000602082019050818103600083015262001b61816200176a565b9050919050565b6000602082019050818103600083015262001b8381620017ac565b9050919050565b6000602082019050818103600083015262001ba58162001830565b9050919050565b6000602082019050818103600083015262001bc78162001872565b9050919050565b6000602082019050818103600083015262001be981620018b4565b9050919050565b6000602082019050818103600083015262001c0b816200191c565b9050919050565b6000602082019050818103600083015262001c2d816200195e565b9050919050565b600060208201905062001c4b6000830184620019a0565b92915050565b6000604051905081810181811067ffffffffffffffff8211171562001c7b5762001c7a62001dea565b5b8060405250919050565b600067ffffffffffffffff82111562001ca35762001ca262001dea565b5b601f19601f8301169050602081019050919050565b600081519050919050565b600082825260208201905092915050565b600082825260208201905092915050565b600062001cf28262001d12565b9050919050565b60008115159050919050565b600081600b0b9050919050565b600073ffffffffffffffffffffffffffffffffffffffff82169050919050565b6000819050919050565b600062001d498262001d50565b9050919050565b600062001d5d8262001d12565b9050919050565b600062001d718262001d78565b9050919050565b600062001d858262001d12565b9050919050565b600062001d998262001da0565b9050919050565b600062001dad8262001d12565b9050919050565b60005b8381101562001dd457808201518184015260208101905062001db7565b8381111562001de4576000848401525b50505050565bfe5b6000601f19601f8301169050919050565b62001e088162001cf9565b811462001e1457600080fd5b50565b62001e228162001d05565b811462001e2e57600080fd5b50565b62001e3c8162001d32565b811462001e4857600080fd5b50565b6152b98062001e5b6000396000f3fe608060405234801561001057600080fd5b50600436106101585760003560e01c806353c11f99116100c357806395d89b411161007c57806395d89b4114610e7e578063a22cb46514610f01578063b88d4fde14610f51578063c87b56dd14611056578063d86ed3e5146110fd578063e985e9c5146112e357610158565b806353c11f99146108435780635f9e7d7714610a295780636352211e14610bba5780636c0360eb14610c1257806370a0823114610c95578063884d1f4014610ced57610158565b806323b872dd1161011557806323b872dd146104ed57806328d2bf941461055b5780632f745c59146105a057806330d9c9151461060257806342842e0e146107935780634f6ccce71461080157610158565b806301ffc9a71461015d57806306fdde03146101c0578063081812fc14610243578063095ea7b31461029b57806318160ddd146102e9578063230dbd2914610307575b600080fd5b6101a86004803603602081101561017357600080fd5b8101908080357bffffffffffffffffffffffffffffffffffffffffffffffffffffffff1916906020019092919050505061135d565b60405180821515815260200191505060405180910390f35b6101c86113c4565b6040518080602001828103825283818151815260200191508051906020019080838360005b838110156102085780820151818401526020810190506101ed565b50505050905090810190601f1680156102355780820380516001836020036101000a031916815260200191505b509250505060405180910390f35b61026f6004803603602081101561025957600080fd5b8101908080359060200190929190505050611466565b604051808273ffffffffffffffffffffffffffffffffffffffff16815260200191505060405180910390f35b6102e7600480360360408110156102b157600080fd5b81019080803573ffffffffffffffffffffffffffffffffffffffff16906020019092919080359060200190929190505050611501565b005b6102f1611645565b6040518082815260200191505060405180910390f35b610472600480360360c081101561031d57600080fd5b81019080803573ffffffffffffffffffffffffffffffffffffffff169060200190929190803573ffffffffffffffffffffffffffffffffffffffff169060200190929190803590602001909291908035906020019064010000000081111561038457600080fd5b82018360208201111561039657600080fd5b803590602001918460018302840111640100000000831117156103b857600080fd5b9091929391929390803590602001906401000000008111156103d957600080fd5b8201836020820111156103eb57600080fd5b8035906020019184600183028401116401000000008311171561040d57600080fd5b90919293919293908035906020019064010000000081111561042e57600080fd5b82018360208201111561044057600080fd5b8035906020019184600183028401116401000000008311171561046257600080fd5b9091929391929390505050611656565b6040518080602001828103825283818151815260200191508051906020019080838360005b838110156104b2578082015181840152602081019050610497565b50505050905090810190601f1680156104df5780820380516001836020036101000a031916815260200191505b509250505060405180910390f35b6105596004803603606081101561050357600080fd5b81019080803573ffffffffffffffffffffffffffffffffffffffff169060200190929190803573ffffffffffffffffffffffffffffffffffffffff16906020019092919080359060200190929190505050611795565b005b61056361180b565b604051808481526020018373ffffffffffffffffffffffffffffffffffffffff16815260200182600b0b8152602001935050505060405180910390f35b6105ec600480360360408110156105b657600080fd5b81019080803573ffffffffffffffffffffffffffffffffffffffff1690602001909291908035906020019092919050505061198e565b6040518082815260200191505060405180910390f35b610718600480360360a081101561061857600080fd5b81019080803573ffffffffffffffffffffffffffffffffffffffff169060200190929190803573ffffffffffffffffffffffffffffffffffffffff169060200190929190803590602001909291908035906020019064010000000081111561067f57600080fd5b82018360208201111561069157600080fd5b803590602001918460018302840111640100000000831117156106b357600080fd5b9091929391929390803590602001906401000000008111156106d457600080fd5b8201836020820111156106e657600080fd5b8035906020019184600183028401116401000000008311171561070857600080fd5b90919293919293905050506119e9565b6040518080602001828103825283818151815260200191508051906020019080838360005b8381101561075857808201518184015260208101905061073d565b50505050905090810190601f1680156107855780820380516001836020036101000a031916815260200191505b509250505060405180910390f35b6107ff600480360360608110156107a957600080fd5b81019080803573ffffffffffffffffffffffffffffffffffffffff169060200190929190803573ffffffffffffffffffffffffffffffffffffffff16906020019092919080359060200190929190505050611a3c565b005b61082d6004803603602081101561081757600080fd5b8101908080359060200190929190505050611a5c565b6040518082815260200191505060405180910390f35b6109ae600480360360c081101561085957600080fd5b81019080803573ffffffffffffffffffffffffffffffffffffffff169060200190929190803573ffffffffffffffffffffffffffffffffffffffff16906020019092919080359060200190929190803590602001906401000000008111156108c057600080fd5b8201836020820111156108d257600080fd5b803590602001918460018302840111640100000000831117156108f457600080fd5b90919293919293908035906020019064010000000081111561091557600080fd5b82018360208201111561092757600080fd5b8035906020019184600183028401116401000000008311171561094957600080fd5b90919293919293908035906020019064010000000081111561096a57600080fd5b82018360208201111561097c57600080fd5b8035906020019184600183028401116401000000008311171561099e57600080fd5b9091929391929390505050611a7f565b6040518080602001828103825283818151815260200191508051906020019080838360005b838110156109ee5780820151818401526020810190506109d3565b50505050905090810190601f168015610a1b5780820380516001836020036101000a031916815260200191505b509250505060405180910390f35b610b3f600480360360a0811015610a3f57600080fd5b81019080803573ffffffffffffffffffffffffffffffffffffffff169060200190929190803573ffffffffffffffffffffffffffffffffffffffff1690602001909291908035906020019092919080359060200190640100000000811115610aa657600080fd5b820183602082011115610ab857600080fd5b80359060200191846001830284011164010000000083111715610ada57600080fd5b909192939192939080359060200190640100000000811115610afb57600080fd5b820183602082011115610b0d57600080fd5b80359060200191846001830284011164010000000083111715610b2f57600080fd5b9091929391929390505050611b97565b6040518080602001828103825283818151815260200191508051906020019080838360005b83811015610b7f578082015181840152602081019050610b64565b50505050905090810190601f168015610bac5780820380516001836020036101000a031916815260200191505b509250505060405180910390f35b610be660048036036020811015610bd057600080fd5b8101908080359060200190929190505050611bea565b604051808273ffffffffffffffffffffffffffffffffffffffff16815260200191505060405180910390f35b610c1a611c21565b6040518080602001828103825283818151815260200191508051906020019080838360005b83811015610c5a578082015181840152602081019050610c3f565b50505050905090810190601f168015610c875780820380516001836020036101000a031916815260200191505b509250505060405180910390f35b610cd760048036036020811015610cab57600080fd5b81019080803573ffffffffffffffffffffffffffffffffffffffff169060200190929190505050611cc3565b6040518082815260200191505060405180910390f35b610e03600480360360a0811015610d0357600080fd5b81019080803573ffffffffffffffffffffffffffffffffffffffff169060200190929190803573ffffffffffffffffffffffffffffffffffffffff1690602001909291908035906020019092919080359060200190640100000000811115610d6a57600080fd5b820183602082011115610d7c57600080fd5b80359060200191846001830284011164010000000083111715610d9e57600080fd5b909192939192939080359060200190640100000000811115610dbf57600080fd5b820183602082011115610dd157600080fd5b80359060200191846001830284011164010000000083111715610df357600080fd5b9091929391929390505050611d98565b6040518080602001828103825283818151815260200191508051906020019080838360005b83811015610e43578082015181840152602081019050610e28565b50505050905090810190601f168015610e705780820380516001836020036101000a031916815260200191505b509250505060405180910390f35b610e86611deb565b6040518080602001828103825283818151815260200191508051906020019080838360005b83811015610ec6578082015181840152602081019050610eab565b50505050905090810190601f168015610ef35780820380516001836020036101000a031916815260200191505b509250505060405180910390f35b610f4f60048036036040811015610f1757600080fd5b81019080803573ffffffffffffffffffffffffffffffffffffffff169060200190929190803515159060200190929190505050611e8d565b005b61105460048036036080811015610f6757600080fd5b81019080803573ffffffffffffffffffffffffffffffffffffffff169060200190929190803573ffffffffffffffffffffffffffffffffffffffff1690602001909291908035906020019092919080359060200190640100000000811115610fce57600080fd5b820183602082011115610fe057600080fd5b8035906020019184600183028401116401000000008311171561100257600080fd5b91908080601f016020809104026020016040519081016040528093929190818152602001838380828437600081840152601f19601f820116905080830192505050505050509192919290505050612043565b005b6110826004803603602081101561106c57600080fd5b81019080803590602001909291905050506120bb565b6040518080602001828103825283818151815260200191508051906020019080838360005b838110156110c25780820151818401526020810190506110a7565b50505050905090810190601f1680156110ef5780820380516001836020036101000a031916815260200191505b509250505060405180910390f35b611268600480360360c081101561111357600080fd5b81019080803573ffffffffffffffffffffffffffffffffffffffff169060200190929190803573ffffffffffffffffffffffffffffffffffffffff169060200190929190803590602001909291908035906020019064010000000081111561117a57600080fd5b82018360208201111561118c57600080fd5b803590602001918460018302840111640100000000831117156111ae57600080fd5b9091929391929390803590602001906401000000008111156111cf57600080fd5b8201836020820111156111e157600080fd5b8035906020019184600183028401116401000000008311171561120357600080fd5b90919293919293908035906020019064010000000081111561122457600080fd5b82018360208201111561123657600080fd5b8035906020019184600183028401116401000000008311171561125857600080fd5b909192939192939050505061238c565b6040518080602001828103825283818151815260200191508051906020019080838360005b838110156112a857808201518184015260208101905061128d565b50505050905090810190601f1680156112d55780820380516001836020036101000a031916815260200191505b509250505060405180910390f35b611345600480360360408110156112f957600080fd5b81019080803573ffffffffffffffffffffffffffffffffffffffff169060200190929190803573ffffffffffffffffffffffffffffffffffffffff1690602001909291905050506124cb565b60405180821515815260200191505060405180910390f35b6000806000837bffffffffffffffffffffffffffffffffffffffffffffffffffffffff19167bffffffffffffffffffffffffffffffffffffffffffffffffffffffff1916815260200190815260200160002060009054906101000a900460ff169050919050565b606060068054600181600116156101000203166002900480601f01602080910402602001604051908101604052809291908181526020018280546001816001161561010002031660029004801561145c5780601f106114315761010080835404028352916020019161145c565b820191906000526020600020905b81548152906001019060200180831161143f57829003601f168201915b5050505050905090565b6000611471826125c8565b6114c6576040517f08c379a000000000000000000000000000000000000000000000000000000000815260040180806020018281038252602c815260200180615150602c913960400191505060405180910390fd5b6004600083815260200190815260200160002060009054906101000a900473ffffffffffffffffffffffffffffffffffffffff169050919050565b600061150c82611bea565b90508073ffffffffffffffffffffffffffffffffffffffff168373ffffffffffffffffffffffffffffffffffffffff161415611593576040517f08c379a00000000000000000000000000000000000000000000000000000000081526004018080602001828103825260218152602001806151d46021913960400191505060405180910390fd5b8073ffffffffffffffffffffffffffffffffffffffff166115b26125e5565b73ffffffffffffffffffffffffffffffffffffffff1614806115e157506115e0816115db6125e5565b6124cb565b5b611636576040517f08c379a00000000000000000000000000000000000000000000000000000000081526004018080602001828103825260388152602001806150a36038913960400191505060405180910390fd5b61164083836125ed565b505050565b600061165160026126a6565b905090565b60608989611663826126bb565b6116a2576040517f08c379a000000000000000000000000000000000000000000000000000000000815260040161169990614d2a565b60405180910390fd5b6116ab81612715565b6116ea576040517f08c379a00000000000000000000000000000000000000000000000000000000081526004016116e190614d0a565b60405180910390fd5b600a60009054906101000a900473ffffffffffffffffffffffffffffffffffffffff1673ffffffffffffffffffffffffffffffffffffffff163373ffffffffffffffffffffffffffffffffffffffff161461177a576040517f08c379a000000000000000000000000000000000000000000000000000000000815260040161177190614d4a565b60405180910390fd5b61178485856127be565b925050509998505050505050505050565b6117a66117a06125e5565b82612fc2565b6117fb576040517f08c379a00000000000000000000000000000000000000000000000000000000081526004018080602001828103825260318152602001806152246031913960400191505060405180910390fd5b6118068383836130b6565b505050565b60008060008073ffffffffffffffffffffffffffffffffffffffff16600d60009054906101000a900473ffffffffffffffffffffffffffffffffffffffff1673ffffffffffffffffffffffffffffffffffffffff161461198957600b60009054906101000a900473ffffffffffffffffffffffffffffffffffffffff1673ffffffffffffffffffffffffffffffffffffffff1663e6a1e888600c60009054906101000a900473ffffffffffffffffffffffffffffffffffffffff1630600d60009054906101000a900473ffffffffffffffffffffffffffffffffffffffff166040518463ffffffff1660e01b815260040161190893929190614c3b565b60806040518083038186803b15801561192057600080fd5b505afa158015611934573d6000803e3d6000fd5b505050506040513d601f19601f820116820180604052508101906119589190614868565b9050508092508194505050600d60009054906101000a900473ffffffffffffffffffffffffffffffffffffffff1691505b909192565b60006119e182600160008673ffffffffffffffffffffffffffffffffffffffff1673ffffffffffffffffffffffffffffffffffffffff1681526020019081526020016000206132f990919063ffffffff16565b905092915050565b60606040517f08c379a000000000000000000000000000000000000000000000000000000000815260040180806020018281038252602f815260200180615255602f913960400191505060405180910390fd5b611a5783838360405180602001604052806000815250612043565b505050565b600080611a7383600261331390919063ffffffff16565b50905080915050919050565b6060600a60009054906101000a900473ffffffffffffffffffffffffffffffffffffffff1673ffffffffffffffffffffffffffffffffffffffff163373ffffffffffffffffffffffffffffffffffffffff1614611b11576040517f08c379a0000000000000000000000000000000000000000000000000000000008152600401611b0890614d4a565b60405180910390fd5b611b1a8a6126bb565b1580611b2c5750611b2a89612715565b155b15611b7d5782828080601f016020809104026020016040519081016040528093929190818152602001838380828437600081840152601f19601f820116905080830192505050505050509050611b8a565b611b8783836127be565b90505b9998505050505050505050565b60606040517f08c379a0000000000000000000000000000000000000000000000000000000008152600401808060200182810382526033815260200180614ffa6033913960400191505060405180910390fd5b6000611c1a8260405180606001604052806029815260200161510560299139600261333f9092919063ffffffff16565b9050919050565b606060098054600181600116156101000203166002900480601f016020809104026020016040519081016040528092919081815260200182805460018160011615610100020316600290048015611cb95780601f10611c8e57610100808354040283529160200191611cb9565b820191906000526020600020905b815481529060010190602001808311611c9c57829003601f168201915b5050505050905090565b60008073ffffffffffffffffffffffffffffffffffffffff168273ffffffffffffffffffffffffffffffffffffffff161415611d4a576040517f08c379a000000000000000000000000000000000000000000000000000000000815260040180806020018281038252602a8152602001806150db602a913960400191505060405180910390fd5b611d91600160008473ffffffffffffffffffffffffffffffffffffffff1673ffffffffffffffffffffffffffffffffffffffff16815260200190815260200160002061335e565b9050919050565b60606040517f08c379a000000000000000000000000000000000000000000000000000000000815260040180806020018281038252602f8152602001806151f5602f913960400191505060405180910390fd5b606060078054600181600116156101000203166002900480601f016020809104026020016040519081016040528092919081815260200182805460018160011615610100020316600290048015611e835780601f10611e5857610100808354040283529160200191611e83565b820191906000526020600020905b815481529060010190602001808311611e6657829003601f168201915b5050505050905090565b611e956125e5565b73ffffffffffffffffffffffffffffffffffffffff168273ffffffffffffffffffffffffffffffffffffffff161415611f36576040517f08c379a00000000000000000000000000000000000000000000000000000000081526004018080602001828103825260198152602001807f4552433732313a20617070726f766520746f2063616c6c65720000000000000081525060200191505060405180910390fd5b8060056000611f436125e5565b73ffffffffffffffffffffffffffffffffffffffff1673ffffffffffffffffffffffffffffffffffffffff16815260200190815260200160002060008473ffffffffffffffffffffffffffffffffffffffff1673ffffffffffffffffffffffffffffffffffffffff16815260200190815260200160002060006101000a81548160ff0219169083151502179055508173ffffffffffffffffffffffffffffffffffffffff16611ff06125e5565b73ffffffffffffffffffffffffffffffffffffffff167f17307eab39ab6107e8899845ad3d59bd9653f200f220920489ca2b5937696c318360405180821515815260200191505060405180910390a35050565b61205461204e6125e5565b83612fc2565b6120a9576040517f08c379a00000000000000000000000000000000000000000000000000000000081526004018080602001828103825260318152602001806152246031913960400191505060405180910390fd5b6120b584848484613373565b50505050565b60606120c6826125c8565b61211b576040517f08c379a000000000000000000000000000000000000000000000000000000000815260040180806020018281038252602f8152602001806151a5602f913960400191505060405180910390fd5b6000600860008481526020019081526020016000208054600181600116156101000203166002900480601f0160208091040260200160405190810160405280929190818152602001828054600181600116156101000203166002900480156121c45780601f10612199576101008083540402835291602001916121c4565b820191906000526020600020905b8154815290600101906020018083116121a757829003601f168201915b5050505050905060006121d5611c21565b90506000815114156121eb578192505050612387565b6000825111156122bc5780826040516020018083805190602001908083835b6020831061222d578051825260208201915060208101905060208303925061220a565b6001836020036101000a03801982511681845116808217855250505050505090500182805190602001908083835b6020831061227e578051825260208201915060208101905060208303925061225b565b6001836020036101000a0380198251168184511680821785525050505050509050019250505060405160208183030381529060405292505050612387565b806122c6856133e5565b6040516020018083805190602001908083835b602083106122fc57805182526020820191506020810190506020830392506122d9565b6001836020036101000a03801982511681845116808217855250505050505090500182805190602001908083835b6020831061234d578051825260208201915060208101905060208303925061232a565b6001836020036101000a03801982511681845116808217855250505050505090500192505050604051602081830303815290604052925050505b919050565b60608989612399826126bb565b6123d8576040517f08c379a00000000000000000000000000000000000000000000000000000000081526004016123cf90614d2a565b60405180910390fd5b6123e181612715565b612420576040517f08c379a000000000000000000000000000000000000000000000000000000000815260040161241790614d0a565b60405180910390fd5b600a60009054906101000a900473ffffffffffffffffffffffffffffffffffffffff1673ffffffffffffffffffffffffffffffffffffffff163373ffffffffffffffffffffffffffffffffffffffff16146124b0576040517f08c379a00000000000000000000000000000000000000000000000000000000081526004016124a790614d4a565b60405180910390fd5b6124ba85856127be565b925050509998505050505050505050565b6000600560008473ffffffffffffffffffffffffffffffffffffffff1673ffffffffffffffffffffffffffffffffffffffff16815260200190815260200160002060008373ffffffffffffffffffffffffffffffffffffffff1673ffffffffffffffffffffffffffffffffffffffff16815260200190815260200160002060009054906101000a900460ff16905092915050565b6000612571836000018360001b61352c565b905092915050565b60006125a5846000018460001b8473ffffffffffffffffffffffffffffffffffffffff1660001b61359c565b90509392505050565b60006125c0836000018360001b613678565b905092915050565b60006125de8260026125ae90919063ffffffff16565b9050919050565b600033905090565b816004600083815260200190815260200160002060006101000a81548173ffffffffffffffffffffffffffffffffffffffff021916908373ffffffffffffffffffffffffffffffffffffffff160217905550808273ffffffffffffffffffffffffffffffffffffffff1661266083611bea565b73ffffffffffffffffffffffffffffffffffffffff167f8c5be1e5ebec7d5bd14f71427d1e84f3dd0314c0f7b2291e5b200ac8c7c3b92560405160405180910390a45050565b60006126b48260000161369b565b9050919050565b6000600c60009054906101000a900473ffffffffffffffffffffffffffffffffffffffff1673ffffffffffffffffffffffffffffffffffffffff168273ffffffffffffffffffffffffffffffffffffffff16149050919050565b60007fa9214cc96615e0085d3bb077758db69497dc2dce3b2b1e97bc93c3d18d83efd38273ffffffffffffffffffffffffffffffffffffffff16637730599e6040518163ffffffff1660e01b815260040160206040518083038186803b15801561277e57600080fd5b505afa158015612792573d6000803e3d6000fd5b505050506040513d601f19601f820116820180604052508101906127b69190614769565b149050919050565b606082828080601f016020809104026020016040519081016040528093929190818152602001838380828437600081840152601f19601f8201169050808301925050505050505090506000600b60009054906101000a900473ffffffffffffffffffffffffffffffffffffffff1673ffffffffffffffffffffffffffffffffffffffff1663e8e7e2d1600c60009054906101000a900473ffffffffffffffffffffffffffffffffffffffff16306040518363ffffffff1660e01b8152600401612888929190614c12565b60206040518083038186803b1580156128a057600080fd5b505afa1580156128b4573d6000803e3d6000fd5b505050506040513d601f19601f820116820180604052508101906128d8919061483f565b90506000600b60009054906101000a900473ffffffffffffffffffffffffffffffffffffffff1673ffffffffffffffffffffffffffffffffffffffff1663e6a1e888600c60009054906101000a900473ffffffffffffffffffffffffffffffffffffffff1630600d60009054906101000a900473ffffffffffffffffffffffffffffffffffffffff166040518463ffffffff1660e01b815260040161297f93929190614c3b565b60806040518083038186803b15801561299757600080fd5b505afa1580156129ab573d6000803e3d6000fd5b505050506040513d601f19601f820116820180604052508101906129cf9190614868565b5050915050600081830190506000600b0b81600b0b1415612bd657600a60009054906101000a900473ffffffffffffffffffffffffffffffffffffffff1673ffffffffffffffffffffffffffffffffffffffff16634329d293600b60009054906101000a900473ffffffffffffffffffffffffffffffffffffffff1663b4b333c660e01b600c60009054906101000a900473ffffffffffffffffffffffffffffffffffffffff1630600d60009054906101000a900473ffffffffffffffffffffffffffffffffffffffff16600067ffffffffffffffff81118015612ab257600080fd5b506040519080825280601f01601f191660200182016040528015612ae55781602001600182028036833780820191505090505b50604051602401612af99493929190614c72565b604051602081830303815290604052907bffffffffffffffffffffffffffffffffffffffffffffffffffffffff19166020820180517bffffffffffffffffffffffffffffffffffffffffffffffffffffffff8381831617835250505050876040518463ffffffff1660e01b8152600401612b7593929190614b9f565b600060405180830381600087803b158015612b8f57600080fd5b505af1158015612ba3573d6000803e3d6000fd5b505050506040513d6000823e3d601f19601f82011682018060405250810190612bcc91906147d3565b5080945050612fb9565b6000600b0b82600b0b14612dd057600a60009054906101000a900473ffffffffffffffffffffffffffffffffffffffff1673ffffffffffffffffffffffffffffffffffffffff16634329d293600b60009054906101000a900473ffffffffffffffffffffffffffffffffffffffff166350209a6260e01b600c60009054906101000a900473ffffffffffffffffffffffffffffffffffffffff16600d60009054906101000a900473ffffffffffffffffffffffffffffffffffffffff1686600067ffffffffffffffff81118015612cac57600080fd5b506040519080825280601f01601f191660200182016040528015612cdf5781602001600182028036833780820191505090505b50604051602401612cf39493929190614cbe565b604051602081830303815290604052907bffffffffffffffffffffffffffffffffffffffffffffffffffffffff19166020820180517bffffffffffffffffffffffffffffffffffffffffffffffffffffffff8381831617835250505050876040518463ffffffff1660e01b8152600401612d6f93929190614b9f565b600060405180830381600087803b158015612d8957600080fd5b505af1158015612d9d573d6000803e3d6000fd5b505050506040513d6000823e3d601f19601f82011682018060405250810190612dc691906147d3565b5080945050612fb8565b600a60009054906101000a900473ffffffffffffffffffffffffffffffffffffffff1673ffffffffffffffffffffffffffffffffffffffff16634329d293600b60009054906101000a900473ffffffffffffffffffffffffffffffffffffffff166362fc305e60e01b600c60009054906101000a900473ffffffffffffffffffffffffffffffffffffffff16600d60009054906101000a900473ffffffffffffffffffffffffffffffffffffffff1686600067ffffffffffffffff81118015612e9857600080fd5b506040519080825280601f01601f191660200182016040528015612ecb5781602001600182028036833780820191505090505b50604051602401612edf9493929190614cbe565b604051602081830303815290604052907bffffffffffffffffffffffffffffffffffffffffffffffffffffffff19166020820180517bffffffffffffffffffffffffffffffffffffffffffffffffffffffff8381831617835250505050876040518463ffffffff1660e01b8152600401612f5b93929190614b9f565b600060405180830381600087803b158015612f7557600080fd5b505af1158015612f89573d6000803e3d6000fd5b505050506040513d6000823e3d601f19601f82011682018060405250810190612fb291906147d3565b50809450505b5b50505092915050565b6000612fcd826125c8565b613022576040517f08c379a000000000000000000000000000000000000000000000000000000000815260040180806020018281038252602c815260200180615077602c913960400191505060405180910390fd5b600061302d83611bea565b90508073ffffffffffffffffffffffffffffffffffffffff168473ffffffffffffffffffffffffffffffffffffffff16148061309c57508373ffffffffffffffffffffffffffffffffffffffff1661308484611466565b73ffffffffffffffffffffffffffffffffffffffff16145b806130ad57506130ac81856124cb565b5b91505092915050565b8273ffffffffffffffffffffffffffffffffffffffff166130d682611bea565b73ffffffffffffffffffffffffffffffffffffffff1614613142576040517f08c379a000000000000000000000000000000000000000000000000000000000815260040180806020018281038252602981526020018061517c6029913960400191505060405180910390fd5b600073ffffffffffffffffffffffffffffffffffffffff168273ffffffffffffffffffffffffffffffffffffffff1614156131c8576040517f08c379a000000000000000000000000000000000000000000000000000000000815260040180806020018281038252602481526020018061502d6024913960400191505060405180910390fd5b6131d38383836136ac565b6131de6000826125ed565b61322f81600160008673ffffffffffffffffffffffffffffffffffffffff1673ffffffffffffffffffffffffffffffffffffffff1681526020019081526020016000206136ba90919063ffffffff16565b5061328181600160008573ffffffffffffffffffffffffffffffffffffffff1673ffffffffffffffffffffffffffffffffffffffff16815260200190815260200160002061255f90919063ffffffff16565b50613298818360026125799092919063ffffffff16565b50808273ffffffffffffffffffffffffffffffffffffffff168473ffffffffffffffffffffffffffffffffffffffff167fddf252ad1be2c89b69c2b068fc378daa952ba7f163c4a11628f55a4df523b3ef60405160405180910390a4505050565b600061330883600001836136d4565b60001c905092915050565b6000806000806133268660000186613757565b915091508160001c8160001c9350935050509250929050565b6000613352846000018460001b846137f0565b60001c90509392505050565b600061336c826000016138e6565b9050919050565b61337e8484846130b6565b61338a848484846138f7565b6133df576040517f08c379a0000000000000000000000000000000000000000000000000000000008152600401808060200182810382526032815260200180614fc86032913960400191505060405180910390fd5b50505050565b6060600082141561342d576040518060400160405280600181526020017f30000000000000000000000000000000000000000000000000000000000000008152509050613527565b600082905060005b60008214613457578080600101915050600a828161344f57fe5b049150613435565b60008167ffffffffffffffff8111801561347057600080fd5b506040519080825280601f01601f1916602001820160405280156134a35781602001600182028036833780820191505090505b50905060006001830390508593505b6000841461351f57600a84816134c457fe5b0660300160f81b828280600190039350815181106134de57fe5b60200101907effffffffffffffffffffffffffffffffffffffffffffffffffffffffffffff1916908160001a905350600a848161351757fe5b0493506134b2565b819450505050505b919050565b60006135388383613b10565b613591578260000182908060018154018082558091505060019003906000526020600020016000909190919091505582600001805490508360010160008481526020019081526020016000208190555060019050613596565b600090505b92915050565b600080846001016000858152602001908152602001600020549050600081141561364357846000016040518060400160405280868152602001858152509080600181540180825580915050600190039060005260206000209060020201600090919091909150600082015181600001556020820151816001015550508460000180549050856001016000868152602001908152602001600020819055506001915050613671565b8285600001600183038154811061365657fe5b90600052602060002090600202016001018190555060009150505b9392505050565b600080836001016000848152602001908152602001600020541415905092915050565b600081600001805490509050919050565b6136b582613b33565b505050565b60006136cc836000018360001b6142fd565b905092915050565b600081836000018054905011613735576040517f08c379a0000000000000000000000000000000000000000000000000000000008152600401808060200182810382526022815260200180614fa66022913960400191505060405180910390fd5b82600001828154811061374457fe5b9060005260206000200154905092915050565b600080828460000180549050116137b9576040517f08c379a000000000000000000000000000000000000000000000000000000000815260040180806020018281038252602281526020018061512e6022913960400191505060405180910390fd5b60008460000184815481106137ca57fe5b906000526020600020906002020190508060000154816001015492509250509250929050565b600080846001016000858152602001908152602001600020549050600081141583906138b7576040517f08c379a00000000000000000000000000000000000000000000000000000000081526004018080602001828103825283818151815260200191508051906020019080838360005b8381101561387c578082015181840152602081019050613861565b50505050905090810190601f1680156138a95780820380516001836020036101000a031916815260200191505b509250505060405180910390fd5b508460000160018203815481106138ca57fe5b9060005260206000209060020201600101549150509392505050565b600081600001805490509050919050565b60006139188473ffffffffffffffffffffffffffffffffffffffff166143e5565b6139255760019050613b08565b6000613a8f63150b7a0260e01b61393a6125e5565b888787604051602401808573ffffffffffffffffffffffffffffffffffffffff1681526020018473ffffffffffffffffffffffffffffffffffffffff16815260200183815260200180602001828103825283818151815260200191508051906020019080838360005b838110156139be5780820151818401526020810190506139a3565b50505050905090810190601f1680156139eb5780820380516001836020036101000a031916815260200191505b5095505050505050604051602081830303815290604052907bffffffffffffffffffffffffffffffffffffffffffffffffffffffff19166020820180517bffffffffffffffffffffffffffffffffffffffffffffffffffffffff8381831617835250505050604051806060016040528060328152602001614fc8603291398773ffffffffffffffffffffffffffffffffffffffff166143f89092919063ffffffff16565b90506000818060200190516020811015613aa857600080fd5b8101908080519060200190929190505050905063150b7a0260e01b7bffffffffffffffffffffffffffffffffffffffffffffffffffffffff1916817bffffffffffffffffffffffffffffffffffffffffffffffffffffffff191614925050505b949350505050565b600080836001016000848152602001908152602001600020541415905092915050565b600073ffffffffffffffffffffffffffffffffffffffff168173ffffffffffffffffffffffffffffffffffffffff161415613ba3576040517f08c379a0000000000000000000000000000000000000000000000000000000008152600401613b9a90614d6a565b60405180910390fd5b600a60009054906101000a900473ffffffffffffffffffffffffffffffffffffffff1673ffffffffffffffffffffffffffffffffffffffff16633ca3ad4e826040518263ffffffff1660e01b8152600401613bfe9190614bf7565b60206040518083038186803b158015613c1657600080fd5b505afa158015613c2a573d6000803e3d6000fd5b505050506040513d601f19601f82011682018060405250810190613c4e9190614740565b15613c8e576040517f08c379a0000000000000000000000000000000000000000000000000000000008152600401613c8590614d8a565b60405180910390fd5b600d60009054906101000a900473ffffffffffffffffffffffffffffffffffffffff1673ffffffffffffffffffffffffffffffffffffffff168173ffffffffffffffffffffffffffffffffffffffff161415613ce9576142fa565b6000600b60009054906101000a900473ffffffffffffffffffffffffffffffffffffffff1673ffffffffffffffffffffffffffffffffffffffff1663e6a1e888600c60009054906101000a900473ffffffffffffffffffffffffffffffffffffffff1630600d60009054906101000a900473ffffffffffffffffffffffffffffffffffffffff166040518463ffffffff1660e01b8152600401613d8e93929190614c3b565b60806040518083038186803b158015613da657600080fd5b505afa158015613dba573d6000803e3d6000fd5b505050506040513d601f19601f82011682018060405250810190613dde9190614868565b5050915050600081600b0b131561425e57600a60009054906101000a900473ffffffffffffffffffffffffffffffffffffffff1673ffffffffffffffffffffffffffffffffffffffff166339255d5b600b60009054906101000a900473ffffffffffffffffffffffffffffffffffffffff1663b4b333c660e01b600c60009054906101000a900473ffffffffffffffffffffffffffffffffffffffff1630600d60009054906101000a900473ffffffffffffffffffffffffffffffffffffffff16600067ffffffffffffffff81118015613eb757600080fd5b506040519080825280601f01601f191660200182016040528015613eea5781602001600182028036833780820191505090505b50604051602401613efe9493929190614c72565b604051602081830303815290604052907bffffffffffffffffffffffffffffffffffffffffffffffffffffffff19166020820180517bffffffffffffffffffffffffffffffffffffffffffffffffffffffff83818316178352505050506040518363ffffffff1660e01b8152600401613f78929190614b5c565b600060405180830381600087803b158015613f9257600080fd5b505af1158015613fa6573d6000803e3d6000fd5b505050506040513d6000823e3d601f19601f82011682018060405250810190613fcf9190614792565b50600a60009054906101000a900473ffffffffffffffffffffffffffffffffffffffff1673ffffffffffffffffffffffffffffffffffffffff166339255d5b600b60009054906101000a900473ffffffffffffffffffffffffffffffffffffffff166362fc305e60e01b600c60009054906101000a900473ffffffffffffffffffffffffffffffffffffffff1686600b60009054906101000a900473ffffffffffffffffffffffffffffffffffffffff1673ffffffffffffffffffffffffffffffffffffffff1663e8e7e2d1600c60009054906101000a900473ffffffffffffffffffffffffffffffffffffffff16306040518363ffffffff1660e01b81526004016140dc929190614c12565b60206040518083038186803b1580156140f457600080fd5b505afa158015614108573d6000803e3d6000fd5b505050506040513d601f19601f8201168201806040525081019061412c919061483f565b600067ffffffffffffffff8111801561414457600080fd5b506040519080825280601f01601f1916602001820160405280156141775781602001600182028036833780820191505090505b5060405160240161418b9493929190614cbe565b604051602081830303815290604052907bffffffffffffffffffffffffffffffffffffffffffffffffffffffff19166020820180517bffffffffffffffffffffffffffffffffffffffffffffffffffffffff83818316178352505050506040518363ffffffff1660e01b8152600401614205929190614b5c565b600060405180830381600087803b15801561421f57600080fd5b505af1158015614233573d6000803e3d6000fd5b505050506040513d6000823e3d601f19601f8201168201806040525081019061425c9190614792565b505b81600d60006101000a81548173ffffffffffffffffffffffffffffffffffffffff021916908373ffffffffffffffffffffffffffffffffffffffff1602179055507f7dfb1d59db37a3fd2e15e796c189dcab714cdbb18650d68a1de58f8fa60718c9600d60009054906101000a900473ffffffffffffffffffffffffffffffffffffffff166040516142f09190614b41565b60405180910390a1505b50565b600080836001016000848152602001908152602001600020549050600081146143d9576000600182039050600060018660000180549050039050600086600001828154811061434857fe5b906000526020600020015490508087600001848154811061436557fe5b906000526020600020018190555060018301876001016000838152602001908152602001600020819055508660000180548061439d57fe5b600190038181906000526020600020016000905590558660010160008781526020019081526020016000206000905560019450505050506143df565b60009150505b92915050565b600080823b905060008111915050919050565b60606144078484600085614410565b90509392505050565b60608247101561446b576040517f08c379a00000000000000000000000000000000000000000000000000000000081526004018080602001828103825260268152602001806150516026913960400191505060405180910390fd5b614474856143e5565b6144e6576040517f08c379a000000000000000000000000000000000000000000000000000000000815260040180806020018281038252601d8152602001807f416464726573733a2063616c6c20746f206e6f6e2d636f6e747261637400000081525060200191505060405180910390fd5b6000808673ffffffffffffffffffffffffffffffffffffffff1685876040518082805190602001908083835b602083106145355780518252602082019150602081019050602083039250614512565b6001836020036101000a03801982511681845116808217855250505050505090500191505060006040518083038185875af1925050503d8060008114614597576040519150601f19603f3d011682016040523d82523d6000602084013e61459c565b606091505b50915091506145ac8282866145b8565b92505050949350505050565b606083156145c85782905061467d565b6000835111156145db5782518084602001fd5b816040517f08c379a00000000000000000000000000000000000000000000000000000000081526004018080602001828103825283818151815260200191508051906020019080838360005b83811015614642578082015181840152602081019050614627565b50505050905090810190601f16801561466f5780820380516001836020036101000a031916815260200191505b509250505060405180910390fd5b9392505050565b600061469761469284614ddb565b614daa565b9050828152602081018484840111156146af57600080fd5b6146ba848285614f03565b509392505050565b6000815190506146d181614f49565b92915050565b6000815190506146e681614f60565b92915050565b600082601f8301126146fd57600080fd5b815161470d848260208601614684565b91505092915050565b60008151905061472581614f77565b92915050565b60008151905061473a81614f8e565b92915050565b60006020828403121561475257600080fd5b6000614760848285016146c2565b91505092915050565b60006020828403121561477b57600080fd5b6000614789848285016146d7565b91505092915050565b6000602082840312156147a457600080fd5b600082015167ffffffffffffffff8111156147be57600080fd5b6147ca848285016146ec565b91505092915050565b600080604083850312156147e657600080fd5b600083015167ffffffffffffffff81111561480057600080fd5b61480c858286016146ec565b925050602083015167ffffffffffffffff81111561482957600080fd5b614835858286016146ec565b9150509250929050565b60006020828403121561485157600080fd5b600061485f84828501614716565b91505092915050565b6000806000806080858703121561487e57600080fd5b600061488c8782880161472b565b945050602061489d87828801614716565b93505060406148ae8782880161472b565b92505060606148bf8782880161472b565b91505092959194509250565b6148d481614e38565b82525050565b60006148e582614e0b565b6148ef8185614e16565b93506148ff818560208601614f03565b61490881614f38565b840191505092915050565b61491c81614e97565b82525050565b61492b81614ebb565b82525050565b61493a81614edf565b82525050565b61494981614e60565b82525050565b600061495c602183614e27565b91507f5265646972656374416c6c3a206f6e6c7920434641763120737570706f72746560008301527f64000000000000000000000000000000000000000000000000000000000000006020830152604082019050919050565b60006149c2601f83614e27565b91507f5265646972656374416c6c3a206e6f7420616363657074656420746f6b656e006000830152602082019050919050565b6000614a02602283614e27565b91507f5265646972656374416c6c3a20737570706f7274206f6e6c79206f6e6520686f60008301527f73740000000000000000000000000000000000000000000000000000000000006020830152604082019050919050565b6000614a68600283614e16565b91507f30780000000000000000000000000000000000000000000000000000000000006000830152602082019050919050565b6000614aa8601c83614e27565b91507f4e6577207265636569766572206973207a65726f2061646472657373000000006000830152602082019050919050565b6000614ae8602283614e27565b91507f4e65772072656365697665722063616e206e6f7420626520612073757065724160008301527f70700000000000000000000000000000000000000000000000000000000000006020830152604082019050919050565b6000602082019050614b5660008301846148cb565b92915050565b6000606082019050614b716000830185614913565b8181036020830152614b8381846148da565b90508181036040830152614b9681614a5b565b90509392505050565b6000608082019050614bb46000830186614913565b8181036020830152614bc681856148da565b90508181036040830152614bd981614a5b565b90508181036060830152614bed81846148da565b9050949350505050565b6000602082019050614c0c6000830184614922565b92915050565b6000604082019050614c276000830185614931565b614c3460208301846148cb565b9392505050565b6000606082019050614c506000830186614931565b614c5d60208301856148cb565b614c6a60408301846148cb565b949350505050565b6000608082019050614c876000830187614931565b614c9460208301866148cb565b614ca160408301856148cb565b8181036060830152614cb381846148da565b905095945050505050565b6000608082019050614cd36000830187614931565b614ce060208301866148cb565b614ced6040830185614940565b8181036060830152614cff81846148da565b905095945050505050565b60006020820190508181036000830152614d238161494f565b9050919050565b60006020820190508181036000830152614d43816149b5565b9050919050565b60006020820190508181036000830152614d63816149f5565b9050919050565b60006020820190508181036000830152614d8381614a9b565b9050919050565b60006020820190508181036000830152614da381614adb565b9050919050565b6000604051905081810181811067ffffffffffffffff82111715614dd157614dd0614f36565b5b8060405250919050565b600067ffffffffffffffff821115614df657614df5614f36565b5b601f19601f8301169050602081019050919050565b600081519050919050565b600082825260208201905092915050565b600082825260208201905092915050565b6000614e4382614e6d565b9050919050565b60008115159050919050565b6000819050919050565b600081600b0b9050919050565b600073ffffffffffffffffffffffffffffffffffffffff82169050919050565b6000819050919050565b6000614ea282614ea9565b9050919050565b6000614eb482614e6d565b9050919050565b6000614ec682614ecd565b9050919050565b6000614ed882614e6d565b9050919050565b6000614eea82614ef1565b9050919050565b6000614efc82614e6d565b9050919050565b60005b83811015614f21578082015181840152602081019050614f06565b83811115614f30576000848401525b50505050565bfe5b6000601f19601f8301169050919050565b614f5281614e4a565b8114614f5d57600080fd5b50565b614f6981614e56565b8114614f7457600080fd5b50565b614f8081614e60565b8114614f8b57600080fd5b50565b614f9781614e8d565b8114614fa257600080fd5b5056fe456e756d657261626c655365743a20696e646578206f7574206f6620626f756e64734552433732313a207472616e7366657220746f206e6f6e20455243373231526563656976657220696d706c656d656e746572556e737570706f727465642063616c6c6261636b202d20204265666f72652041677265656d656e74205465726d696e617465644552433732313a207472616e7366657220746f20746865207a65726f2061646472657373416464726573733a20696e73756666696369656e742062616c616e636520666f722063616c6c4552433732313a206f70657261746f7220717565727920666f72206e6f6e6578697374656e7420746f6b656e4552433732313a20617070726f76652063616c6c6572206973206e6f74206f776e6572206e6f7220617070726f76656420666f7220616c6c4552433732313a2062616c616e636520717565727920666f7220746865207a65726f20616464726573734552433732313a206f776e657220717565727920666f72206e6f6e6578697374656e7420746f6b656e456e756d657261626c654d61703a20696e646578206f7574206f6620626f756e64734552433732313a20617070726f76656420717565727920666f72206e6f6e6578697374656e7420746f6b656e4552433732313a207472616e73666572206f6620746f6b656e2074686174206973206e6f74206f776e4552433732314d657461646174613a2055524920717565727920666f72206e6f6e6578697374656e7420746f6b656e4552433732313a20617070726f76616c20746f2063757272656e74206f776e6572556e737570706f727465642063616c6c6261636b202d204265666f72652041677265656d656e7420757064617465644552433732313a207472616e736665722063616c6c6572206973206e6f74206f776e6572206e6f7220617070726f766564556e737570706f727465642063616c6c6261636b202d204265666f72652041677265656d656e742043726561746564a26469706673582212209369aeb5b6cde29a9bedd3328ed2b3657c55d84483ad2032c3715d5f9533fb0d64736f6c63430007060033",
  "immutableReferences": {},
  "source": "//SPDX-License-Identifier: MIT\npragma solidity ^0.7.1;\n\nimport {RedirectAll, ISuperToken, IConstantFlowAgreementV1, ISuperfluid} from \"./RedirectAll.sol\";\nimport {ERC721} from \"@openzeppelin/contracts/token/ERC721/ERC721.sol\";\n\ncontract TradeableCashflow is ERC721, RedirectAll {\n\n  constructor (\n    address owner,\n    string memory _name,\n    string memory _symbol,\n    ISuperfluid host,\n    IConstantFlowAgreementV1 cfa,\n    ISuperToken acceptedToken\n  )\n    ERC721 ( _name, _symbol )\n    RedirectAll (\n      host,\n      cfa,\n      acceptedToken,\n      owner\n     )\n      {\n\n      _mint(owner, 1);\n  }\n\n  //now I will insert a nice little hook in the _transfer, including the RedirectAll function I need\n  function _beforeTokenTransfer(\n    address /*from*/,\n    address to,\n    uint256 /*tokenId*/\n  ) internal override {\n      _changeReceiver(to);\n  }\n}\n",
  "sourcePath": "/Users/ian/Projects/nfthack/monorepo/apps/blockchain/contracts/TradeableCashflow.sol",
  "compiler": {
    "name": "solc",
    "version": "0.7.6+commit.7338295f.Emscripten.clang"
  },
  "schemaVersion": "3.4.4",
  "updatedAt": "2022-01-14T14:09:38.758Z",
  "devdoc": {
    "kind": "dev",
    "methods": {
      "approve(address,uint256)": {
        "details": "See {IERC721-approve}."
      },
      "balanceOf(address)": {
        "details": "See {IERC721-balanceOf}."
      },
      "baseURI()": {
        "details": "Returns the base URI set via {_setBaseURI}. This will be automatically added as a prefix in {tokenURI} to each token's URI, or to the token ID if no specific URI is set for that token ID."
      },
      "getApproved(uint256)": {
        "details": "See {IERC721-getApproved}."
      },
      "isApprovedForAll(address,address)": {
        "details": "See {IERC721-isApprovedForAll}."
      },
      "name()": {
        "details": "See {IERC721Metadata-name}."
      },
      "ownerOf(uint256)": {
        "details": "See {IERC721-ownerOf}."
      },
      "safeTransferFrom(address,address,uint256)": {
        "details": "See {IERC721-safeTransferFrom}."
      },
      "safeTransferFrom(address,address,uint256,bytes)": {
        "details": "See {IERC721-safeTransferFrom}."
      },
      "setApprovalForAll(address,bool)": {
        "details": "See {IERC721-setApprovalForAll}."
      },
      "supportsInterface(bytes4)": {
        "details": "See {IERC165-supportsInterface}. Time complexity O(1), guaranteed to always use less than 30 000 gas."
      },
      "symbol()": {
        "details": "See {IERC721Metadata-symbol}."
      },
      "tokenByIndex(uint256)": {
        "details": "See {IERC721Enumerable-tokenByIndex}."
      },
      "tokenOfOwnerByIndex(address,uint256)": {
        "details": "See {IERC721Enumerable-tokenOfOwnerByIndex}."
      },
      "tokenURI(uint256)": {
        "details": "See {IERC721Metadata-tokenURI}."
      },
      "totalSupply()": {
        "details": "See {IERC721Enumerable-totalSupply}."
      },
      "transferFrom(address,address,uint256)": {
        "details": "See {IERC721-transferFrom}."
      }
    },
    "version": 1
  },
  "userdoc": {
    "kind": "user",
    "methods": {},
    "version": 1
  }
}