{
  "contractName": "Assets",
  "abi": [
    {
      "inputs": [
        {
          "internalType": "address",
          "name": "_marketContractAddress",
          "type": "address"
        }
      ],
      "stateMutability": "nonpayable",
      "type": "constructor"
    },
    {
      "anonymous": false,
      "inputs": [
        {
          "indexed": true,
          "internalType": "address",
          "name": "owner",
          "type": "address"
        },
        {
          "indexed": true,
          "internalType": "address",
          "name": "approved",
          "type": "address"
        },
        {
          "indexed": true,
          "internalType": "uint256",
          "name": "tokenId",
          "type": "uint256"
        }
      ],
      "name": "Approval",
      "type": "event"
    },
    {
      "anonymous": false,
      "inputs": [
        {
          "indexed": true,
          "internalType": "address",
          "name": "owner",
          "type": "address"
        },
        {
          "indexed": true,
          "internalType": "address",
          "name": "operator",
          "type": "address"
        },
        {
          "indexed": false,
          "internalType": "bool",
          "name": "approved",
          "type": "bool"
        }
      ],
      "name": "ApprovalForAll",
      "type": "event"
    },
    {
      "anonymous": false,
      "inputs": [
        {
          "indexed": true,
          "internalType": "address",
          "name": "from",
          "type": "address"
        },
        {
          "indexed": true,
          "internalType": "address",
          "name": "to",
          "type": "address"
        },
        {
          "indexed": true,
          "internalType": "uint256",
          "name": "tokenId",
          "type": "uint256"
        }
      ],
      "name": "Transfer",
      "type": "event"
    },
    {
      "inputs": [
        {
          "internalType": "address",
          "name": "to",
          "type": "address"
        },
        {
          "internalType": "uint256",
          "name": "tokenId",
          "type": "uint256"
        }
      ],
      "name": "approve",
      "outputs": [],
      "stateMutability": "nonpayable",
      "type": "function"
    },
    {
      "inputs": [
        {
          "internalType": "address",
          "name": "owner",
          "type": "address"
        }
      ],
      "name": "balanceOf",
      "outputs": [
        {
          "internalType": "uint256",
          "name": "",
          "type": "uint256"
        }
      ],
      "stateMutability": "view",
      "type": "function"
    },
    {
      "inputs": [
        {
          "internalType": "uint256",
          "name": "tokenId",
          "type": "uint256"
        }
      ],
      "name": "getApproved",
      "outputs": [
        {
          "internalType": "address",
          "name": "",
          "type": "address"
        }
      ],
      "stateMutability": "view",
      "type": "function"
    },
    {
      "inputs": [
        {
          "internalType": "address",
          "name": "owner",
          "type": "address"
        },
        {
          "internalType": "address",
          "name": "operator",
          "type": "address"
        }
      ],
      "name": "isApprovedForAll",
      "outputs": [
        {
          "internalType": "bool",
          "name": "",
          "type": "bool"
        }
      ],
      "stateMutability": "view",
      "type": "function"
    },
    {
      "inputs": [],
      "name": "name",
      "outputs": [
        {
          "internalType": "string",
          "name": "",
          "type": "string"
        }
      ],
      "stateMutability": "view",
      "type": "function"
    },
    {
      "inputs": [
        {
          "internalType": "uint256",
          "name": "tokenId",
          "type": "uint256"
        }
      ],
      "name": "ownerOf",
      "outputs": [
        {
          "internalType": "address",
          "name": "",
          "type": "address"
        }
      ],
      "stateMutability": "view",
      "type": "function"
    },
    {
      "inputs": [
        {
          "internalType": "address",
          "name": "from",
          "type": "address"
        },
        {
          "internalType": "address",
          "name": "to",
          "type": "address"
        },
        {
          "internalType": "uint256",
          "name": "tokenId",
          "type": "uint256"
        }
      ],
      "name": "safeTransferFrom",
      "outputs": [],
      "stateMutability": "nonpayable",
      "type": "function"
    },
    {
      "inputs": [
        {
          "internalType": "address",
          "name": "from",
          "type": "address"
        },
        {
          "internalType": "address",
          "name": "to",
          "type": "address"
        },
        {
          "internalType": "uint256",
          "name": "tokenId",
          "type": "uint256"
        },
        {
          "internalType": "bytes",
          "name": "_data",
          "type": "bytes"
        }
      ],
      "name": "safeTransferFrom",
      "outputs": [],
      "stateMutability": "nonpayable",
      "type": "function"
    },
    {
      "inputs": [
        {
          "internalType": "address",
          "name": "operator",
          "type": "address"
        },
        {
          "internalType": "bool",
          "name": "approved",
          "type": "bool"
        }
      ],
      "name": "setApprovalForAll",
      "outputs": [],
      "stateMutability": "nonpayable",
      "type": "function"
    },
    {
      "inputs": [
        {
          "internalType": "bytes4",
          "name": "interfaceId",
          "type": "bytes4"
        }
      ],
      "name": "supportsInterface",
      "outputs": [
        {
          "internalType": "bool",
          "name": "",
          "type": "bool"
        }
      ],
      "stateMutability": "view",
      "type": "function"
    },
    {
      "inputs": [],
      "name": "symbol",
      "outputs": [
        {
          "internalType": "string",
          "name": "",
          "type": "string"
        }
      ],
      "stateMutability": "view",
      "type": "function"
    },
    {
      "inputs": [],
      "name": "tokenCounter",
      "outputs": [
        {
          "internalType": "uint256",
          "name": "",
          "type": "uint256"
        }
      ],
      "stateMutability": "view",
      "type": "function"
    },
    {
      "inputs": [
        {
          "internalType": "address",
          "name": "from",
          "type": "address"
        },
        {
          "internalType": "address",
          "name": "to",
          "type": "address"
        },
        {
          "internalType": "uint256",
          "name": "tokenId",
          "type": "uint256"
        }
      ],
      "name": "transferFrom",
      "outputs": [],
      "stateMutability": "nonpayable",
      "type": "function"
    },
    {
      "inputs": [
        {
          "internalType": "string",
          "name": "_tokenURI",
          "type": "string"
        },
        {
          "internalType": "uint256",
          "name": "_price",
          "type": "uint256"
        },
        {
          "internalType": "address",
          "name": "AssetFluidStreamContract",
          "type": "address"
        }
      ],
      "name": "mint",
      "outputs": [],
      "stateMutability": "nonpayable",
      "type": "function"
    },
    {
      "inputs": [
        {
          "internalType": "uint256",
          "name": "_tokenId",
          "type": "uint256"
        }
      ],
      "name": "tokenURI",
      "outputs": [
        {
          "internalType": "string",
          "name": "",
          "type": "string"
        }
      ],
      "stateMutability": "view",
      "type": "function"
    }
  ],
  "bytecode": "0x60806040523480156200001157600080fd5b5060405162002b6038038062002b60833981810160405281019062000037919062000241565b6040518060400160405280600681526020017f41737365747300000000000000000000000000000000000000000000000000008152506040518060400160405280600381526020017f41535400000000000000000000000000000000000000000000000000000000008152508160009080519060200190620000bb92919062000127565b508060019080519060200190620000d492919062000127565b505050600060068190555080600760006101000a81548173ffffffffffffffffffffffffffffffffffffffff021916908373ffffffffffffffffffffffffffffffffffffffff16021790555050620002d8565b8280546200013590620002a2565b90600052602060002090601f016020900481019282620001595760008555620001a5565b82601f106200017457805160ff1916838001178555620001a5565b82800160010185558215620001a5579182015b82811115620001a457825182559160200191906001019062000187565b5b509050620001b49190620001b8565b5090565b5b80821115620001d3576000816000905550600101620001b9565b5090565b600080fd5b600073ffffffffffffffffffffffffffffffffffffffff82169050919050565b60006200020982620001dc565b9050919050565b6200021b81620001fc565b81146200022757600080fd5b50565b6000815190506200023b8162000210565b92915050565b6000602082840312156200025a5762000259620001d7565b5b60006200026a848285016200022a565b91505092915050565b7f4e487b7100000000000000000000000000000000000000000000000000000000600052602260045260246000fd5b60006002820490506001821680620002bb57607f821691505b60208210811415620002d257620002d162000273565b5b50919050565b61287880620002e86000396000f3fe608060405234801561001057600080fd5b50600436106100f55760003560e01c806370a0823111610097578063b88d4fde11610066578063b88d4fde14610282578063c87b56dd1461029e578063d082e381146102ce578063e985e9c5146102ec576100f5565b806370a08231146101fc5780637af1388c1461022c57806395d89b4114610248578063a22cb46514610266576100f5565b8063095ea7b3116100d3578063095ea7b31461017857806323b872dd1461019457806342842e0e146101b05780636352211e146101cc576100f5565b806301ffc9a7146100fa57806306fdde031461012a578063081812fc14610148575b600080fd5b610114600480360381019061010f91906117a5565b61031c565b60405161012191906117ed565b60405180910390f35b6101326103fe565b60405161013f91906118a1565b60405180910390f35b610162600480360381019061015d91906118f9565b610490565b60405161016f9190611967565b60405180910390f35b610192600480360381019061018d91906119ae565b610515565b005b6101ae60048036038101906101a991906119ee565b61062d565b005b6101ca60048036038101906101c591906119ee565b61068d565b005b6101e660048036038101906101e191906118f9565b6106ad565b6040516101f39190611967565b60405180910390f35b61021660048036038101906102119190611a41565b61075f565b6040516102239190611a7d565b60405180910390f35b61024660048036038101906102419190611bcd565b610817565b005b61025061087b565b60405161025d91906118a1565b60405180910390f35b610280600480360381019061027b9190611c68565b61090d565b005b61029c60048036038101906102979190611d49565b610923565b005b6102b860048036038101906102b391906118f9565b610985565b6040516102c591906118a1565b60405180910390f35b6102d6610a72565b6040516102e39190611a7d565b60405180910390f35b61030660048036038101906103019190611dcc565b610a78565b60405161031391906117ed565b60405180910390f35b60007f80ac58cd000000000000000000000000000000000000000000000000000000007bffffffffffffffffffffffffffffffffffffffffffffffffffffffff1916827bffffffffffffffffffffffffffffffffffffffffffffffffffffffff191614806103e757507f5b5e139f000000000000000000000000000000000000000000000000000000007bffffffffffffffffffffffffffffffffffffffffffffffffffffffff1916827bffffffffffffffffffffffffffffffffffffffffffffffffffffffff1916145b806103f757506103f682610b0c565b5b9050919050565b60606000805461040d90611e3b565b80601f016020809104026020016040519081016040528092919081815260200182805461043990611e3b565b80156104865780601f1061045b57610100808354040283529160200191610486565b820191906000526020600020905b81548152906001019060200180831161046957829003601f168201915b5050505050905090565b600061049b82610b76565b6104da576040517f08c379a00000000000000000000000000000000000000000000000000000000081526004016104d190611edf565b60405180910390fd5b6004600083815260200190815260200160002060009054906101000a900473ffffffffffffffffffffffffffffffffffffffff169050919050565b6000610520826106ad565b90508073ffffffffffffffffffffffffffffffffffffffff168373ffffffffffffffffffffffffffffffffffffffff161415610591576040517f08c379a000000000000000000000000000000000000000000000000000000000815260040161058890611f71565b60405180910390fd5b8073ffffffffffffffffffffffffffffffffffffffff166105b0610be2565b73ffffffffffffffffffffffffffffffffffffffff1614806105df57506105de816105d9610be2565b610a78565b5b61061e576040517f08c379a000000000000000000000000000000000000000000000000000000000815260040161061590612003565b60405180910390fd5b6106288383610bea565b505050565b61063e610638610be2565b82610ca3565b61067d576040517f08c379a000000000000000000000000000000000000000000000000000000000815260040161067490612095565b60405180910390fd5b610688838383610d81565b505050565b6106a883838360405180602001604052806000815250610923565b505050565b6000806002600084815260200190815260200160002060009054906101000a900473ffffffffffffffffffffffffffffffffffffffff169050600073ffffffffffffffffffffffffffffffffffffffff168173ffffffffffffffffffffffffffffffffffffffff161415610756576040517f08c379a000000000000000000000000000000000000000000000000000000000815260040161074d90612127565b60405180910390fd5b80915050919050565b60008073ffffffffffffffffffffffffffffffffffffffff168273ffffffffffffffffffffffffffffffffffffffff1614156107d0576040517f08c379a00000000000000000000000000000000000000000000000000000000081526004016107c7906121b9565b60405180910390fd5b600360008373ffffffffffffffffffffffffffffffffffffffff1673ffffffffffffffffffffffffffffffffffffffff168152602001908152602001600020549050919050565b61082333600654610fdd565b610831600654848484610ffb565b61085e600760009054906101000a900473ffffffffffffffffffffffffffffffffffffffff16600161090d565b6006600081548092919061087190612208565b9190505550505050565b60606001805461088a90611e3b565b80601f01602080910402602001604051908101604052809291908181526020018280546108b690611e3b565b80156109035780601f106108d857610100808354040283529160200191610903565b820191906000526020600020905b8154815290600101906020018083116108e657829003601f168201915b5050505050905090565b61091f610918610be2565b8383611104565b5050565b61093461092e610be2565b83610ca3565b610973576040517f08c379a000000000000000000000000000000000000000000000000000000000815260040161096a90612095565b60405180910390fd5b61097f84848484611271565b50505050565b606061099082610b76565b6109cf576040517f08c379a00000000000000000000000000000000000000000000000000000000081526004016109c6906122c3565b60405180910390fd5b6008600083815260200190815260200160002080546109ed90611e3b565b80601f0160208091040260200160405190810160405280929190818152602001828054610a1990611e3b565b8015610a665780601f10610a3b57610100808354040283529160200191610a66565b820191906000526020600020905b815481529060010190602001808311610a4957829003601f168201915b50505050509050919050565b60065481565b6000600560008473ffffffffffffffffffffffffffffffffffffffff1673ffffffffffffffffffffffffffffffffffffffff16815260200190815260200160002060008373ffffffffffffffffffffffffffffffffffffffff1673ffffffffffffffffffffffffffffffffffffffff16815260200190815260200160002060009054906101000a900460ff16905092915050565b60007f01ffc9a7000000000000000000000000000000000000000000000000000000007bffffffffffffffffffffffffffffffffffffffffffffffffffffffff1916827bffffffffffffffffffffffffffffffffffffffffffffffffffffffff1916149050919050565b60008073ffffffffffffffffffffffffffffffffffffffff166002600084815260200190815260200160002060009054906101000a900473ffffffffffffffffffffffffffffffffffffffff1673ffffffffffffffffffffffffffffffffffffffff1614159050919050565b600033905090565b816004600083815260200190815260200160002060006101000a81548173ffffffffffffffffffffffffffffffffffffffff021916908373ffffffffffffffffffffffffffffffffffffffff160217905550808273ffffffffffffffffffffffffffffffffffffffff16610c5d836106ad565b73ffffffffffffffffffffffffffffffffffffffff167f8c5be1e5ebec7d5bd14f71427d1e84f3dd0314c0f7b2291e5b200ac8c7c3b92560405160405180910390a45050565b6000610cae82610b76565b610ced576040517f08c379a0000000000000000000000000000000000000000000000000000000008152600401610ce490612355565b60405180910390fd5b6000610cf8836106ad565b90508073ffffffffffffffffffffffffffffffffffffffff168473ffffffffffffffffffffffffffffffffffffffff161480610d6757508373ffffffffffffffffffffffffffffffffffffffff16610d4f84610490565b73ffffffffffffffffffffffffffffffffffffffff16145b80610d785750610d778185610a78565b5b91505092915050565b8273ffffffffffffffffffffffffffffffffffffffff16610da1826106ad565b73ffffffffffffffffffffffffffffffffffffffff1614610df7576040517f08c379a0000000000000000000000000000000000000000000000000000000008152600401610dee906123e7565b60405180910390fd5b600073ffffffffffffffffffffffffffffffffffffffff168273ffffffffffffffffffffffffffffffffffffffff161415610e67576040517f08c379a0000000000000000000000000000000000000000000000000000000008152600401610e5e90612479565b60405180910390fd5b610e728383836112cd565b610e7d600082610bea565b6001600360008573ffffffffffffffffffffffffffffffffffffffff1673ffffffffffffffffffffffffffffffffffffffff1681526020019081526020016000206000828254610ecd9190612499565b925050819055506001600360008473ffffffffffffffffffffffffffffffffffffffff1673ffffffffffffffffffffffffffffffffffffffff1681526020019081526020016000206000828254610f2491906124cd565b92505081905550816002600083815260200190815260200160002060006101000a81548173ffffffffffffffffffffffffffffffffffffffff021916908373ffffffffffffffffffffffffffffffffffffffff160217905550808273ffffffffffffffffffffffffffffffffffffffff168473ffffffffffffffffffffffffffffffffffffffff167fddf252ad1be2c89b69c2b068fc378daa952ba7f163c4a11628f55a4df523b3ef60405160405180910390a4505050565b610ff78282604051806020016040528060008152506112d2565b5050565b61100484610b76565b611043576040517f08c379a000000000000000000000000000000000000000000000000000000000815260040161103a906122c3565b60405180910390fd5b8260086000868152602001908152602001600020908051906020019061106a929190611696565b50600760009054906101000a900473ffffffffffffffffffffffffffffffffffffffff1673ffffffffffffffffffffffffffffffffffffffff16632f936acd858484336040518563ffffffff1660e01b81526004016110cc9493929190612544565b600060405180830381600087803b1580156110e657600080fd5b505af11580156110fa573d6000803e3d6000fd5b5050505050505050565b8173ffffffffffffffffffffffffffffffffffffffff168373ffffffffffffffffffffffffffffffffffffffff161415611173576040517f08c379a000000000000000000000000000000000000000000000000000000000815260040161116a906125d5565b60405180910390fd5b80600560008573ffffffffffffffffffffffffffffffffffffffff1673ffffffffffffffffffffffffffffffffffffffff16815260200190815260200160002060008473ffffffffffffffffffffffffffffffffffffffff1673ffffffffffffffffffffffffffffffffffffffff16815260200190815260200160002060006101000a81548160ff0219169083151502179055508173ffffffffffffffffffffffffffffffffffffffff168373ffffffffffffffffffffffffffffffffffffffff167f17307eab39ab6107e8899845ad3d59bd9653f200f220920489ca2b5937696c318360405161126491906117ed565b60405180910390a3505050565b61127c848484610d81565b6112888484848461132d565b6112c7576040517f08c379a00000000000000000000000000000000000000000000000000000000081526004016112be90612667565b60405180910390fd5b50505050565b505050565b6112dc83836114b5565b6112e9600084848461132d565b611328576040517f08c379a000000000000000000000000000000000000000000000000000000000815260040161131f90612667565b60405180910390fd5b505050565b600061134e8473ffffffffffffffffffffffffffffffffffffffff16611683565b156114a8578373ffffffffffffffffffffffffffffffffffffffff1663150b7a02611377610be2565b8786866040518563ffffffff1660e01b815260040161139994939291906126dc565b6020604051808303816000875af19250505080156113d557506040513d601f19601f820116820180604052508101906113d2919061273d565b60015b611458573d8060008114611405576040519150601f19603f3d011682016040523d82523d6000602084013e61140a565b606091505b50600081511415611450576040517f08c379a000000000000000000000000000000000000000000000000000000000815260040161144790612667565b60405180910390fd5b805181602001fd5b63150b7a0260e01b7bffffffffffffffffffffffffffffffffffffffffffffffffffffffff1916817bffffffffffffffffffffffffffffffffffffffffffffffffffffffff1916149150506114ad565b600190505b949350505050565b600073ffffffffffffffffffffffffffffffffffffffff168273ffffffffffffffffffffffffffffffffffffffff161415611525576040517f08c379a000000000000000000000000000000000000000000000000000000000815260040161151c906127b6565b60405180910390fd5b61152e81610b76565b1561156e576040517f08c379a000000000000000000000000000000000000000000000000000000000815260040161156590612822565b60405180910390fd5b61157a600083836112cd565b6001600360008473ffffffffffffffffffffffffffffffffffffffff1673ffffffffffffffffffffffffffffffffffffffff16815260200190815260200160002060008282546115ca91906124cd565b92505081905550816002600083815260200190815260200160002060006101000a81548173ffffffffffffffffffffffffffffffffffffffff021916908373ffffffffffffffffffffffffffffffffffffffff160217905550808273ffffffffffffffffffffffffffffffffffffffff16600073ffffffffffffffffffffffffffffffffffffffff167fddf252ad1be2c89b69c2b068fc378daa952ba7f163c4a11628f55a4df523b3ef60405160405180910390a45050565b600080823b905060008111915050919050565b8280546116a290611e3b565b90600052602060002090601f0160209004810192826116c4576000855561170b565b82601f106116dd57805160ff191683800117855561170b565b8280016001018555821561170b579182015b8281111561170a5782518255916020019190600101906116ef565b5b509050611718919061171c565b5090565b5b8082111561173557600081600090555060010161171d565b5090565b6000604051905090565b600080fd5b600080fd5b60007fffffffff0000000000000000000000000000000000000000000000000000000082169050919050565b6117828161174d565b811461178d57600080fd5b50565b60008135905061179f81611779565b92915050565b6000602082840312156117bb576117ba611743565b5b60006117c984828501611790565b91505092915050565b60008115159050919050565b6117e7816117d2565b82525050565b600060208201905061180260008301846117de565b92915050565b600081519050919050565b600082825260208201905092915050565b60005b83811015611842578082015181840152602081019050611827565b83811115611851576000848401525b50505050565b6000601f19601f8301169050919050565b600061187382611808565b61187d8185611813565b935061188d818560208601611824565b61189681611857565b840191505092915050565b600060208201905081810360008301526118bb8184611868565b905092915050565b6000819050919050565b6118d6816118c3565b81146118e157600080fd5b50565b6000813590506118f3816118cd565b92915050565b60006020828403121561190f5761190e611743565b5b600061191d848285016118e4565b91505092915050565b600073ffffffffffffffffffffffffffffffffffffffff82169050919050565b600061195182611926565b9050919050565b61196181611946565b82525050565b600060208201905061197c6000830184611958565b92915050565b61198b81611946565b811461199657600080fd5b50565b6000813590506119a881611982565b92915050565b600080604083850312156119c5576119c4611743565b5b60006119d385828601611999565b92505060206119e4858286016118e4565b9150509250929050565b600080600060608486031215611a0757611a06611743565b5b6000611a1586828701611999565b9350506020611a2686828701611999565b9250506040611a37868287016118e4565b9150509250925092565b600060208284031215611a5757611a56611743565b5b6000611a6584828501611999565b91505092915050565b611a77816118c3565b82525050565b6000602082019050611a926000830184611a6e565b92915050565b600080fd5b600080fd5b7f4e487b7100000000000000000000000000000000000000000000000000000000600052604160045260246000fd5b611ada82611857565b810181811067ffffffffffffffff82111715611af957611af8611aa2565b5b80604052505050565b6000611b0c611739565b9050611b188282611ad1565b919050565b600067ffffffffffffffff821115611b3857611b37611aa2565b5b611b4182611857565b9050602081019050919050565b82818337600083830152505050565b6000611b70611b6b84611b1d565b611b02565b905082815260208101848484011115611b8c57611b8b611a9d565b5b611b97848285611b4e565b509392505050565b600082601f830112611bb457611bb3611a98565b5b8135611bc4848260208601611b5d565b91505092915050565b600080600060608486031215611be657611be5611743565b5b600084013567ffffffffffffffff811115611c0457611c03611748565b5b611c1086828701611b9f565b9350506020611c21868287016118e4565b9250506040611c3286828701611999565b9150509250925092565b611c45816117d2565b8114611c5057600080fd5b50565b600081359050611c6281611c3c565b92915050565b60008060408385031215611c7f57611c7e611743565b5b6000611c8d85828601611999565b9250506020611c9e85828601611c53565b9150509250929050565b600067ffffffffffffffff821115611cc357611cc2611aa2565b5b611ccc82611857565b9050602081019050919050565b6000611cec611ce784611ca8565b611b02565b905082815260208101848484011115611d0857611d07611a9d565b5b611d13848285611b4e565b509392505050565b600082601f830112611d3057611d2f611a98565b5b8135611d40848260208601611cd9565b91505092915050565b60008060008060808587031215611d6357611d62611743565b5b6000611d7187828801611999565b9450506020611d8287828801611999565b9350506040611d93878288016118e4565b925050606085013567ffffffffffffffff811115611db457611db3611748565b5b611dc087828801611d1b565b91505092959194509250565b60008060408385031215611de357611de2611743565b5b6000611df185828601611999565b9250506020611e0285828601611999565b9150509250929050565b7f4e487b7100000000000000000000000000000000000000000000000000000000600052602260045260246000fd5b60006002820490506001821680611e5357607f821691505b60208210811415611e6757611e66611e0c565b5b50919050565b7f4552433732313a20617070726f76656420717565727920666f72206e6f6e657860008201527f697374656e7420746f6b656e0000000000000000000000000000000000000000602082015250565b6000611ec9602c83611813565b9150611ed482611e6d565b604082019050919050565b60006020820190508181036000830152611ef881611ebc565b9050919050565b7f4552433732313a20617070726f76616c20746f2063757272656e74206f776e6560008201527f7200000000000000000000000000000000000000000000000000000000000000602082015250565b6000611f5b602183611813565b9150611f6682611eff565b604082019050919050565b60006020820190508181036000830152611f8a81611f4e565b9050919050565b7f4552433732313a20617070726f76652063616c6c6572206973206e6f74206f7760008201527f6e6572206e6f7220617070726f76656420666f7220616c6c0000000000000000602082015250565b6000611fed603883611813565b9150611ff882611f91565b604082019050919050565b6000602082019050818103600083015261201c81611fe0565b9050919050565b7f4552433732313a207472616e736665722063616c6c6572206973206e6f74206f60008201527f776e6572206e6f7220617070726f766564000000000000000000000000000000602082015250565b600061207f603183611813565b915061208a82612023565b604082019050919050565b600060208201905081810360008301526120ae81612072565b9050919050565b7f4552433732313a206f776e657220717565727920666f72206e6f6e657869737460008201527f656e7420746f6b656e0000000000000000000000000000000000000000000000602082015250565b6000612111602983611813565b915061211c826120b5565b604082019050919050565b6000602082019050818103600083015261214081612104565b9050919050565b7f4552433732313a2062616c616e636520717565727920666f7220746865207a6560008201527f726f206164647265737300000000000000000000000000000000000000000000602082015250565b60006121a3602a83611813565b91506121ae82612147565b604082019050919050565b600060208201905081810360008301526121d281612196565b9050919050565b7f4e487b7100000000000000000000000000000000000000000000000000000000600052601160045260246000fd5b6000612213826118c3565b91507fffffffffffffffffffffffffffffffffffffffffffffffffffffffffffffffff821415612246576122456121d9565b5b600182019050919050565b7f4552433732314d657461646174613a2055524920736574206f66206e6f6e657860008201527f697374656e7420746f6b656e0000000000000000000000000000000000000000602082015250565b60006122ad602c83611813565b91506122b882612251565b604082019050919050565b600060208201905081810360008301526122dc816122a0565b9050919050565b7f4552433732313a206f70657261746f7220717565727920666f72206e6f6e657860008201527f697374656e7420746f6b656e0000000000000000000000000000000000000000602082015250565b600061233f602c83611813565b915061234a826122e3565b604082019050919050565b6000602082019050818103600083015261236e81612332565b9050919050565b7f4552433732313a207472616e73666572206f6620746f6b656e2074686174206960008201527f73206e6f74206f776e0000000000000000000000000000000000000000000000602082015250565b60006123d1602983611813565b91506123dc82612375565b604082019050919050565b60006020820190508181036000830152612400816123c4565b9050919050565b7f4552433732313a207472616e7366657220746f20746865207a65726f2061646460008201527f7265737300000000000000000000000000000000000000000000000000000000602082015250565b6000612463602483611813565b915061246e82612407565b604082019050919050565b6000602082019050818103600083015261249281612456565b9050919050565b60006124a4826118c3565b91506124af836118c3565b9250828210156124c2576124c16121d9565b5b828203905092915050565b60006124d8826118c3565b91506124e3836118c3565b9250827fffffffffffffffffffffffffffffffffffffffffffffffffffffffffffffffff03821115612518576125176121d9565b5b828201905092915050565b600061252e82611926565b9050919050565b61253e81612523565b82525050565b60006080820190506125596000830187611a6e565b6125666020830186611a6e565b6125736040830185611958565b6125806060830184612535565b95945050505050565b7f4552433732313a20617070726f766520746f2063616c6c657200000000000000600082015250565b60006125bf601983611813565b91506125ca82612589565b602082019050919050565b600060208201905081810360008301526125ee816125b2565b9050919050565b7f4552433732313a207472616e7366657220746f206e6f6e20455243373231526560008201527f63656976657220696d706c656d656e7465720000000000000000000000000000602082015250565b6000612651603283611813565b915061265c826125f5565b604082019050919050565b6000602082019050818103600083015261268081612644565b9050919050565b600081519050919050565b600082825260208201905092915050565b60006126ae82612687565b6126b88185612692565b93506126c8818560208601611824565b6126d181611857565b840191505092915050565b60006080820190506126f16000830187611958565b6126fe6020830186611958565b61270b6040830185611a6e565b818103606083015261271d81846126a3565b905095945050505050565b60008151905061273781611779565b92915050565b60006020828403121561275357612752611743565b5b600061276184828501612728565b91505092915050565b7f4552433732313a206d696e7420746f20746865207a65726f2061646472657373600082015250565b60006127a0602083611813565b91506127ab8261276a565b602082019050919050565b600060208201905081810360008301526127cf81612793565b9050919050565b7f4552433732313a20746f6b656e20616c7265616479206d696e74656400000000600082015250565b600061280c601c83611813565b9150612817826127d6565b602082019050919050565b6000602082019050818103600083015261283b816127ff565b905091905056fea2646970667358221220214d12b4459c2dbb3438ee44d8a5462fcc8b1ce338f5b4707b4746672df555fb64736f6c634300080b0033",
  "immutableReferences": {},
  "source": "//SPDX-License-Identifier: Unlicense\r\npragma solidity ^0.8.0;\r\n\r\nimport '@openzeppelin/contracts/token/ERC721/ERC721.sol';\r\n\r\ninterface IMarket {\r\n    function createMarketAsset(\r\n        uint256 _tokenId,\r\n        uint256 _price,\r\n        address _assetFluidStreamContract,\r\n        address payable _owner\r\n    ) external;\r\n}\r\n\r\ncontract Assets is ERC721 {\r\n    uint256 public tokenCounter;\r\n    address private marketContractAddress;\r\n    // address private AssetFluidStreamContract = 0x21Fbb00b3eFa2990Aa3e0A23B56Af0153fa7eA19;\r\n    mapping(uint256 => string) private _tokenURIs;\r\n\r\n    constructor(address _marketContractAddress) ERC721('Assets', 'AST') {\r\n        tokenCounter = 0;\r\n        marketContractAddress = _marketContractAddress;\r\n    }\r\n\r\n    function mint(\r\n        string memory _tokenURI,\r\n        uint256 _price,\r\n        address AssetFluidStreamContract\r\n    ) public {\r\n        _safeMint(msg.sender, tokenCounter);\r\n        _setTokenURI(tokenCounter, _tokenURI, _price, AssetFluidStreamContract);\r\n        setApprovalForAll(marketContractAddress, true);\r\n\r\n        tokenCounter++;\r\n    }\r\n\r\n    function _setTokenURI(\r\n        uint256 _tokenId,\r\n        string memory _tokenURI,\r\n        uint256 _price,\r\n        address AssetFluidStreamContract\r\n    ) internal virtual {\r\n        require(\r\n            _exists(_tokenId),\r\n            'ERC721Metadata: URI set of nonexistent token'\r\n        ); // Checks if the tokenId exists\r\n        _tokenURIs[_tokenId] = _tokenURI;\r\n        IMarket(marketContractAddress).createMarketAsset(\r\n            _tokenId,\r\n            _price,\r\n            AssetFluidStreamContract,\r\n            payable(msg.sender)\r\n        );\r\n    }\r\n\r\n    function tokenURI(uint256 _tokenId)\r\n        public\r\n        view\r\n        virtual\r\n        override\r\n        returns (string memory)\r\n    {\r\n        require(\r\n            _exists(_tokenId),\r\n            'ERC721Metadata: URI set of nonexistent token'\r\n        );\r\n        return _tokenURIs[_tokenId];\r\n    }\r\n}\r\n",
  "sourcePath": "C:\\Users\\Jason\\0xPhotos\\apps\\blockchain\\contracts\\Assets.sol",
  "compiler": {
    "name": "solc",
    "version": "0.8.11+commit.d7f03943.Emscripten.clang"
  },
  "schemaVersion": "3.4.4",
  "updatedAt": "2022-01-15T13:41:18.968Z",
  "devdoc": {
    "kind": "dev",
    "methods": {
      "approve(address,uint256)": {
        "details": "See {IERC721-approve}."
      },
      "balanceOf(address)": {
        "details": "See {IERC721-balanceOf}."
      },
      "getApproved(uint256)": {
        "details": "See {IERC721-getApproved}."
      },
      "isApprovedForAll(address,address)": {
        "details": "See {IERC721-isApprovedForAll}."
      },
      "name()": {
        "details": "See {IERC721Metadata-name}."
      },
      "ownerOf(uint256)": {
        "details": "See {IERC721-ownerOf}."
      },
      "safeTransferFrom(address,address,uint256)": {
        "details": "See {IERC721-safeTransferFrom}."
      },
      "safeTransferFrom(address,address,uint256,bytes)": {
        "details": "See {IERC721-safeTransferFrom}."
      },
      "setApprovalForAll(address,bool)": {
        "details": "See {IERC721-setApprovalForAll}."
      },
      "supportsInterface(bytes4)": {
        "details": "See {IERC165-supportsInterface}."
      },
      "symbol()": {
        "details": "See {IERC721Metadata-symbol}."
      },
      "transferFrom(address,address,uint256)": {
        "details": "See {IERC721-transferFrom}."
      }
    },
    "version": 1
  },
  "userdoc": {
    "kind": "user",
    "methods": {},
    "version": 1
  }
}