{
  "contractName": "Licenses",
  "abi": [
    {
      "inputs": [
        {
          "internalType": "address",
          "name": "_marketContractAddress",
          "type": "address"
        }
      ],
      "stateMutability": "nonpayable",
      "type": "constructor"
    },
    {
      "anonymous": false,
      "inputs": [
        {
          "indexed": true,
          "internalType": "address",
          "name": "owner",
          "type": "address"
        },
        {
          "indexed": true,
          "internalType": "address",
          "name": "approved",
          "type": "address"
        },
        {
          "indexed": true,
          "internalType": "uint256",
          "name": "tokenId",
          "type": "uint256"
        }
      ],
      "name": "Approval",
      "type": "event"
    },
    {
      "anonymous": false,
      "inputs": [
        {
          "indexed": true,
          "internalType": "address",
          "name": "owner",
          "type": "address"
        },
        {
          "indexed": true,
          "internalType": "address",
          "name": "operator",
          "type": "address"
        },
        {
          "indexed": false,
          "internalType": "bool",
          "name": "approved",
          "type": "bool"
        }
      ],
      "name": "ApprovalForAll",
      "type": "event"
    },
    {
      "anonymous": false,
      "inputs": [
        {
          "indexed": true,
          "internalType": "address",
          "name": "from",
          "type": "address"
        },
        {
          "indexed": true,
          "internalType": "address",
          "name": "to",
          "type": "address"
        },
        {
          "indexed": true,
          "internalType": "uint256",
          "name": "tokenId",
          "type": "uint256"
        }
      ],
      "name": "Transfer",
      "type": "event"
    },
    {
      "inputs": [
        {
          "internalType": "address",
          "name": "to",
          "type": "address"
        },
        {
          "internalType": "uint256",
          "name": "tokenId",
          "type": "uint256"
        }
      ],
      "name": "approve",
      "outputs": [],
      "stateMutability": "nonpayable",
      "type": "function"
    },
    {
      "inputs": [
        {
          "internalType": "address",
          "name": "owner",
          "type": "address"
        }
      ],
      "name": "balanceOf",
      "outputs": [
        {
          "internalType": "uint256",
          "name": "",
          "type": "uint256"
        }
      ],
      "stateMutability": "view",
      "type": "function"
    },
    {
      "inputs": [
        {
          "internalType": "uint256",
          "name": "tokenId",
          "type": "uint256"
        }
      ],
      "name": "getApproved",
      "outputs": [
        {
          "internalType": "address",
          "name": "",
          "type": "address"
        }
      ],
      "stateMutability": "view",
      "type": "function"
    },
    {
      "inputs": [
        {
          "internalType": "address",
          "name": "owner",
          "type": "address"
        },
        {
          "internalType": "address",
          "name": "operator",
          "type": "address"
        }
      ],
      "name": "isApprovedForAll",
      "outputs": [
        {
          "internalType": "bool",
          "name": "",
          "type": "bool"
        }
      ],
      "stateMutability": "view",
      "type": "function"
    },
    {
      "inputs": [],
      "name": "name",
      "outputs": [
        {
          "internalType": "string",
          "name": "",
          "type": "string"
        }
      ],
      "stateMutability": "view",
      "type": "function"
    },
    {
      "inputs": [
        {
          "internalType": "uint256",
          "name": "tokenId",
          "type": "uint256"
        }
      ],
      "name": "ownerOf",
      "outputs": [
        {
          "internalType": "address",
          "name": "",
          "type": "address"
        }
      ],
      "stateMutability": "view",
      "type": "function"
    },
    {
      "inputs": [
        {
          "internalType": "address",
          "name": "from",
          "type": "address"
        },
        {
          "internalType": "address",
          "name": "to",
          "type": "address"
        },
        {
          "internalType": "uint256",
          "name": "tokenId",
          "type": "uint256"
        }
      ],
      "name": "safeTransferFrom",
      "outputs": [],
      "stateMutability": "nonpayable",
      "type": "function"
    },
    {
      "inputs": [
        {
          "internalType": "address",
          "name": "from",
          "type": "address"
        },
        {
          "internalType": "address",
          "name": "to",
          "type": "address"
        },
        {
          "internalType": "uint256",
          "name": "tokenId",
          "type": "uint256"
        },
        {
          "internalType": "bytes",
          "name": "_data",
          "type": "bytes"
        }
      ],
      "name": "safeTransferFrom",
      "outputs": [],
      "stateMutability": "nonpayable",
      "type": "function"
    },
    {
      "inputs": [
        {
          "internalType": "address",
          "name": "operator",
          "type": "address"
        },
        {
          "internalType": "bool",
          "name": "approved",
          "type": "bool"
        }
      ],
      "name": "setApprovalForAll",
      "outputs": [],
      "stateMutability": "nonpayable",
      "type": "function"
    },
    {
      "inputs": [
        {
          "internalType": "bytes4",
          "name": "interfaceId",
          "type": "bytes4"
        }
      ],
      "name": "supportsInterface",
      "outputs": [
        {
          "internalType": "bool",
          "name": "",
          "type": "bool"
        }
      ],
      "stateMutability": "view",
      "type": "function"
    },
    {
      "inputs": [],
      "name": "symbol",
      "outputs": [
        {
          "internalType": "string",
          "name": "",
          "type": "string"
        }
      ],
      "stateMutability": "view",
      "type": "function"
    },
    {
      "inputs": [],
      "name": "tokenCounter",
      "outputs": [
        {
          "internalType": "uint256",
          "name": "",
          "type": "uint256"
        }
      ],
      "stateMutability": "view",
      "type": "function"
    },
    {
      "inputs": [
        {
          "internalType": "address",
          "name": "from",
          "type": "address"
        },
        {
          "internalType": "address",
          "name": "to",
          "type": "address"
        },
        {
          "internalType": "uint256",
          "name": "tokenId",
          "type": "uint256"
        }
      ],
      "name": "transferFrom",
      "outputs": [],
      "stateMutability": "nonpayable",
      "type": "function"
    },
    {
      "inputs": [
        {
          "internalType": "string",
          "name": "_tokenURI",
          "type": "string"
        }
      ],
      "name": "mint",
      "outputs": [],
      "stateMutability": "nonpayable",
      "type": "function"
    },
    {
      "inputs": [
        {
          "internalType": "uint256",
          "name": "_tokenId",
          "type": "uint256"
        }
      ],
      "name": "tokenURI",
      "outputs": [
        {
          "internalType": "string",
          "name": "",
          "type": "string"
        }
      ],
      "stateMutability": "view",
      "type": "function"
    }
  ],
  "bytecode": "0x60806040523480156200001157600080fd5b5060405162002a3b38038062002a3b833981810160405281019062000037919062000241565b6040518060400160405280600881526020017f4c6963656e7365730000000000000000000000000000000000000000000000008152506040518060400160405280600381526020017f4c494300000000000000000000000000000000000000000000000000000000008152508160009080519060200190620000bb92919062000127565b508060019080519060200190620000d492919062000127565b505050600060068190555080600760006101000a81548173ffffffffffffffffffffffffffffffffffffffff021916908373ffffffffffffffffffffffffffffffffffffffff16021790555050620002d8565b8280546200013590620002a2565b90600052602060002090601f016020900481019282620001595760008555620001a5565b82601f106200017457805160ff1916838001178555620001a5565b82800160010185558215620001a5579182015b82811115620001a457825182559160200191906001019062000187565b5b509050620001b49190620001b8565b5090565b5b80821115620001d3576000816000905550600101620001b9565b5090565b600080fd5b600073ffffffffffffffffffffffffffffffffffffffff82169050919050565b60006200020982620001dc565b9050919050565b6200021b81620001fc565b81146200022757600080fd5b50565b6000815190506200023b8162000210565b92915050565b6000602082840312156200025a5762000259620001d7565b5b60006200026a848285016200022a565b91505092915050565b7f4e487b7100000000000000000000000000000000000000000000000000000000600052602260045260246000fd5b60006002820490506001821680620002bb57607f821691505b60208210811415620002d257620002d162000273565b5b50919050565b61275380620002e86000396000f3fe608060405234801561001057600080fd5b50600436106100f55760003560e01c806370a0823111610097578063c87b56dd11610066578063c87b56dd14610282578063d082e381146102b2578063d85d3d27146102d0578063e985e9c5146102ec576100f5565b806370a08231146101fc57806395d89b411461022c578063a22cb4651461024a578063b88d4fde14610266576100f5565b8063095ea7b3116100d3578063095ea7b31461017857806323b872dd1461019457806342842e0e146101b05780636352211e146101cc576100f5565b806301ffc9a7146100fa57806306fdde031461012a578063081812fc14610148575b600080fd5b610114600480360381019061010f919061170c565b61031c565b6040516101219190611754565b60405180910390f35b6101326103fe565b60405161013f9190611808565b60405180910390f35b610162600480360381019061015d9190611860565b610490565b60405161016f91906118ce565b60405180910390f35b610192600480360381019061018d9190611915565b610515565b005b6101ae60048036038101906101a99190611955565b61062d565b005b6101ca60048036038101906101c59190611955565b61068d565b005b6101e660048036038101906101e19190611860565b6106ad565b6040516101f391906118ce565b60405180910390f35b610216600480360381019061021191906119a8565b61075f565b60405161022391906119e4565b60405180910390f35b610234610817565b6040516102419190611808565b60405180910390f35b610264600480360381019061025f9190611a2b565b6108a9565b005b610280600480360381019061027b9190611ba0565b6108bf565b005b61029c60048036038101906102979190611860565b610921565b6040516102a99190611808565b60405180910390f35b6102ba610a0e565b6040516102c791906119e4565b60405180910390f35b6102ea60048036038101906102e59190611cc4565b610a14565b005b61030660048036038101906103019190611d0d565b610a74565b6040516103139190611754565b60405180910390f35b60007f80ac58cd000000000000000000000000000000000000000000000000000000007bffffffffffffffffffffffffffffffffffffffffffffffffffffffff1916827bffffffffffffffffffffffffffffffffffffffffffffffffffffffff191614806103e757507f5b5e139f000000000000000000000000000000000000000000000000000000007bffffffffffffffffffffffffffffffffffffffffffffffffffffffff1916827bffffffffffffffffffffffffffffffffffffffffffffffffffffffff1916145b806103f757506103f682610b08565b5b9050919050565b60606000805461040d90611d7c565b80601f016020809104026020016040519081016040528092919081815260200182805461043990611d7c565b80156104865780601f1061045b57610100808354040283529160200191610486565b820191906000526020600020905b81548152906001019060200180831161046957829003601f168201915b5050505050905090565b600061049b82610b72565b6104da576040517f08c379a00000000000000000000000000000000000000000000000000000000081526004016104d190611e20565b60405180910390fd5b6004600083815260200190815260200160002060009054906101000a900473ffffffffffffffffffffffffffffffffffffffff169050919050565b6000610520826106ad565b90508073ffffffffffffffffffffffffffffffffffffffff168373ffffffffffffffffffffffffffffffffffffffff161415610591576040517f08c379a000000000000000000000000000000000000000000000000000000000815260040161058890611eb2565b60405180910390fd5b8073ffffffffffffffffffffffffffffffffffffffff166105b0610bde565b73ffffffffffffffffffffffffffffffffffffffff1614806105df57506105de816105d9610bde565b610a74565b5b61061e576040517f08c379a000000000000000000000000000000000000000000000000000000000815260040161061590611f44565b60405180910390fd5b6106288383610be6565b505050565b61063e610638610bde565b82610c9f565b61067d576040517f08c379a000000000000000000000000000000000000000000000000000000000815260040161067490611fd6565b60405180910390fd5b610688838383610d7d565b505050565b6106a8838383604051806020016040528060008152506108bf565b505050565b6000806002600084815260200190815260200160002060009054906101000a900473ffffffffffffffffffffffffffffffffffffffff169050600073ffffffffffffffffffffffffffffffffffffffff168173ffffffffffffffffffffffffffffffffffffffff161415610756576040517f08c379a000000000000000000000000000000000000000000000000000000000815260040161074d90612068565b60405180910390fd5b80915050919050565b60008073ffffffffffffffffffffffffffffffffffffffff168273ffffffffffffffffffffffffffffffffffffffff1614156107d0576040517f08c379a00000000000000000000000000000000000000000000000000000000081526004016107c7906120fa565b60405180910390fd5b600360008373ffffffffffffffffffffffffffffffffffffffff1673ffffffffffffffffffffffffffffffffffffffff168152602001908152602001600020549050919050565b60606001805461082690611d7c565b80601f016020809104026020016040519081016040528092919081815260200182805461085290611d7c565b801561089f5780601f106108745761010080835404028352916020019161089f565b820191906000526020600020905b81548152906001019060200180831161088257829003601f168201915b5050505050905090565b6108bb6108b4610bde565b8383610fd9565b5050565b6108d06108ca610bde565b83610c9f565b61090f576040517f08c379a000000000000000000000000000000000000000000000000000000000815260040161090690611fd6565b60405180910390fd5b61091b84848484611146565b50505050565b606061092c82610b72565b61096b576040517f08c379a00000000000000000000000000000000000000000000000000000000081526004016109629061218c565b60405180910390fd5b60086000838152602001908152602001600020805461098990611d7c565b80601f01602080910402602001604051908101604052809291908181526020018280546109b590611d7c565b8015610a025780601f106109d757610100808354040283529160200191610a02565b820191906000526020600020905b8154815290600101906020018083116109e557829003601f168201915b50505050509050919050565b60065481565b610a20336006546111a2565b610a2c600654826111c0565b610a59600760009054906101000a900473ffffffffffffffffffffffffffffffffffffffff1660016108a9565b60066000815480929190610a6c906121db565b919050555050565b6000600560008473ffffffffffffffffffffffffffffffffffffffff1673ffffffffffffffffffffffffffffffffffffffff16815260200190815260200160002060008373ffffffffffffffffffffffffffffffffffffffff1673ffffffffffffffffffffffffffffffffffffffff16815260200190815260200160002060009054906101000a900460ff16905092915050565b60007f01ffc9a7000000000000000000000000000000000000000000000000000000007bffffffffffffffffffffffffffffffffffffffffffffffffffffffff1916827bffffffffffffffffffffffffffffffffffffffffffffffffffffffff1916149050919050565b60008073ffffffffffffffffffffffffffffffffffffffff166002600084815260200190815260200160002060009054906101000a900473ffffffffffffffffffffffffffffffffffffffff1673ffffffffffffffffffffffffffffffffffffffff1614159050919050565b600033905090565b816004600083815260200190815260200160002060006101000a81548173ffffffffffffffffffffffffffffffffffffffff021916908373ffffffffffffffffffffffffffffffffffffffff160217905550808273ffffffffffffffffffffffffffffffffffffffff16610c59836106ad565b73ffffffffffffffffffffffffffffffffffffffff167f8c5be1e5ebec7d5bd14f71427d1e84f3dd0314c0f7b2291e5b200ac8c7c3b92560405160405180910390a45050565b6000610caa82610b72565b610ce9576040517f08c379a0000000000000000000000000000000000000000000000000000000008152600401610ce090612296565b60405180910390fd5b6000610cf4836106ad565b90508073ffffffffffffffffffffffffffffffffffffffff168473ffffffffffffffffffffffffffffffffffffffff161480610d6357508373ffffffffffffffffffffffffffffffffffffffff16610d4b84610490565b73ffffffffffffffffffffffffffffffffffffffff16145b80610d745750610d738185610a74565b5b91505092915050565b8273ffffffffffffffffffffffffffffffffffffffff16610d9d826106ad565b73ffffffffffffffffffffffffffffffffffffffff1614610df3576040517f08c379a0000000000000000000000000000000000000000000000000000000008152600401610dea90612328565b60405180910390fd5b600073ffffffffffffffffffffffffffffffffffffffff168273ffffffffffffffffffffffffffffffffffffffff161415610e63576040517f08c379a0000000000000000000000000000000000000000000000000000000008152600401610e5a906123ba565b60405180910390fd5b610e6e838383611234565b610e79600082610be6565b6001600360008573ffffffffffffffffffffffffffffffffffffffff1673ffffffffffffffffffffffffffffffffffffffff1681526020019081526020016000206000828254610ec991906123da565b925050819055506001600360008473ffffffffffffffffffffffffffffffffffffffff1673ffffffffffffffffffffffffffffffffffffffff1681526020019081526020016000206000828254610f20919061240e565b92505081905550816002600083815260200190815260200160002060006101000a81548173ffffffffffffffffffffffffffffffffffffffff021916908373ffffffffffffffffffffffffffffffffffffffff160217905550808273ffffffffffffffffffffffffffffffffffffffff168473ffffffffffffffffffffffffffffffffffffffff167fddf252ad1be2c89b69c2b068fc378daa952ba7f163c4a11628f55a4df523b3ef60405160405180910390a4505050565b8173ffffffffffffffffffffffffffffffffffffffff168373ffffffffffffffffffffffffffffffffffffffff161415611048576040517f08c379a000000000000000000000000000000000000000000000000000000000815260040161103f906124b0565b60405180910390fd5b80600560008573ffffffffffffffffffffffffffffffffffffffff1673ffffffffffffffffffffffffffffffffffffffff16815260200190815260200160002060008473ffffffffffffffffffffffffffffffffffffffff1673ffffffffffffffffffffffffffffffffffffffff16815260200190815260200160002060006101000a81548160ff0219169083151502179055508173ffffffffffffffffffffffffffffffffffffffff168373ffffffffffffffffffffffffffffffffffffffff167f17307eab39ab6107e8899845ad3d59bd9653f200f220920489ca2b5937696c31836040516111399190611754565b60405180910390a3505050565b611151848484610d7d565b61115d84848484611239565b61119c576040517f08c379a000000000000000000000000000000000000000000000000000000000815260040161119390612542565b60405180910390fd5b50505050565b6111bc8282604051806020016040528060008152506113c1565b5050565b6111c982610b72565b611208576040517f08c379a00000000000000000000000000000000000000000000000000000000081526004016111ff9061218c565b60405180910390fd5b8060086000848152602001908152602001600020908051906020019061122f9291906115fd565b505050565b505050565b600061125a8473ffffffffffffffffffffffffffffffffffffffff1661141c565b156113b4578373ffffffffffffffffffffffffffffffffffffffff1663150b7a02611283610bde565b8786866040518563ffffffff1660e01b81526004016112a594939291906125b7565b6020604051808303816000875af19250505080156112e157506040513d601f19601f820116820180604052508101906112de9190612618565b60015b611364573d8060008114611311576040519150601f19603f3d011682016040523d82523d6000602084013e611316565b606091505b5060008151141561135c576040517f08c379a000000000000000000000000000000000000000000000000000000000815260040161135390612542565b60405180910390fd5b805181602001fd5b63150b7a0260e01b7bffffffffffffffffffffffffffffffffffffffffffffffffffffffff1916817bffffffffffffffffffffffffffffffffffffffffffffffffffffffff1916149150506113b9565b600190505b949350505050565b6113cb838361142f565b6113d86000848484611239565b611417576040517f08c379a000000000000000000000000000000000000000000000000000000000815260040161140e90612542565b60405180910390fd5b505050565b600080823b905060008111915050919050565b600073ffffffffffffffffffffffffffffffffffffffff168273ffffffffffffffffffffffffffffffffffffffff16141561149f576040517f08c379a000000000000000000000000000000000000000000000000000000000815260040161149690612691565b60405180910390fd5b6114a881610b72565b156114e8576040517f08c379a00000000000000000000000000000000000000000000000000000000081526004016114df906126fd565b60405180910390fd5b6114f460008383611234565b6001600360008473ffffffffffffffffffffffffffffffffffffffff1673ffffffffffffffffffffffffffffffffffffffff1681526020019081526020016000206000828254611544919061240e565b92505081905550816002600083815260200190815260200160002060006101000a81548173ffffffffffffffffffffffffffffffffffffffff021916908373ffffffffffffffffffffffffffffffffffffffff160217905550808273ffffffffffffffffffffffffffffffffffffffff16600073ffffffffffffffffffffffffffffffffffffffff167fddf252ad1be2c89b69c2b068fc378daa952ba7f163c4a11628f55a4df523b3ef60405160405180910390a45050565b82805461160990611d7c565b90600052602060002090601f01602090048101928261162b5760008555611672565b82601f1061164457805160ff1916838001178555611672565b82800160010185558215611672579182015b82811115611671578251825591602001919060010190611656565b5b50905061167f9190611683565b5090565b5b8082111561169c576000816000905550600101611684565b5090565b6000604051905090565b600080fd5b600080fd5b60007fffffffff0000000000000000000000000000000000000000000000000000000082169050919050565b6116e9816116b4565b81146116f457600080fd5b50565b600081359050611706816116e0565b92915050565b600060208284031215611722576117216116aa565b5b6000611730848285016116f7565b91505092915050565b60008115159050919050565b61174e81611739565b82525050565b60006020820190506117696000830184611745565b92915050565b600081519050919050565b600082825260208201905092915050565b60005b838110156117a957808201518184015260208101905061178e565b838111156117b8576000848401525b50505050565b6000601f19601f8301169050919050565b60006117da8261176f565b6117e4818561177a565b93506117f481856020860161178b565b6117fd816117be565b840191505092915050565b6000602082019050818103600083015261182281846117cf565b905092915050565b6000819050919050565b61183d8161182a565b811461184857600080fd5b50565b60008135905061185a81611834565b92915050565b600060208284031215611876576118756116aa565b5b60006118848482850161184b565b91505092915050565b600073ffffffffffffffffffffffffffffffffffffffff82169050919050565b60006118b88261188d565b9050919050565b6118c8816118ad565b82525050565b60006020820190506118e360008301846118bf565b92915050565b6118f2816118ad565b81146118fd57600080fd5b50565b60008135905061190f816118e9565b92915050565b6000806040838503121561192c5761192b6116aa565b5b600061193a85828601611900565b925050602061194b8582860161184b565b9150509250929050565b60008060006060848603121561196e5761196d6116aa565b5b600061197c86828701611900565b935050602061198d86828701611900565b925050604061199e8682870161184b565b9150509250925092565b6000602082840312156119be576119bd6116aa565b5b60006119cc84828501611900565b91505092915050565b6119de8161182a565b82525050565b60006020820190506119f960008301846119d5565b92915050565b611a0881611739565b8114611a1357600080fd5b50565b600081359050611a25816119ff565b92915050565b60008060408385031215611a4257611a416116aa565b5b6000611a5085828601611900565b9250506020611a6185828601611a16565b9150509250929050565b600080fd5b600080fd5b7f4e487b7100000000000000000000000000000000000000000000000000000000600052604160045260246000fd5b611aad826117be565b810181811067ffffffffffffffff82111715611acc57611acb611a75565b5b80604052505050565b6000611adf6116a0565b9050611aeb8282611aa4565b919050565b600067ffffffffffffffff821115611b0b57611b0a611a75565b5b611b14826117be565b9050602081019050919050565b82818337600083830152505050565b6000611b43611b3e84611af0565b611ad5565b905082815260208101848484011115611b5f57611b5e611a70565b5b611b6a848285611b21565b509392505050565b600082601f830112611b8757611b86611a6b565b5b8135611b97848260208601611b30565b91505092915050565b60008060008060808587031215611bba57611bb96116aa565b5b6000611bc887828801611900565b9450506020611bd987828801611900565b9350506040611bea8782880161184b565b925050606085013567ffffffffffffffff811115611c0b57611c0a6116af565b5b611c1787828801611b72565b91505092959194509250565b600067ffffffffffffffff821115611c3e57611c3d611a75565b5b611c47826117be565b9050602081019050919050565b6000611c67611c6284611c23565b611ad5565b905082815260208101848484011115611c8357611c82611a70565b5b611c8e848285611b21565b509392505050565b600082601f830112611cab57611caa611a6b565b5b8135611cbb848260208601611c54565b91505092915050565b600060208284031215611cda57611cd96116aa565b5b600082013567ffffffffffffffff811115611cf857611cf76116af565b5b611d0484828501611c96565b91505092915050565b60008060408385031215611d2457611d236116aa565b5b6000611d3285828601611900565b9250506020611d4385828601611900565b9150509250929050565b7f4e487b7100000000000000000000000000000000000000000000000000000000600052602260045260246000fd5b60006002820490506001821680611d9457607f821691505b60208210811415611da857611da7611d4d565b5b50919050565b7f4552433732313a20617070726f76656420717565727920666f72206e6f6e657860008201527f697374656e7420746f6b656e0000000000000000000000000000000000000000602082015250565b6000611e0a602c8361177a565b9150611e1582611dae565b604082019050919050565b60006020820190508181036000830152611e3981611dfd565b9050919050565b7f4552433732313a20617070726f76616c20746f2063757272656e74206f776e6560008201527f7200000000000000000000000000000000000000000000000000000000000000602082015250565b6000611e9c60218361177a565b9150611ea782611e40565b604082019050919050565b60006020820190508181036000830152611ecb81611e8f565b9050919050565b7f4552433732313a20617070726f76652063616c6c6572206973206e6f74206f7760008201527f6e6572206e6f7220617070726f76656420666f7220616c6c0000000000000000602082015250565b6000611f2e60388361177a565b9150611f3982611ed2565b604082019050919050565b60006020820190508181036000830152611f5d81611f21565b9050919050565b7f4552433732313a207472616e736665722063616c6c6572206973206e6f74206f60008201527f776e6572206e6f7220617070726f766564000000000000000000000000000000602082015250565b6000611fc060318361177a565b9150611fcb82611f64565b604082019050919050565b60006020820190508181036000830152611fef81611fb3565b9050919050565b7f4552433732313a206f776e657220717565727920666f72206e6f6e657869737460008201527f656e7420746f6b656e0000000000000000000000000000000000000000000000602082015250565b600061205260298361177a565b915061205d82611ff6565b604082019050919050565b6000602082019050818103600083015261208181612045565b9050919050565b7f4552433732313a2062616c616e636520717565727920666f7220746865207a6560008201527f726f206164647265737300000000000000000000000000000000000000000000602082015250565b60006120e4602a8361177a565b91506120ef82612088565b604082019050919050565b60006020820190508181036000830152612113816120d7565b9050919050565b7f4552433732314d657461646174613a2055524920736574206f66206e6f6e657860008201527f697374656e7420746f6b656e0000000000000000000000000000000000000000602082015250565b6000612176602c8361177a565b91506121818261211a565b604082019050919050565b600060208201905081810360008301526121a581612169565b9050919050565b7f4e487b7100000000000000000000000000000000000000000000000000000000600052601160045260246000fd5b60006121e68261182a565b91507fffffffffffffffffffffffffffffffffffffffffffffffffffffffffffffffff821415612219576122186121ac565b5b600182019050919050565b7f4552433732313a206f70657261746f7220717565727920666f72206e6f6e657860008201527f697374656e7420746f6b656e0000000000000000000000000000000000000000602082015250565b6000612280602c8361177a565b915061228b82612224565b604082019050919050565b600060208201905081810360008301526122af81612273565b9050919050565b7f4552433732313a207472616e73666572206f6620746f6b656e2074686174206960008201527f73206e6f74206f776e0000000000000000000000000000000000000000000000602082015250565b600061231260298361177a565b915061231d826122b6565b604082019050919050565b6000602082019050818103600083015261234181612305565b9050919050565b7f4552433732313a207472616e7366657220746f20746865207a65726f2061646460008201527f7265737300000000000000000000000000000000000000000000000000000000602082015250565b60006123a460248361177a565b91506123af82612348565b604082019050919050565b600060208201905081810360008301526123d381612397565b9050919050565b60006123e58261182a565b91506123f08361182a565b925082821015612403576124026121ac565b5b828203905092915050565b60006124198261182a565b91506124248361182a565b9250827fffffffffffffffffffffffffffffffffffffffffffffffffffffffffffffffff03821115612459576124586121ac565b5b828201905092915050565b7f4552433732313a20617070726f766520746f2063616c6c657200000000000000600082015250565b600061249a60198361177a565b91506124a582612464565b602082019050919050565b600060208201905081810360008301526124c98161248d565b9050919050565b7f4552433732313a207472616e7366657220746f206e6f6e20455243373231526560008201527f63656976657220696d706c656d656e7465720000000000000000000000000000602082015250565b600061252c60328361177a565b9150612537826124d0565b604082019050919050565b6000602082019050818103600083015261255b8161251f565b9050919050565b600081519050919050565b600082825260208201905092915050565b600061258982612562565b612593818561256d565b93506125a381856020860161178b565b6125ac816117be565b840191505092915050565b60006080820190506125cc60008301876118bf565b6125d960208301866118bf565b6125e660408301856119d5565b81810360608301526125f8818461257e565b905095945050505050565b600081519050612612816116e0565b92915050565b60006020828403121561262e5761262d6116aa565b5b600061263c84828501612603565b91505092915050565b7f4552433732313a206d696e7420746f20746865207a65726f2061646472657373600082015250565b600061267b60208361177a565b915061268682612645565b602082019050919050565b600060208201905081810360008301526126aa8161266e565b9050919050565b7f4552433732313a20746f6b656e20616c7265616479206d696e74656400000000600082015250565b60006126e7601c8361177a565b91506126f2826126b1565b602082019050919050565b60006020820190508181036000830152612716816126da565b905091905056fea2646970667358221220caad2a7aa52adc37a991bd148f85f900b70ca99c49107864a82b4536872ae21864736f6c634300080b0033",
  "immutableReferences": {},
  "source": "//SPDX-License-Identifier: Unlicense\r\npragma solidity ^0.8.0;\r\n\r\nimport '@openzeppelin/contracts/token/ERC721/ERC721.sol';\r\n\r\ncontract Licenses is ERC721 {\r\n    uint256 public tokenCounter;\r\n    address private marketContractAddress;\r\n    mapping(uint256 => string) private _tokenURIs;\r\n\r\n    constructor(address _marketContractAddress) ERC721('Licenses', 'LIC') {\r\n        tokenCounter = 0;\r\n        marketContractAddress = _marketContractAddress;\r\n    }\r\n\r\n    function mint(string memory _tokenURI) public {\r\n        _safeMint(msg.sender, tokenCounter);\r\n        _setTokenURI(tokenCounter, _tokenURI);\r\n        setApprovalForAll(marketContractAddress, true);\r\n\r\n        tokenCounter++;\r\n    }\r\n\r\n    function _setTokenURI(uint256 _tokenId, string memory _tokenURI)\r\n        internal\r\n        virtual\r\n    {\r\n        require(\r\n            _exists(_tokenId),\r\n            'ERC721Metadata: URI set of nonexistent token'\r\n        ); // Checks if the tokenId exists\r\n        _tokenURIs[_tokenId] = _tokenURI;\r\n    }\r\n\r\n    function tokenURI(uint256 _tokenId)\r\n        public\r\n        view\r\n        virtual\r\n        override\r\n        returns (string memory)\r\n    {\r\n        require(\r\n            _exists(_tokenId),\r\n            'ERC721Metadata: URI set of nonexistent token'\r\n        );\r\n        return _tokenURIs[_tokenId];\r\n    }\r\n}\r\n",
  "sourcePath": "C:\\Users\\Jason\\0xPhotos\\apps\\blockchain\\contracts\\Licenses.sol",
  "compiler": {
    "name": "solc",
    "version": "0.8.11+commit.d7f03943.Emscripten.clang"
  },
  "schemaVersion": "3.4.4",
  "updatedAt": "2022-01-15T13:41:18.993Z",
  "devdoc": {
    "kind": "dev",
    "methods": {
      "approve(address,uint256)": {
        "details": "See {IERC721-approve}."
      },
      "balanceOf(address)": {
        "details": "See {IERC721-balanceOf}."
      },
      "getApproved(uint256)": {
        "details": "See {IERC721-getApproved}."
      },
      "isApprovedForAll(address,address)": {
        "details": "See {IERC721-isApprovedForAll}."
      },
      "name()": {
        "details": "See {IERC721Metadata-name}."
      },
      "ownerOf(uint256)": {
        "details": "See {IERC721-ownerOf}."
      },
      "safeTransferFrom(address,address,uint256)": {
        "details": "See {IERC721-safeTransferFrom}."
      },
      "safeTransferFrom(address,address,uint256,bytes)": {
        "details": "See {IERC721-safeTransferFrom}."
      },
      "setApprovalForAll(address,bool)": {
        "details": "See {IERC721-setApprovalForAll}."
      },
      "supportsInterface(bytes4)": {
        "details": "See {IERC165-supportsInterface}."
      },
      "symbol()": {
        "details": "See {IERC721Metadata-symbol}."
      },
      "transferFrom(address,address,uint256)": {
        "details": "See {IERC721-transferFrom}."
      }
    },
    "version": 1
  },
  "userdoc": {
    "kind": "user",
    "methods": {},
    "version": 1
  }
}