{
  "contractName": "Marketplace",
  "abi": [
    {
      "inputs": [],
      "stateMutability": "nonpayable",
      "type": "constructor"
    },
    {
      "anonymous": false,
      "inputs": [
        {
          "indexed": true,
          "internalType": "uint256",
          "name": "itemId",
          "type": "uint256"
        },
        {
          "indexed": true,
          "internalType": "uint256",
          "name": "tokenId",
          "type": "uint256"
        },
        {
          "indexed": false,
          "internalType": "address",
          "name": "AssetFluidStreamContract",
          "type": "address"
        },
        {
          "indexed": false,
          "internalType": "address",
          "name": "owner",
          "type": "address"
        },
        {
          "indexed": false,
          "internalType": "uint256",
          "name": "price",
          "type": "uint256"
        }
      ],
      "name": "MarketAssetStatus",
      "type": "event"
    },
    {
      "inputs": [],
      "name": "getMarketCommissionPrice",
      "outputs": [
        {
          "internalType": "uint256",
          "name": "",
          "type": "uint256"
        }
      ],
      "stateMutability": "view",
      "type": "function"
    },
    {
      "inputs": [],
      "name": "getOwner",
      "outputs": [
        {
          "internalType": "address",
          "name": "",
          "type": "address"
        }
      ],
      "stateMutability": "view",
      "type": "function"
    },
    {
      "inputs": [],
      "name": "getOwnerBalance",
      "outputs": [
        {
          "internalType": "uint256",
          "name": "",
          "type": "uint256"
        }
      ],
      "stateMutability": "view",
      "type": "function"
    },
    {
      "inputs": [
        {
          "internalType": "uint256",
          "name": "tokenId",
          "type": "uint256"
        },
        {
          "internalType": "uint256",
          "name": "price",
          "type": "uint256"
        },
        {
          "internalType": "address",
          "name": "AssetFluidStreamContract",
          "type": "address"
        },
        {
          "internalType": "address payable",
          "name": "newOwner",
          "type": "address"
        }
      ],
      "name": "createMarketAsset",
      "outputs": [],
      "stateMutability": "payable",
      "type": "function"
    },
    {
      "inputs": [],
      "name": "fetchMarketAssets",
      "outputs": [
        {
          "components": [
            {
              "internalType": "uint256",
              "name": "itemId",
              "type": "uint256"
            },
            {
              "internalType": "uint256",
              "name": "assetTokenId",
              "type": "uint256"
            },
            {
              "internalType": "address",
              "name": "AssetFluidStreamContract",
              "type": "address"
            },
            {
              "internalType": "address payable",
              "name": "owner",
              "type": "address"
            },
            {
              "internalType": "uint256",
              "name": "price",
              "type": "uint256"
            },
            {
              "internalType": "bool",
              "name": "available",
              "type": "bool"
            }
          ],
          "internalType": "struct Marketplace.MarketAsset[]",
          "name": "",
          "type": "tuple[]"
        }
      ],
      "stateMutability": "view",
      "type": "function"
    },
    {
      "inputs": [
        {
          "internalType": "uint256",
          "name": "itemId",
          "type": "uint256"
        },
        {
          "internalType": "address",
          "name": "_assetStreamContract",
          "type": "address"
        },
        {
          "internalType": "address",
          "name": "_assetNftContract",
          "type": "address"
        }
      ],
      "name": "purchaseAsset",
      "outputs": [],
      "stateMutability": "payable",
      "type": "function"
    },
    {
      "inputs": [],
      "name": "fetchMyAssets",
      "outputs": [
        {
          "components": [
            {
              "internalType": "uint256",
              "name": "itemId",
              "type": "uint256"
            },
            {
              "internalType": "uint256",
              "name": "assetTokenId",
              "type": "uint256"
            },
            {
              "internalType": "address",
              "name": "AssetFluidStreamContract",
              "type": "address"
            },
            {
              "internalType": "address payable",
              "name": "owner",
              "type": "address"
            },
            {
              "internalType": "uint256",
              "name": "price",
              "type": "uint256"
            },
            {
              "internalType": "bool",
              "name": "available",
              "type": "bool"
            }
          ],
          "internalType": "struct Marketplace.MarketAsset[]",
          "name": "",
          "type": "tuple[]"
        }
      ],
      "stateMutability": "view",
      "type": "function"
    }
  ],
  "bytecode": "0x60806040526658d15e1762800060035534801561001b57600080fd5b50600160008190555033600260006101000a81548173ffffffffffffffffffffffffffffffffffffffff021916908373ffffffffffffffffffffffffffffffffffffffff1602179055506114e1806100746000396000f3fe6080604052600436106100705760003560e01c8063893d20e81161004e578063893d20e8146100e7578063bb8c980114610112578063bbf998861461013d578063c9999e201461016857610070565b80632f936acd14610075578063590791f214610091578063811e4214146100bc575b600080fd5b61008f600480360381019061008a9190610e43565b610184565b005b34801561009d57600080fd5b506100a66103b6565b6040516100b39190610eb9565b60405180910390f35b3480156100c857600080fd5b506100d1610487565b6040516100de9190610eb9565b60405180910390f35b3480156100f357600080fd5b506100fc610491565b6040516101099190610ee3565b60405180910390f35b34801561011e57600080fd5b5061012761054b565b6040516101349190611070565b60405180910390f35b34801561014957600080fd5b50610152610724565b60405161015f9190611070565b60405180910390f35b610182600480360381019061017d9190611092565b610a1c565b005b600260005414156101ca576040517f08c379a00000000000000000000000000000000000000000000000000000000081526004016101c190611142565b60405180910390fd5b600260008190555060008311610215576040517f08c379a000000000000000000000000000000000000000000000000000000000815260040161020c906111ae565b60405180910390fd5b61021f6001610ce4565b600061022b6001610cfa565b90506040518060c001604052808281526020018681526020018473ffffffffffffffffffffffffffffffffffffffff1681526020018373ffffffffffffffffffffffffffffffffffffffff1681526020018581526020016001151581525060046000838152602001908152602001600020600082015181600001556020820151816001015560408201518160020160006101000a81548173ffffffffffffffffffffffffffffffffffffffff021916908373ffffffffffffffffffffffffffffffffffffffff16021790555060608201518160030160006101000a81548173ffffffffffffffffffffffffffffffffffffffff021916908373ffffffffffffffffffffffffffffffffffffffff1602179055506080820151816004015560a08201518160050160006101000a81548160ff02191690831515021790555090505084817edc3abf169f20ca3a229c5194d9d58ee0bd6468df18928aad9fd9f84e22fc1685338860405161039f939291906111ce565b60405180910390a350600160008190555050505050565b6000600260009054906101000a900473ffffffffffffffffffffffffffffffffffffffff1673ffffffffffffffffffffffffffffffffffffffff163373ffffffffffffffffffffffffffffffffffffffff1614610448576040517f08c379a000000000000000000000000000000000000000000000000000000000815260040161043f90611251565b60405180910390fd5b600260009054906101000a900473ffffffffffffffffffffffffffffffffffffffff1673ffffffffffffffffffffffffffffffffffffffff1631905090565b6000600354905090565b6000600260009054906101000a900473ffffffffffffffffffffffffffffffffffffffff1673ffffffffffffffffffffffffffffffffffffffff163373ffffffffffffffffffffffffffffffffffffffff1614610523576040517f08c379a000000000000000000000000000000000000000000000000000000000815260040161051a90611251565b60405180910390fd5b600260009054906101000a900473ffffffffffffffffffffffffffffffffffffffff16905090565b606060006105596001610cfa565b90506000808267ffffffffffffffff81111561057857610577611271565b5b6040519080825280602002602001820160405280156105b157816020015b61059e610d08565b8152602001906001900390816105965790505b50905060005b8381101561071a5760006001826105ce91906112cf565b90506000600460008381526020019081526020016000209050806040518060c001604052908160008201548152602001600182015481526020016002820160009054906101000a900473ffffffffffffffffffffffffffffffffffffffff1673ffffffffffffffffffffffffffffffffffffffff1673ffffffffffffffffffffffffffffffffffffffff1681526020016003820160009054906101000a900473ffffffffffffffffffffffffffffffffffffffff1673ffffffffffffffffffffffffffffffffffffffff1673ffffffffffffffffffffffffffffffffffffffff168152602001600482015481526020016005820160009054906101000a900460ff1615151515815250508486815181106106eb576106ea611325565b5b602002602001018190525060018561070391906112cf565b94505050808061071290611354565b9150506105b7565b5080935050505090565b606060006107326001610cfa565b905060008060005b838110156107db573373ffffffffffffffffffffffffffffffffffffffff166004600060018461076a91906112cf565b815260200190815260200160002060030160009054906101000a900473ffffffffffffffffffffffffffffffffffffffff1673ffffffffffffffffffffffffffffffffffffffff1614156107c8576001836107c591906112cf565b92505b80806107d390611354565b91505061073a565b5060008267ffffffffffffffff8111156107f8576107f7611271565b5b60405190808252806020026020018201604052801561083157816020015b61081e610d08565b8152602001906001900390816108165790505b50905060005b84811015610a11573373ffffffffffffffffffffffffffffffffffffffff166004600060018461086791906112cf565b815260200190815260200160002060030160009054906101000a900473ffffffffffffffffffffffffffffffffffffffff1673ffffffffffffffffffffffffffffffffffffffff1614156109fe5760006001826108c491906112cf565b90506000600460008381526020019081526020016000209050806040518060c001604052908160008201548152602001600182015481526020016002820160009054906101000a900473ffffffffffffffffffffffffffffffffffffffff1673ffffffffffffffffffffffffffffffffffffffff1673ffffffffffffffffffffffffffffffffffffffff1681526020016003820160009054906101000a900473ffffffffffffffffffffffffffffffffffffffff1673ffffffffffffffffffffffffffffffffffffffff1673ffffffffffffffffffffffffffffffffffffffff168152602001600482015481526020016005820160009054906101000a900460ff1615151515815250508486815181106109e1576109e0611325565b5b60200260200101819052506001856109f991906112cf565b945050505b8080610a0990611354565b915050610837565b508094505050505090565b60026000541415610a62576040517f08c379a0000000000000000000000000000000000000000000000000000000008152600401610a5990611142565b60405180910390fd5b600260008190555060006004600085815260200190815260200160002060040154905060006004600086815260200190815260200160002060030160009054906101000a900473ffffffffffffffffffffffffffffffffffffffff1690506000600460008781526020019081526020016000206001015490506000339050833414610b22576040517f08c379a0000000000000000000000000000000000000000000000000000000008152600401610b199061140f565b60405180910390fd5b8473ffffffffffffffffffffffffffffffffffffffff166342842e0e8483856040518463ffffffff1660e01b8152600401610b5f939291906111ce565b600060405180830381600087803b158015610b7957600080fd5b505af1158015610b8d573d6000803e3d6000fd5b505050508573ffffffffffffffffffffffffffffffffffffffff166323b872dd848360016040518463ffffffff1660e01b8152600401610bcf93929190611474565b600060405180830381600087803b158015610be957600080fd5b505af1158015610bfd573d6000803e3d6000fd5b505050506004600088815260200190815260200160002060030160009054906101000a900473ffffffffffffffffffffffffffffffffffffffff1673ffffffffffffffffffffffffffffffffffffffff166108fc349081150290604051600060405180830381858888f19350505050158015610c7d573d6000803e3d6000fd5b50806004600089815260200190815260200160002060030160006101000a81548173ffffffffffffffffffffffffffffffffffffffff021916908373ffffffffffffffffffffffffffffffffffffffff160217905550505050506001600081905550505050565b6001816000016000828254019250508190555050565b600081600001549050919050565b6040518060c001604052806000815260200160008152602001600073ffffffffffffffffffffffffffffffffffffffff168152602001600073ffffffffffffffffffffffffffffffffffffffff168152602001600081526020016000151581525090565b600080fd5b6000819050919050565b610d8481610d71565b8114610d8f57600080fd5b50565b600081359050610da181610d7b565b92915050565b600073ffffffffffffffffffffffffffffffffffffffff82169050919050565b6000610dd282610da7565b9050919050565b610de281610dc7565b8114610ded57600080fd5b50565b600081359050610dff81610dd9565b92915050565b6000610e1082610da7565b9050919050565b610e2081610e05565b8114610e2b57600080fd5b50565b600081359050610e3d81610e17565b92915050565b60008060008060808587031215610e5d57610e5c610d6c565b5b6000610e6b87828801610d92565b9450506020610e7c87828801610d92565b9350506040610e8d87828801610df0565b9250506060610e9e87828801610e2e565b91505092959194509250565b610eb381610d71565b82525050565b6000602082019050610ece6000830184610eaa565b92915050565b610edd81610dc7565b82525050565b6000602082019050610ef86000830184610ed4565b92915050565b600081519050919050565b600082825260208201905092915050565b6000819050602082019050919050565b610f3381610d71565b82525050565b610f4281610dc7565b82525050565b610f5181610e05565b82525050565b60008115159050919050565b610f6c81610f57565b82525050565b60c082016000820151610f886000850182610f2a565b506020820151610f9b6020850182610f2a565b506040820151610fae6040850182610f39565b506060820151610fc16060850182610f48565b506080820151610fd46080850182610f2a565b5060a0820151610fe760a0850182610f63565b50505050565b6000610ff98383610f72565b60c08301905092915050565b6000602082019050919050565b600061101d82610efe565b6110278185610f09565b935061103283610f1a565b8060005b8381101561106357815161104a8882610fed565b975061105583611005565b925050600181019050611036565b5085935050505092915050565b6000602082019050818103600083015261108a8184611012565b905092915050565b6000806000606084860312156110ab576110aa610d6c565b5b60006110b986828701610d92565b93505060206110ca86828701610df0565b92505060406110db86828701610df0565b9150509250925092565b600082825260208201905092915050565b7f5265656e7472616e637947756172643a207265656e7472616e742063616c6c00600082015250565b600061112c601f836110e5565b9150611137826110f6565b602082019050919050565b6000602082019050818103600083015261115b8161111f565b9050919050565b7f5072696365206d7573742062652067726561746572207468616e203000000000600082015250565b6000611198601c836110e5565b91506111a382611162565b602082019050919050565b600060208201905081810360008301526111c78161118b565b9050919050565b60006060820190506111e36000830186610ed4565b6111f06020830185610ed4565b6111fd6040830184610eaa565b949350505050565b7f5265737472696374656420746f206f776e657200000000000000000000000000600082015250565b600061123b6013836110e5565b915061124682611205565b602082019050919050565b6000602082019050818103600083015261126a8161122e565b9050919050565b7f4e487b7100000000000000000000000000000000000000000000000000000000600052604160045260246000fd5b7f4e487b7100000000000000000000000000000000000000000000000000000000600052601160045260246000fd5b60006112da82610d71565b91506112e583610d71565b9250827fffffffffffffffffffffffffffffffffffffffffffffffffffffffffffffffff0382111561131a576113196112a0565b5b828201905092915050565b7f4e487b7100000000000000000000000000000000000000000000000000000000600052603260045260246000fd5b600061135f82610d71565b91507fffffffffffffffffffffffffffffffffffffffffffffffffffffffffffffffff821415611392576113916112a0565b5b600182019050919050565b7f506c65617365207375626d6974207468652061736b696e67207072696365206960008201527f6e206f7264657220746f20636f6d706c65746520746865207075726368617365602082015250565b60006113f96040836110e5565b91506114048261139d565b604082019050919050565b60006020820190508181036000830152611428816113ec565b9050919050565b6000819050919050565b6000819050919050565b600061145e6114596114548461142f565b611439565b610d71565b9050919050565b61146e81611443565b82525050565b60006060820190506114896000830186610ed4565b6114966020830185610ed4565b6114a36040830184611465565b94935050505056fea26469706673582212202ef16b21c6890d0768e3ef06c51d1bf7e4c2865079a7eac1ea3e71e651af55cb64736f6c634300080b0033",
  "immutableReferences": {},
  "source": "// SPDX-License-Identifier: MIT OR Apache-2.0\r\npragma solidity ^0.8.0;\r\n\r\nimport '@openzeppelin/contracts/utils/Counters.sol';\r\nimport '@openzeppelin/contracts/security/ReentrancyGuard.sol';\r\n\r\ninterface ITradeableCashFlow {\r\n    function approve(address to, uint256 tokenId) external;\r\n\r\n    function transferFrom(\r\n        address from,\r\n        address to,\r\n        uint256 tokenId\r\n    ) external;\r\n}\r\n\r\ninterface IERC721 {\r\n    function safeTransferFrom(\r\n        address from,\r\n        address to,\r\n        uint256 tokenId\r\n    ) external;\r\n}\r\n\r\ncontract Marketplace is ReentrancyGuard {\r\n    using Counters for Counters.Counter;\r\n    Counters.Counter private _AssetIds; // The next asset id to be issued\r\n\r\n    address payable owner; // The owner of the NFTMarket contract\r\n    uint256 marketCommission = 0.025 ether; // the fee for selling an license\r\n\r\n    constructor() {\r\n        owner = payable(msg.sender);\r\n    }\r\n\r\n    struct MarketAsset {\r\n        uint256 itemId; // unique id of the item\r\n        // address nftAssetContract; // address of the contract that holds the NFT\r\n        uint256 assetTokenId; // unique nft id of the asset\r\n        address AssetFluidStreamContract; // address to the nft income stream\r\n        address payable owner; // address of the asset owner\r\n        uint256 price; // price of the item\r\n        bool available; // is the item available\r\n    }\r\n\r\n    // Market itemID ->MarketAsset\r\n    mapping(uint256 => MarketAsset) private idToMarketAsset;\r\n\r\n    event MarketAssetStatus(\r\n        uint256 indexed itemId, // unique id of the item\r\n        uint256 indexed tokenId, // unique id of the token\r\n        address AssetFluidStreamContract, // address to the nft income stream\r\n        address owner, // address of the asset owner\r\n        uint256 price // price of the item\r\n    );\r\n\r\n    modifier onlyOwner() {\r\n        require(msg.sender == owner, 'Restricted to owner');\r\n        _;\r\n    }\r\n\r\n    // Returns the listing price of the contract\r\n    function getMarketCommissionPrice() external view returns (uint256) {\r\n        return marketCommission;\r\n    }\r\n\r\n    function getOwner() external view onlyOwner returns (address) {\r\n        return owner;\r\n    }\r\n\r\n    function getOwnerBalance() external view onlyOwner returns (uint256) {\r\n        return owner.balance;\r\n    }\r\n\r\n    /* Places an asset for sale on the marketplace */\r\n    function createMarketAsset(\r\n        // address nftAssetContract,\r\n        uint256 tokenId,\r\n        uint256 price,\r\n        address AssetFluidStreamContract,\r\n        address payable newOwner\r\n    ) external payable nonReentrant {\r\n        require(price > 0, 'Price must be greater than 0');\r\n\r\n        // Add a new asset id to the marketplace inventory\r\n        _AssetIds.increment();\r\n\r\n        // Retrieve the current asset id\r\n        uint256 itemId = _AssetIds.current();\r\n\r\n        // Create the market asset\r\n        idToMarketAsset[itemId] = MarketAsset(\r\n            itemId, // unique id of the item\r\n            // nftAssetContract, // address of the contract that holds the NFT\r\n            tokenId, // unique id of the nft asset\r\n            AssetFluidStreamContract, // address to the nft income stream\r\n            payable(newOwner), // address of the asset owner\r\n            price, // price of the asset\r\n            true // item is available for sale\r\n        );\r\n\r\n        emit MarketAssetStatus(\r\n            itemId, // unique id of the item\r\n            // nftAssetContract, // address of the contract that holds the NFT\r\n            tokenId, // unique id of the nft asset\r\n            AssetFluidStreamContract, // address to the nft income stream\r\n            msg.sender, // address of the asset owner\r\n            price // price of the asset\r\n        );\r\n    }\r\n\r\n    // Returns all unsold market items\r\n    function fetchMarketAssets() external view returns (MarketAsset[] memory) {\r\n        uint256 itemCount = _AssetIds.current();\r\n        // uint256 unsoldItemCount = _AssetIds.current() - _LicensesSold.current();\r\n        uint256 currentIndex = 0;\r\n\r\n        MarketAsset[] memory items = new MarketAsset[](itemCount);\r\n        for (uint256 i = 0; i < itemCount; i++) {\r\n            // if (idToMarketAsset[i + 1].owner == address(0)) {\r\n            uint256 currentId = i + 1;\r\n            MarketAsset storage currentItem = idToMarketAsset[currentId];\r\n            items[currentIndex] = currentItem;\r\n            currentIndex += 1;\r\n            // }\r\n        }\r\n        return items;\r\n    }\r\n\r\n    function purchaseAsset(\r\n        uint256 itemId,\r\n        address _assetStreamContract,\r\n        address _assetNftContract\r\n    ) external payable nonReentrant {\r\n        uint256 price = idToMarketAsset[itemId].price;\r\n        address currentOwner = idToMarketAsset[itemId].owner;\r\n        uint256 tokenId = idToMarketAsset[itemId].assetTokenId;\r\n        address purchaser = msg.sender;\r\n        require(\r\n            msg.value == price,\r\n            'Please submit the asking price in order to complete the purchase'\r\n        );\r\n        //Transfer Asset NFT ownership\r\n        IERC721(_assetNftContract).safeTransferFrom(\r\n            currentOwner,\r\n            purchaser,\r\n            tokenId\r\n        );\r\n\r\n        //Transfer Asset NFT Income Streams\r\n        ITradeableCashFlow(_assetStreamContract).transferFrom(\r\n            currentOwner,\r\n            purchaser,\r\n            1\r\n        );\r\n\r\n        //Transfer value\r\n        idToMarketAsset[itemId].owner.transfer(msg.value);\r\n        idToMarketAsset[itemId].owner = payable(purchaser);\r\n    }\r\n\r\n    //Returns only items a user has created\r\n    function fetchMyAssets() external view returns (MarketAsset[] memory) {\r\n        uint256 totalItemCount = _AssetIds.current();\r\n        uint256 itemCount = 0;\r\n        uint256 currentIndex = 0;\r\n\r\n        for (uint256 i = 0; i < totalItemCount; i++) {\r\n            if (idToMarketAsset[i + 1].owner == msg.sender) {\r\n                itemCount += 1;\r\n            }\r\n        }\r\n\r\n        MarketAsset[] memory items = new MarketAsset[](itemCount);\r\n        for (uint256 i = 0; i < totalItemCount; i++) {\r\n            if (idToMarketAsset[i + 1].owner == msg.sender) {\r\n                uint256 currentId = i + 1;\r\n                MarketAsset storage currentItem = idToMarketAsset[currentId];\r\n                items[currentIndex] = currentItem;\r\n                currentIndex += 1;\r\n            }\r\n        }\r\n        return items;\r\n    }\r\n}\r\n",
  "sourcePath": "C:\\Users\\Jason\\0xPhotos\\apps\\blockchain\\contracts\\Market.sol",
  "compiler": {
    "name": "solc",
    "version": "0.8.11+commit.d7f03943.Emscripten.clang"
  },
  "schemaVersion": "3.4.4",
  "updatedAt": "2022-01-14T22:43:25.653Z",
  "devdoc": {
    "kind": "dev",
    "methods": {},
    "version": 1
  },
  "userdoc": {
    "kind": "user",
    "methods": {},
    "version": 1
  }
}