{
  "contractName": "RedirectAll",
  "abi": [
    {
      "inputs": [
        {
          "internalType": "contract ISuperfluid",
          "name": "host",
          "type": "address"
        },
        {
          "internalType": "contract IConstantFlowAgreementV1",
          "name": "cfa",
          "type": "address"
        },
        {
          "internalType": "contract ISuperToken",
          "name": "acceptedToken",
          "type": "address"
        },
        {
          "internalType": "address",
          "name": "receiver",
          "type": "address"
        }
      ],
      "stateMutability": "nonpayable",
      "type": "constructor"
    },
    {
      "anonymous": false,
      "inputs": [
        {
          "indexed": false,
          "internalType": "address",
          "name": "receiver",
          "type": "address"
        }
      ],
      "name": "ReceiverChanged",
      "type": "event"
    },
    {
      "inputs": [
        {
          "internalType": "contract ISuperToken",
          "name": "",
          "type": "address"
        },
        {
          "internalType": "address",
          "name": "",
          "type": "address"
        },
        {
          "internalType": "bytes32",
          "name": "",
          "type": "bytes32"
        },
        {
          "internalType": "bytes",
          "name": "",
          "type": "bytes"
        },
        {
          "internalType": "bytes",
          "name": "",
          "type": "bytes"
        }
      ],
      "name": "beforeAgreementCreated",
      "outputs": [
        {
          "internalType": "bytes",
          "name": "",
          "type": "bytes"
        }
      ],
      "stateMutability": "view",
      "type": "function"
    },
    {
      "inputs": [
        {
          "internalType": "contract ISuperToken",
          "name": "",
          "type": "address"
        },
        {
          "internalType": "address",
          "name": "",
          "type": "address"
        },
        {
          "internalType": "bytes32",
          "name": "",
          "type": "bytes32"
        },
        {
          "internalType": "bytes",
          "name": "",
          "type": "bytes"
        },
        {
          "internalType": "bytes",
          "name": "",
          "type": "bytes"
        }
      ],
      "name": "beforeAgreementTerminated",
      "outputs": [
        {
          "internalType": "bytes",
          "name": "",
          "type": "bytes"
        }
      ],
      "stateMutability": "view",
      "type": "function"
    },
    {
      "inputs": [
        {
          "internalType": "contract ISuperToken",
          "name": "",
          "type": "address"
        },
        {
          "internalType": "address",
          "name": "",
          "type": "address"
        },
        {
          "internalType": "bytes32",
          "name": "",
          "type": "bytes32"
        },
        {
          "internalType": "bytes",
          "name": "",
          "type": "bytes"
        },
        {
          "internalType": "bytes",
          "name": "",
          "type": "bytes"
        }
      ],
      "name": "beforeAgreementUpdated",
      "outputs": [
        {
          "internalType": "bytes",
          "name": "",
          "type": "bytes"
        }
      ],
      "stateMutability": "view",
      "type": "function"
    },
    {
      "inputs": [],
      "name": "currentReceiver",
      "outputs": [
        {
          "internalType": "uint256",
          "name": "startTime",
          "type": "uint256"
        },
        {
          "internalType": "address",
          "name": "receiver",
          "type": "address"
        },
        {
          "internalType": "int96",
          "name": "flowRate",
          "type": "int96"
        }
      ],
      "stateMutability": "view",
      "type": "function"
    },
    {
      "inputs": [
        {
          "internalType": "contract ISuperToken",
          "name": "_superToken",
          "type": "address"
        },
        {
          "internalType": "address",
          "name": "_agreementClass",
          "type": "address"
        },
        {
          "internalType": "bytes32",
          "name": "",
          "type": "bytes32"
        },
        {
          "internalType": "bytes",
          "name": "",
          "type": "bytes"
        },
        {
          "internalType": "bytes",
          "name": "",
          "type": "bytes"
        },
        {
          "internalType": "bytes",
          "name": "_ctx",
          "type": "bytes"
        }
      ],
      "name": "afterAgreementCreated",
      "outputs": [
        {
          "internalType": "bytes",
          "name": "newCtx",
          "type": "bytes"
        }
      ],
      "stateMutability": "nonpayable",
      "type": "function"
    },
    {
      "inputs": [
        {
          "internalType": "contract ISuperToken",
          "name": "_superToken",
          "type": "address"
        },
        {
          "internalType": "address",
          "name": "_agreementClass",
          "type": "address"
        },
        {
          "internalType": "bytes32",
          "name": "",
          "type": "bytes32"
        },
        {
          "internalType": "bytes",
          "name": "",
          "type": "bytes"
        },
        {
          "internalType": "bytes",
          "name": "",
          "type": "bytes"
        },
        {
          "internalType": "bytes",
          "name": "_ctx",
          "type": "bytes"
        }
      ],
      "name": "afterAgreementUpdated",
      "outputs": [
        {
          "internalType": "bytes",
          "name": "newCtx",
          "type": "bytes"
        }
      ],
      "stateMutability": "nonpayable",
      "type": "function"
    },
    {
      "inputs": [
        {
          "internalType": "contract ISuperToken",
          "name": "_superToken",
          "type": "address"
        },
        {
          "internalType": "address",
          "name": "_agreementClass",
          "type": "address"
        },
        {
          "internalType": "bytes32",
          "name": "",
          "type": "bytes32"
        },
        {
          "internalType": "bytes",
          "name": "",
          "type": "bytes"
        },
        {
          "internalType": "bytes",
          "name": "",
          "type": "bytes"
        },
        {
          "internalType": "bytes",
          "name": "_ctx",
          "type": "bytes"
        }
      ],
      "name": "afterAgreementTerminated",
      "outputs": [
        {
          "internalType": "bytes",
          "name": "newCtx",
          "type": "bytes"
        }
      ],
      "stateMutability": "nonpayable",
      "type": "function"
    }
  ],
  "bytecode": "0x60806040523480156200001157600080fd5b5060405162002730380380620027308339818101604052810190620000379190620005b6565b600073ffffffffffffffffffffffffffffffffffffffff168473ffffffffffffffffffffffffffffffffffffffff161415620000aa576040517f08c379a0000000000000000000000000000000000000000000000000000000008152600401620000a19062000689565b60405180910390fd5b600073ffffffffffffffffffffffffffffffffffffffff168373ffffffffffffffffffffffffffffffffffffffff1614156200011d576040517f08c379a00000000000000000000000000000000000000000000000000000000081526004016200011490620006fb565b60405180910390fd5b600073ffffffffffffffffffffffffffffffffffffffff168273ffffffffffffffffffffffffffffffffffffffff16141562000190576040517f08c379a000000000000000000000000000000000000000000000000000000000815260040162000187906200076d565b60405180910390fd5b600073ffffffffffffffffffffffffffffffffffffffff168173ffffffffffffffffffffffffffffffffffffffff16141562000203576040517f08c379a0000000000000000000000000000000000000000000000000000000008152600401620001fa90620007df565b60405180910390fd5b8373ffffffffffffffffffffffffffffffffffffffff16633ca3ad4e826040518263ffffffff1660e01b81526004016200023e91906200086c565b602060405180830381865afa1580156200025c573d6000803e3d6000fd5b505050506040513d601f19601f82011682018060405250810190620002829190620008c6565b15620002c5576040517f08c379a0000000000000000000000000000000000000000000000000000000008152600401620002bc9062000948565b60405180910390fd5b836000806101000a81548173ffffffffffffffffffffffffffffffffffffffff021916908373ffffffffffffffffffffffffffffffffffffffff16021790555082600160006101000a81548173ffffffffffffffffffffffffffffffffffffffff021916908373ffffffffffffffffffffffffffffffffffffffff16021790555081600260006101000a81548173ffffffffffffffffffffffffffffffffffffffff021916908373ffffffffffffffffffffffffffffffffffffffff16021790555080600360006101000a81548173ffffffffffffffffffffffffffffffffffffffff021916908373ffffffffffffffffffffffffffffffffffffffff16021790555060006410000000006404000000006401000000006001171717905060008054906101000a900473ffffffffffffffffffffffffffffffffffffffff1673ffffffffffffffffffffffffffffffffffffffff1663ad3915c8826040518263ffffffff1660e01b81526004016200043e919062000985565b600060405180830381600087803b1580156200045957600080fd5b505af11580156200046e573d6000803e3d6000fd5b505050505050505050620009a2565b600080fd5b600073ffffffffffffffffffffffffffffffffffffffff82169050919050565b6000620004af8262000482565b9050919050565b6000620004c382620004a2565b9050919050565b620004d581620004b6565b8114620004e157600080fd5b50565b600081519050620004f581620004ca565b92915050565b60006200050882620004a2565b9050919050565b6200051a81620004fb565b81146200052657600080fd5b50565b6000815190506200053a816200050f565b92915050565b60006200054d82620004a2565b9050919050565b6200055f8162000540565b81146200056b57600080fd5b50565b6000815190506200057f8162000554565b92915050565b6200059081620004a2565b81146200059c57600080fd5b50565b600081519050620005b08162000585565b92915050565b60008060008060808587031215620005d357620005d26200047d565b5b6000620005e387828801620004e4565b9450506020620005f68782880162000529565b935050604062000609878288016200056e565b92505060606200061c878288016200059f565b91505092959194509250565b600082825260208201905092915050565b7f686f7374206973207a65726f2061646472657373000000000000000000000000600082015250565b60006200067160148362000628565b91506200067e8262000639565b602082019050919050565b60006020820190508181036000830152620006a48162000662565b9050919050565b7f636661206973207a65726f206164647265737300000000000000000000000000600082015250565b6000620006e360138362000628565b9150620006f082620006ab565b602082019050919050565b600060208201905081810360008301526200071681620006d4565b9050919050565b7f6163636570746564546f6b656e206973207a65726f2061646472657373000000600082015250565b600062000755601d8362000628565b915062000762826200071d565b602082019050919050565b60006020820190508181036000830152620007888162000746565b9050919050565b7f7265636569766572206973207a65726f20616464726573730000000000000000600082015250565b6000620007c760188362000628565b9150620007d4826200078f565b602082019050919050565b60006020820190508181036000830152620007fa81620007b8565b9050919050565b6000819050919050565b60006200082c62000826620008208462000482565b62000801565b62000482565b9050919050565b600062000840826200080b565b9050919050565b6000620008548262000833565b9050919050565b620008668162000847565b82525050565b60006020820190506200088360008301846200085b565b92915050565b60008115159050919050565b620008a08162000889565b8114620008ac57600080fd5b50565b600081519050620008c08162000895565b92915050565b600060208284031215620008df57620008de6200047d565b5b6000620008ef84828501620008af565b91505092915050565b7f726563656976657220697320616e206170700000000000000000000000000000600082015250565b60006200093060128362000628565b91506200093d82620008f8565b602082019050919050565b60006020820190508181036000830152620009638162000921565b9050919050565b6000819050919050565b6200097f816200096a565b82525050565b60006020820190506200099c600083018462000974565b92915050565b611d7e80620009b26000396000f3fe608060405234801561001057600080fd5b506004361061007d5760003560e01c806353c11f991161005b57806353c11f99146101025780635f9e7d7714610132578063884d1f4014610162578063d86ed3e5146101925761007d565b8063230dbd291461008257806328d2bf94146100b257806330d9c915146100d2575b600080fd5b61009c6004803603810190610097919061117e565b6101c2565b6040516100a99190611306565b60405180910390f35b6100ba6102ff565b6040516100c99392919061136c565b60405180910390f35b6100ec60048036038101906100e791906113a3565b610473565b6040516100f99190611306565b60405180910390f35b61011c6004803603810190610117919061117e565b6104b0565b6040516101299190611306565b60405180910390f35b61014c600480360381019061014791906113a3565b6105c6565b6040516101599190611306565b60405180910390f35b61017c600480360381019061017791906113a3565b610603565b6040516101899190611306565b60405180910390f35b6101ac60048036038101906101a7919061117e565b610640565b6040516101b99190611306565b60405180910390f35b606089896101cf8261077d565b61020e576040517f08c379a0000000000000000000000000000000000000000000000000000000008152600401610205906114bc565b60405180910390fd5b610217816107d7565b610256576040517f08c379a000000000000000000000000000000000000000000000000000000000815260040161024d9061154e565b60405180910390fd5b60008054906101000a900473ffffffffffffffffffffffffffffffffffffffff1673ffffffffffffffffffffffffffffffffffffffff163373ffffffffffffffffffffffffffffffffffffffff16146102e4576040517f08c379a00000000000000000000000000000000000000000000000000000000081526004016102db906115e0565b60405180910390fd5b6102ee8585610871565b925050509998505050505050505050565b60008060008073ffffffffffffffffffffffffffffffffffffffff16600360009054906101000a900473ffffffffffffffffffffffffffffffffffffffff1673ffffffffffffffffffffffffffffffffffffffff161461046e57600160009054906101000a900473ffffffffffffffffffffffffffffffffffffffff1673ffffffffffffffffffffffffffffffffffffffff1663e6a1e888600260009054906101000a900473ffffffffffffffffffffffffffffffffffffffff1630600360009054906101000a900473ffffffffffffffffffffffffffffffffffffffff166040518463ffffffff1660e01b81526004016103fc9392919061165f565b608060405180830381865afa158015610419573d6000803e3d6000fd5b505050506040513d601f19601f8201168201806040525081019061043d91906116ee565b9050508092508194505050600360009054906101000a900473ffffffffffffffffffffffffffffffffffffffff1691505b909192565b60606040517f08c379a00000000000000000000000000000000000000000000000000000000081526004016104a7906117c7565b60405180910390fd5b606060008054906101000a900473ffffffffffffffffffffffffffffffffffffffff1673ffffffffffffffffffffffffffffffffffffffff163373ffffffffffffffffffffffffffffffffffffffff1614610540576040517f08c379a0000000000000000000000000000000000000000000000000000000008152600401610537906115e0565b60405180910390fd5b6105498a61077d565b158061055b5750610559896107d7565b155b156105ac5782828080601f016020809104026020016040519081016040528093929190818152602001838380828437600081840152601f19601f8201169050808301925050505050505090506105b9565b6105b68383610871565b90505b9998505050505050505050565b60606040517f08c379a00000000000000000000000000000000000000000000000000000000081526004016105fa90611859565b60405180910390fd5b60606040517f08c379a0000000000000000000000000000000000000000000000000000000008152600401610637906118eb565b60405180910390fd5b6060898961064d8261077d565b61068c576040517f08c379a0000000000000000000000000000000000000000000000000000000008152600401610683906114bc565b60405180910390fd5b610695816107d7565b6106d4576040517f08c379a00000000000000000000000000000000000000000000000000000000081526004016106cb9061154e565b60405180910390fd5b60008054906101000a900473ffffffffffffffffffffffffffffffffffffffff1673ffffffffffffffffffffffffffffffffffffffff163373ffffffffffffffffffffffffffffffffffffffff1614610762576040517f08c379a0000000000000000000000000000000000000000000000000000000008152600401610759906115e0565b60405180910390fd5b61076c8585610871565b925050509998505050505050505050565b6000600260009054906101000a900473ffffffffffffffffffffffffffffffffffffffff1673ffffffffffffffffffffffffffffffffffffffff168273ffffffffffffffffffffffffffffffffffffffff16149050919050565b60007fa9214cc96615e0085d3bb077758db69497dc2dce3b2b1e97bc93c3d18d83efd38273ffffffffffffffffffffffffffffffffffffffff16637730599e6040518163ffffffff1660e01b8152600401602060405180830381865afa158015610845573d6000803e3d6000fd5b505050506040513d601f19601f820116820180604052508101906108699190611920565b149050919050565b606082828080601f016020809104026020016040519081016040528093929190818152602001838380828437600081840152601f19601f8201169050808301925050505050505090506000600160009054906101000a900473ffffffffffffffffffffffffffffffffffffffff1673ffffffffffffffffffffffffffffffffffffffff1663e8e7e2d1600260009054906101000a900473ffffffffffffffffffffffffffffffffffffffff16306040518363ffffffff1660e01b815260040161093b92919061194d565b602060405180830381865afa158015610958573d6000803e3d6000fd5b505050506040513d601f19601f8201168201806040525081019061097c9190611976565b90506000600160009054906101000a900473ffffffffffffffffffffffffffffffffffffffff1673ffffffffffffffffffffffffffffffffffffffff1663e6a1e888600260009054906101000a900473ffffffffffffffffffffffffffffffffffffffff1630600360009054906101000a900473ffffffffffffffffffffffffffffffffffffffff166040518463ffffffff1660e01b8152600401610a239392919061165f565b608060405180830381865afa158015610a40573d6000803e3d6000fd5b505050506040513d601f19601f82011682018060405250810190610a6491906116ee565b505091505060008183610a7791906119d2565b90506000600b0b81600b0b1415610c655760008054906101000a900473ffffffffffffffffffffffffffffffffffffffff1673ffffffffffffffffffffffffffffffffffffffff16634329d293600160009054906101000a900473ffffffffffffffffffffffffffffffffffffffff1663b4b333c660e01b600260009054906101000a900473ffffffffffffffffffffffffffffffffffffffff1630600360009054906101000a900473ffffffffffffffffffffffffffffffffffffffff16600067ffffffffffffffff811115610b5157610b50611a52565b5b6040519080825280601f01601f191660200182016040528015610b835781602001600182028036833780820191505090505b50604051602401610b979493929190611a81565b604051602081830303815290604052907bffffffffffffffffffffffffffffffffffffffffffffffffffffffff19166020820180517bffffffffffffffffffffffffffffffffffffffffffffffffffffffff8381831617835250505050876040518463ffffffff1660e01b8152600401610c1393929190611b3a565b6000604051808303816000875af1158015610c32573d6000803e3d6000fd5b505050506040513d6000823e3d601f19601f82011682018060405250810190610c5b9190611c84565b508094505061102a565b6000600b0b82600b0b14610e505760008054906101000a900473ffffffffffffffffffffffffffffffffffffffff1673ffffffffffffffffffffffffffffffffffffffff16634329d293600160009054906101000a900473ffffffffffffffffffffffffffffffffffffffff166350209a6260e01b600260009054906101000a900473ffffffffffffffffffffffffffffffffffffffff16600360009054906101000a900473ffffffffffffffffffffffffffffffffffffffff1686600067ffffffffffffffff811115610d3c57610d3b611a52565b5b6040519080825280601f01601f191660200182016040528015610d6e5781602001600182028036833780820191505090505b50604051602401610d829493929190611cfc565b604051602081830303815290604052907bffffffffffffffffffffffffffffffffffffffffffffffffffffffff19166020820180517bffffffffffffffffffffffffffffffffffffffffffffffffffffffff8381831617835250505050876040518463ffffffff1660e01b8152600401610dfe93929190611b3a565b6000604051808303816000875af1158015610e1d573d6000803e3d6000fd5b505050506040513d6000823e3d601f19601f82011682018060405250810190610e469190611c84565b5080945050611029565b60008054906101000a900473ffffffffffffffffffffffffffffffffffffffff1673ffffffffffffffffffffffffffffffffffffffff16634329d293600160009054906101000a900473ffffffffffffffffffffffffffffffffffffffff166362fc305e60e01b600260009054906101000a900473ffffffffffffffffffffffffffffffffffffffff16600360009054906101000a900473ffffffffffffffffffffffffffffffffffffffff1686600067ffffffffffffffff811115610f1957610f18611a52565b5b6040519080825280601f01601f191660200182016040528015610f4b5781602001600182028036833780820191505090505b50604051602401610f5f9493929190611cfc565b604051602081830303815290604052907bffffffffffffffffffffffffffffffffffffffffffffffffffffffff19166020820180517bffffffffffffffffffffffffffffffffffffffffffffffffffffffff8381831617835250505050876040518463ffffffff1660e01b8152600401610fdb93929190611b3a565b6000604051808303816000875af1158015610ffa573d6000803e3d6000fd5b505050506040513d6000823e3d601f19601f820116820180604052508101906110239190611c84565b50809450505b5b50505092915050565b6000604051905090565b600080fd5b600080fd5b600073ffffffffffffffffffffffffffffffffffffffff82169050919050565b600061107282611047565b9050919050565b600061108482611067565b9050919050565b61109481611079565b811461109f57600080fd5b50565b6000813590506110b18161108b565b92915050565b6110c081611067565b81146110cb57600080fd5b50565b6000813590506110dd816110b7565b92915050565b6000819050919050565b6110f6816110e3565b811461110157600080fd5b50565b600081359050611113816110ed565b92915050565b600080fd5b600080fd5b600080fd5b60008083601f84011261113e5761113d611119565b5b8235905067ffffffffffffffff81111561115b5761115a61111e565b5b60208301915083600182028301111561117757611176611123565b5b9250929050565b600080600080600080600080600060c08a8c0312156111a05761119f61103d565b5b60006111ae8c828d016110a2565b99505060206111bf8c828d016110ce565b98505060406111d08c828d01611104565b97505060608a013567ffffffffffffffff8111156111f1576111f0611042565b5b6111fd8c828d01611128565b965096505060808a013567ffffffffffffffff8111156112205761121f611042565b5b61122c8c828d01611128565b945094505060a08a013567ffffffffffffffff81111561124f5761124e611042565b5b61125b8c828d01611128565b92509250509295985092959850929598565b600081519050919050565b600082825260208201905092915050565b60005b838110156112a757808201518184015260208101905061128c565b838111156112b6576000848401525b50505050565b6000601f19601f8301169050919050565b60006112d88261126d565b6112e28185611278565b93506112f2818560208601611289565b6112fb816112bc565b840191505092915050565b6000602082019050818103600083015261132081846112cd565b905092915050565b6000819050919050565b61133b81611328565b82525050565b61134a81611067565b82525050565b600081600b0b9050919050565b61136681611350565b82525050565b60006060820190506113816000830186611332565b61138e6020830185611341565b61139b604083018461135d565b949350505050565b600080600080600080600060a0888a0312156113c2576113c161103d565b5b60006113d08a828b016110a2565b97505060206113e18a828b016110ce565b96505060406113f28a828b01611104565b955050606088013567ffffffffffffffff81111561141357611412611042565b5b61141f8a828b01611128565b9450945050608088013567ffffffffffffffff81111561144257611441611042565b5b61144e8a828b01611128565b925092505092959891949750929550565b600082825260208201905092915050565b7f5265646972656374416c6c3a206e6f7420616363657074656420746f6b656e00600082015250565b60006114a6601f8361145f565b91506114b182611470565b602082019050919050565b600060208201905081810360008301526114d581611499565b9050919050565b7f5265646972656374416c6c3a206f6e6c7920434641763120737570706f72746560008201527f6400000000000000000000000000000000000000000000000000000000000000602082015250565b600061153860218361145f565b9150611543826114dc565b604082019050919050565b600060208201905081810360008301526115678161152b565b9050919050565b7f5265646972656374416c6c3a20737570706f7274206f6e6c79206f6e6520686f60008201527f7374000000000000000000000000000000000000000000000000000000000000602082015250565b60006115ca60228361145f565b91506115d58261156e565b604082019050919050565b600060208201905081810360008301526115f9816115bd565b9050919050565b6000819050919050565b600061162561162061161b84611047565b611600565b611047565b9050919050565b60006116378261160a565b9050919050565b60006116498261162c565b9050919050565b6116598161163e565b82525050565b60006060820190506116746000830186611650565b6116816020830185611341565b61168e6040830184611341565b949350505050565b61169f81611328565b81146116aa57600080fd5b50565b6000815190506116bc81611696565b92915050565b6116cb81611350565b81146116d657600080fd5b50565b6000815190506116e8816116c2565b92915050565b600080600080608085870312156117085761170761103d565b5b6000611716878288016116ad565b9450506020611727878288016116d9565b9350506040611738878288016116ad565b9250506060611749878288016116ad565b91505092959194509250565b7f556e737570706f727465642063616c6c6261636b202d204265666f726520416760008201527f7265656d656e7420437265617465640000000000000000000000000000000000602082015250565b60006117b1602f8361145f565b91506117bc82611755565b604082019050919050565b600060208201905081810360008301526117e0816117a4565b9050919050565b7f556e737570706f727465642063616c6c6261636b202d20204265666f7265204160008201527f677265656d656e74205465726d696e6174656400000000000000000000000000602082015250565b600061184360338361145f565b915061184e826117e7565b604082019050919050565b6000602082019050818103600083015261187281611836565b9050919050565b7f556e737570706f727465642063616c6c6261636b202d204265666f726520416760008201527f7265656d656e7420757064617465640000000000000000000000000000000000602082015250565b60006118d5602f8361145f565b91506118e082611879565b604082019050919050565b60006020820190508181036000830152611904816118c8565b9050919050565b60008151905061191a816110ed565b92915050565b6000602082840312156119365761193561103d565b5b60006119448482850161190b565b91505092915050565b60006040820190506119626000830185611650565b61196f6020830184611341565b9392505050565b60006020828403121561198c5761198b61103d565b5b600061199a848285016116d9565b91505092915050565b7f4e487b7100000000000000000000000000000000000000000000000000000000600052601160045260246000fd5b60006119dd82611350565b91506119e883611350565b9250816b7fffffffffffffffffffffff03831360008312151615611a0f57611a0e6119a3565b5b817fffffffffffffffffffffffffffffffffffffffff800000000000000000000000038312600083121615611a4757611a466119a3565b5b828201905092915050565b7f4e487b7100000000000000000000000000000000000000000000000000000000600052604160045260246000fd5b6000608082019050611a966000830187611650565b611aa36020830186611341565b611ab06040830185611341565b8181036060830152611ac281846112cd565b905095945050505050565b6000611ad88261162c565b9050919050565b611ae881611acd565b82525050565b7f3078000000000000000000000000000000000000000000000000000000000000600082015250565b6000611b24600283611278565b9150611b2f82611aee565b602082019050919050565b6000608082019050611b4f6000830186611adf565b8181036020830152611b6181856112cd565b90508181036040830152611b7481611b17565b90508181036060830152611b8881846112cd565b9050949350505050565b600080fd5b611ba0826112bc565b810181811067ffffffffffffffff82111715611bbf57611bbe611a52565b5b80604052505050565b6000611bd2611033565b9050611bde8282611b97565b919050565b600067ffffffffffffffff821115611bfe57611bfd611a52565b5b611c07826112bc565b9050602081019050919050565b6000611c27611c2284611be3565b611bc8565b905082815260208101848484011115611c4357611c42611b92565b5b611c4e848285611289565b509392505050565b600082601f830112611c6b57611c6a611119565b5b8151611c7b848260208601611c14565b91505092915050565b60008060408385031215611c9b57611c9a61103d565b5b600083015167ffffffffffffffff811115611cb957611cb8611042565b5b611cc585828601611c56565b925050602083015167ffffffffffffffff811115611ce657611ce5611042565b5b611cf285828601611c56565b9150509250929050565b6000608082019050611d116000830187611650565b611d1e6020830186611341565b611d2b604083018561135d565b8181036060830152611d3d81846112cd565b90509594505050505056fea2646970667358221220aec5cde798bebf6a91d344b97f1431e32f377eda5eeeed74d07914f60cc493c164736f6c634300080b0033",
  "immutableReferences": {},
  "source": "// SPDX-License-Identifier: MIT\r\npragma solidity ^0.8.0;\r\npragma experimental ABIEncoderV2;\r\n\r\nimport {ISuperfluid, ISuperToken, ISuperApp, ISuperAgreement, ContextDefinitions, SuperAppDefinitions} from '@superfluid-finance/ethereum-contracts/contracts/interfaces/superfluid/ISuperfluid.sol';\r\n\r\n// When ready to move to leave Remix, change imports to follow this pattern:\r\n// \"@superfluid-finance/ethereum-contracts/contracts/interfaces/superfluid/ISuperfluid.sol\";\r\n\r\nimport {IConstantFlowAgreementV1} from '@superfluid-finance/ethereum-contracts/contracts/interfaces/agreements/IConstantFlowAgreementV1.sol';\r\n\r\n//Allow you to register your superfluid engine with the host\r\nimport {SuperAppBase} from '@superfluid-finance/ethereum-contracts/contracts/apps/SuperAppBase.sol';\r\n\r\ncontract RedirectAll is SuperAppBase {\r\n    ISuperfluid private _host; // host\r\n    IConstantFlowAgreementV1 private _cfa; // the stored constant flow agreement class address\r\n    ISuperToken private _acceptedToken; // accepted token\r\n    address private _receiver;\r\n\r\n    constructor(\r\n        ISuperfluid host,\r\n        IConstantFlowAgreementV1 cfa,\r\n        ISuperToken acceptedToken,\r\n        address receiver\r\n    ) {\r\n        require(address(host) != address(0), 'host is zero address');\r\n        require(address(cfa) != address(0), 'cfa is zero address');\r\n        require(\r\n            address(acceptedToken) != address(0),\r\n            'acceptedToken is zero address'\r\n        );\r\n        require(address(receiver) != address(0), 'receiver is zero address');\r\n        require(!host.isApp(ISuperApp(receiver)), 'receiver is an app');\r\n\r\n        _host = host;\r\n        _cfa = cfa;\r\n        _acceptedToken = acceptedToken;\r\n        _receiver = receiver;\r\n\r\n        uint256 configWord = SuperAppDefinitions.APP_LEVEL_FINAL |\r\n            SuperAppDefinitions.BEFORE_AGREEMENT_CREATED_NOOP |\r\n            SuperAppDefinitions.BEFORE_AGREEMENT_UPDATED_NOOP |\r\n            SuperAppDefinitions.BEFORE_AGREEMENT_TERMINATED_NOOP;\r\n\r\n        _host.registerApp(configWord);\r\n    }\r\n\r\n    /**************************************************************************\r\n     * Redirect Logic\r\n     *************************************************************************/\r\n\r\n    function currentReceiver()\r\n        external\r\n        view\r\n        returns (\r\n            uint256 startTime,\r\n            address receiver,\r\n            int96 flowRate\r\n        )\r\n    {\r\n        if (_receiver != address(0)) {\r\n            (startTime, flowRate, , ) = _cfa.getFlow(\r\n                _acceptedToken,\r\n                address(this),\r\n                _receiver\r\n            );\r\n            receiver = _receiver;\r\n        }\r\n    }\r\n\r\n    event ReceiverChanged(address receiver); //what is this?\r\n\r\n    /// @dev If a new stream is opened, or an existing one is opened\r\n    function _updateOutflow(bytes calldata ctx)\r\n        private\r\n        returns (bytes memory newCtx)\r\n    {\r\n        newCtx = ctx;\r\n        // @dev This will give me the new flowRate, as it is called in after callbacks\r\n        int96 netFlowRate = _cfa.getNetFlow(_acceptedToken, address(this));\r\n        (, int96 outFlowRate, , ) = _cfa.getFlow(\r\n            _acceptedToken,\r\n            address(this),\r\n            _receiver\r\n        ); // CHECK: unclear what happens if flow doesn't exist.\r\n        int96 inFlowRate = netFlowRate + outFlowRate;\r\n\r\n        // @dev If inFlowRate === 0, then delete existing flow.\r\n        if (inFlowRate == int96(0)) {\r\n            // @dev if inFlowRate is zero, delete outflow.\r\n            (newCtx, ) = _host.callAgreementWithContext(\r\n                _cfa,\r\n                abi.encodeWithSelector(\r\n                    _cfa.deleteFlow.selector,\r\n                    _acceptedToken,\r\n                    address(this),\r\n                    _receiver,\r\n                    new bytes(0) // placeholder\r\n                ),\r\n                '0x',\r\n                newCtx\r\n            );\r\n        } else if (outFlowRate != int96(0)) {\r\n            (newCtx, ) = _host.callAgreementWithContext(\r\n                _cfa,\r\n                abi.encodeWithSelector(\r\n                    _cfa.updateFlow.selector,\r\n                    _acceptedToken,\r\n                    _receiver,\r\n                    inFlowRate,\r\n                    new bytes(0) // placeholder\r\n                ),\r\n                '0x',\r\n                newCtx\r\n            );\r\n        } else {\r\n            // @dev If there is no existing outflow, then create new flow to equal inflow\r\n            (newCtx, ) = _host.callAgreementWithContext(\r\n                _cfa,\r\n                abi.encodeWithSelector(\r\n                    _cfa.createFlow.selector,\r\n                    _acceptedToken,\r\n                    _receiver,\r\n                    inFlowRate,\r\n                    new bytes(0) // placeholder\r\n                ),\r\n                '0x',\r\n                newCtx\r\n            );\r\n        }\r\n    }\r\n\r\n    // @dev Change the Receiver of the total flow\r\n    function _changeReceiver(address newReceiver) internal {\r\n        require(newReceiver != address(0), 'New receiver is zero address');\r\n        // @dev because our app is registered as final, we can't take downstream apps\r\n        require(\r\n            !_host.isApp(ISuperApp(newReceiver)),\r\n            'New receiver can not be a superApp'\r\n        );\r\n        if (newReceiver == _receiver) return;\r\n        // @dev delete flow to old receiver\r\n        (, int96 outFlowRate, , ) = _cfa.getFlow(\r\n            _acceptedToken,\r\n            address(this),\r\n            _receiver\r\n        ); //CHECK: unclear what happens if flow doesn't exist.\r\n        if (outFlowRate > 0) {\r\n            _host.callAgreement(\r\n                _cfa,\r\n                abi.encodeWithSelector(\r\n                    _cfa.deleteFlow.selector,\r\n                    _acceptedToken,\r\n                    address(this),\r\n                    _receiver,\r\n                    new bytes(0)\r\n                ),\r\n                '0x'\r\n            );\r\n            // @dev create flow to new receiver\r\n            _host.callAgreement(\r\n                _cfa,\r\n                abi.encodeWithSelector(\r\n                    _cfa.createFlow.selector,\r\n                    _acceptedToken,\r\n                    newReceiver,\r\n                    _cfa.getNetFlow(_acceptedToken, address(this)),\r\n                    new bytes(0)\r\n                ),\r\n                '0x'\r\n            );\r\n        }\r\n        // @dev set global receiver to new receiver\r\n        _receiver = newReceiver;\r\n\r\n        emit ReceiverChanged(_receiver);\r\n    }\r\n\r\n    /**************************************************************************\r\n     * SuperApp callbacks\r\n     *************************************************************************/\r\n\r\n    function afterAgreementCreated(\r\n        ISuperToken _superToken,\r\n        address _agreementClass,\r\n        bytes32, // _agreementId,\r\n        bytes calldata, /*_agreementData*/\r\n        bytes calldata, // _cbdata,\r\n        bytes calldata _ctx\r\n    )\r\n        external\r\n        override\r\n        onlyExpected(_superToken, _agreementClass)\r\n        onlyHost\r\n        returns (bytes memory newCtx)\r\n    {\r\n        return _updateOutflow(_ctx);\r\n    }\r\n\r\n    function afterAgreementUpdated(\r\n        ISuperToken _superToken,\r\n        address _agreementClass,\r\n        bytes32, //_agreementId,\r\n        bytes calldata, //agreementData,\r\n        bytes calldata, //_cbdata,\r\n        bytes calldata _ctx\r\n    )\r\n        external\r\n        override\r\n        onlyExpected(_superToken, _agreementClass)\r\n        onlyHost\r\n        returns (bytes memory newCtx)\r\n    {\r\n        return _updateOutflow(_ctx);\r\n    }\r\n\r\n    function afterAgreementTerminated(\r\n        ISuperToken _superToken,\r\n        address _agreementClass,\r\n        bytes32, //_agreementId,\r\n        bytes calldata, /*_agreementData*/\r\n        bytes calldata, //_cbdata,\r\n        bytes calldata _ctx\r\n    ) external override onlyHost returns (bytes memory newCtx) {\r\n        // According to the app basic law, we should never revert in a termination callback\r\n        if (!_isSameToken(_superToken) || !_isCFAv1(_agreementClass))\r\n            return _ctx;\r\n        return _updateOutflow(_ctx);\r\n    }\r\n\r\n    function _isSameToken(ISuperToken superToken) private view returns (bool) {\r\n        return address(superToken) == address(_acceptedToken);\r\n    }\r\n\r\n    function _isCFAv1(address agreementClass) private view returns (bool) {\r\n        return\r\n            ISuperAgreement(agreementClass).agreementType() ==\r\n            keccak256(\r\n                'org.superfluid-finance.agreements.ConstantFlowAgreement.v1'\r\n            );\r\n    }\r\n\r\n    modifier onlyHost() {\r\n        require(\r\n            msg.sender == address(_host),\r\n            'RedirectAll: support only one host'\r\n        );\r\n        _;\r\n    }\r\n\r\n    modifier onlyExpected(ISuperToken superToken, address agreementClass) {\r\n        require(_isSameToken(superToken), 'RedirectAll: not accepted token');\r\n        require(_isCFAv1(agreementClass), 'RedirectAll: only CFAv1 supported');\r\n        _;\r\n    }\r\n}\r\n",
  "sourcePath": "C:\\Users\\Jason\\0xPhotos\\apps\\blockchain\\contracts\\RedirectAll.sol",
  "compiler": {
    "name": "solc",
    "version": "0.8.11+commit.d7f03943.Emscripten.clang"
  },
  "schemaVersion": "3.4.4",
  "updatedAt": "2022-01-14T22:43:25.659Z",
  "devdoc": {
    "kind": "dev",
    "methods": {},
    "version": 1
  },
  "userdoc": {
    "kind": "user",
    "methods": {},
    "version": 1
  }
}